:0400000082312A2AF5
:10000800803120007F08F800911C0B280C2821283B
:100018009C310A2480319831162080310530230024
:10002800AC070030AD3D0030AE3D0030AF3DFC01C7
:100038000314FC0D200091102128931C2428252846
:10004800272A27008D1023006808031D2C281C2947
:100058001830C23E860001308700403F5C06031D11
:100068003728413F5D0603193A283B281C290430EC
:10007800C23E860001308700403FC207413FC33D72
:10008800423FC43D433FC53D40304502031D56280D
:1000980000304402031D562800304302031D562831
:1000A80001304202031C59285A2877286608F400B0
:1000B800F501F41BF5037408DA077508DB3D220027
:1000C8000E110030F4000030F5000030F60040302A
:1000D800F70074082300C2027508C33B7608C43BC6
:1000E8007708C53B77281830C23E86000130870064
:1000F800403F5E06031D8228413F5F06031D852899
:1001080086288928E7010314E70DE708031D8D28D1
:100118008E28C02855084902031D9C285408480207
:10012800031D9C2853084702031D9C2852084602B9
:1001380003189F28A028B6280830C23E8600013040
:100148008700403FC607413FC73D423FC83D433F48
:10015800C93D0230CA070030CB3D0030CC3D0030ED
:10016800CD3D1D294A08C6024B08C73B4C08C83B71
:100178004D08C93B1D291D291A30C23E8600013091
:1001880087005A09F4005B09F500F40A0319F50A17
:10019800403F7407F000413F753DF100A431502401
:1001A800803171082200B301B3077008B201B207A9
:1001B80000303302023003193202031CE428E52818
:1001C8001D29003023004902031DF4280830480285
:1001D800031DF428F5304702031DF428C1304602F8
:1001E800031CF728F82811294E08C6024F08C73BF8
:1001F8005008C83B5108C93B0530F4000030F500F1
:100208000030F6000030F7007408CE027508CF3BC6
:100218007608D03B7708D13B1D295D08DB01DB0759
:100228005C08DA01DA07E8011D291D291D291D29A5
:10023800E80122000E156308031D23291F2A183020
:100248003D3E860001308700403F5706031D2E299A
:10025800413F58060319312932291F2A04303D3EEF
:10026800860001308700403FBD07413FBE3D423F09
:10027800BF3D433FC03D40304002031D4D29003083
:100288003F02031D4D2900303E02031D4D29013058
:100298003D02031C502951296C296108F400F5011D
:1002A800F41BF5037408D5077508D63D8E10003089
:1002B800F4000030F5000030F6004030F700740814
:1002C800BD027508BE3B7608BF3B7708C03B6C296A
:1002D80018303D3E860001308700403F5906031D17
:1002E8007729413F5A06031D7A297B297F29E20194
:1002F8000314E20D7F296708C5006808C600C70116
:10030800C801E208031D89298A29D4295008440212
:10031800031D98294F084302031D98294E084202DD
:10032800031D98294D08410203189B299C29AA29D5
:1003380008303D3E860001308700403FC107413FFD
:10034800C23D423FC33D433FC43D202A4508C10248
:100358004608C23B4708C33B4808C43B7A08023AF0
:10036800031DB729B829202A5608F101F1075508B5
:10037800F001F007A431502480317108803AFF0061
:10038800E0307F02031DCA2901307002031CCD2909
:10039800CE29202A2200D501D601202A202A202A67
:1003A8001A303D3E8600013087005509F400560991
:1003B800F500F40A0319F50A403F7407F000413FBD
:1003C800753DF100A4315024803171082200B30139
:1003D800B3077008B201B2070030330206300319C0
:1003E8003202031CF829F929152A44084C02031D76
:1003F800072A43084B02031D072A42084A02031D25
:10040800072A4108490203180A2A0B2A202A490800
:10041800C1024A08C23B4B08C33B4C08C43B202AD4
:10042800202A5808D601D6075708D501D507E30171
:10043800202A202A202AE30122008E1427008D1466
:1004480020009310272A7808FF0009008801A631A8
:100458003A2E20004A08D0004B08D1004C08D200A0
:100468000310510D520DD3005308D400D408031DB6
:100478003E2A3F2A472A0030CA000030CB0000300D
:10048800CC00F62AF62A4D08D0004E08D1004F08B5
:10049800D2000310510D520DD3005308D900D908CA
:1004A800031D572A582A602A0030CA000030CB00A2
:1004B8000030CC00F62AF62A59087B3ED0005008B6
:1004C800D4074A08D0004B08D1004C08D20010309D
:1004D800D236D10CD00C890B6C2A5008D3005308A3
:1004E800D9004D08D0004E08D1004F08D200103076
:1004F800D236D10CD00C890B7C2A5008D300530873
:10050800D9068030D0005008D905CB17CE17FF3058
:10051800CD05FF30CE050030CF050030D5000030C6
:10052800D6000030D7000730D0005008D8009C2AE9
:100538004A1C9F2AA02AA72A4D08D5074E08D63D4F
:100548004F08D73DA72A0130CC36CB0CCA0C890BF3
:10055800A82A0130CD35CE0DCF0D890BAE2A01303A
:10056800D802031DB82AB92A9C2ABA2A0930D00011
:100578005008D800BF2A4A1CC22AC32ACA2A4D08D2
:10058800D5074E08D63D4F08D73DCA2A0130CC368C
:10059800CB0CCA0C890BCB2A0130D736D60CD50C1C
:1005A800890BD12A0130D802031DDB2ADC2ABF2A95
:1005B800DD2A5508A0005608A1005708A2005408D3
:1005C800D0005008A3005908D1005108A40099315F
:1005D8007B21823120002008CA002108CB00220894
:1005E800CC00F62A0800FF34FF340134013401340A
:1005F80001342200B801080083318207022BA3319D
:10060800CB2BA331E92BA431742C98310028A431C9
:10061800412C903100282100EA010030E900003027
:10062800E8000030E7000030E60064008831192057
:100638008331A331DF2383312100ED0108306D02BE
:10064800031C272B282B2A2B3A2B3A2B6400A43186
:10065800D224833101302100E4006408ED0708301A
:100668006D02031C382B392B2A2B3A2B0430A53169
:100678007D25833103302100E4006408FA007A08FC
:10068800A531C1258331C230A431262483313D30C0
:10069800A4312624833100302000A0000030A100BE
:1006A800C230A431B724833100302000A0000030CC
:1006B800A1003D30A431B724833100302000A300CD
:1006C8000030A2005D30A100C030A000C230A331CC
:1006D800F423833100302000A3000030A20013303F
:1006E800A1008830A0003D30A331F42383312830A5
:1006F8002000A0002330A100C230A431002483319F
:10070800D0302000A0000730A1003D30A4310024E3
:1007180083312100EF010314EF0DEA01FC0182315E
:10072800FD22833164007C08013A031D9C2B9D2B1C
:10073800962BFC01A5314125833101302100E400CD
:100748006408EA0705306A02031CAB2BAC2BE22BCA
:10075800EA01220029082000AF01AF07220028087B
:100768002000AE01AE079931EF21833122002B081A
:100778002100CB01CB0722002A082100CA01CA07A1
:1007880093310C23833122003908031DCC2BE22B33
:100798002D082000DB01DB0722002C082000DA01ED
:1007A800DA07C2308831F8208331031CDC2BDD2BBB
:1007B800E22B2200B901E22BE22BE22B22003B08BC
:1007C800031DE72BFC2B2F082000DB01DB07220091
:1007D8002E082000DA01DA073D308831F82083310D
:1007E800031CF72BF82BFC2B2200BB01FC2BFC2B4A
:1007F80022003708031D012C3B2F23006B0883318F
:10080800002383310318092C0A2C282CC230A43168
:100818000C24833120002108A401A4072008A30187
:10082800A3078731ED27833120002408803AFF0091
:1008380080307F02031D222C33302302031C252C19
:10084800262C282C2300EE0127000D107B1C2D2CB4
:100858000D14220066088331002383310318352CD8
:10086800362C552C3D30A4310C248331200021082E
:10087800A401A4072008A301A3078731ED2783312A
:1008880020002408803AFF0081307F02031D4E2C8F
:10089800F5302302031C512C522C552C2200E9015F
:1008A800552C2200B808031D5A2C5B2C632CA5314B
:1008B80024258331031C612C622C712D632C823119
:1008C800FD2283312200B70100302000DA00003019
:1008D800DB00C23096311426833100302000DA0064
:1008E8000030DB003D30963114268331D0302000B3
:1008F800E4000730E500E601E7013D309E31F726C8
:100908008331D0302000E4000730E500E601E7013C
:10091800C2309E31F726833123006B0883310023D0
:100928008331031C982C992CFC2C2300EE08031D02
:100938009E2C9F2CA92C21006E08A43133248331CE
:100948002100E4006408EE00A92C00302000A0007B
:100958000030A100C230A431B7248331E83023002D
:10096800E4000330E50021006E082000A000A1018A
:10097800A01BA1039830A2000830A300A5319C2534
:10098800833120002108E001E0072008DF01DF07AC
:10099800C230A7310227833121006E082000A00051
:1009A800A101A01BA1036430A2000030A300A5315F
:1009B8009C258331200021082100EC01EC07200050
:1009C80020082100EB01EB07D0302000E8000730B9
:1009D800E90021006C082000EB01EB0721006B08FF
:1009E8002000EA01EA07C2309B316D238331FC2CD9
:1009F80022006608833100238331031C042D052D52
:100A0800682D2200E908031D0A2D0B2D152D210044
:100A18006F08A431332483312100E4006408EF0017
:100A2800152D00302000A0000030A1003D30A43179
:100A3800B7248331A0302200DF000F30E00021000E
:100A48006F082000A000A101A01BA1034030A20054
:100A58001F30A300A5319C25833120002108E00127
:100A6800E0072008DF01DF073D30A7310227833187
:100A780021006F082000A000A101A01BA103E830FD
:100A8800A2000330A300A5319C2583312000210852
:100A98002100EC01EC07200020082100EB01EB0706
:100AA800A0302000E8000F30E90021006C08200089
:100AB800EB01EB0721006B082000EA01EA073D3053
:100AC8009B316D238331682DC230A43126248331B4
:100AD8003D30A43126248331962BA63196268331C6
:100AE800031C772D782D862D2200BA010314BA0D28
:100AF80000302000DA000030DB00C23096311426C6
:100B08008331862DA7313A278331031C8C2D8D2DF7
:100B1800972D00302000DA000030DB003D309631A0
:100B280014268331972D22006308031D9C2D212E46
:100B38006608833100238331031CA32DA42D212EA5
:100B480022006208031DA92D212E1A303D3E860081
:100B58000130870055092100E400220056092100D0
:100B6800E500E40A0319E50A403F64072000A300F2
:100B7800413F2100653D2000A4008731ED278331E6
:100B880020002408803AFF0080307F02031DCE2D0C
:100B980002302302031CD12DD22D212E220044081D
:100BA8004C02031DE12D43084B02031DE12D4208B1
:100BB8004A02031DE12D41084902031CE42DE52DDD
:100BC800212E0C303D3E860001308700403F230037
:100BD800B800413FB900423FBA00433FBB00043070
:100BE8003D3E860001308700403FB400413FB500DC
:100BF800423FB600433FB700220056082300BF011A
:100C0800BF07220055082300BE01BE07220058086E
:100C18002300C101C107220057082300C001C007F3
:100C2800220058082300C101C107220057082300E9
:100C3800C001C007212E212E212E7A08023A031D59
:100C4800262E272E682E3D30A43162248331031CC2
:100C58002E2E2F2E682E21006F08A43133248331C5
:100C68002100E4006408EF0000302000A0000030FC
:100C7800A1003D30A431B724833100302000A0000A
:100C88000030A1003D30A431B724833121006F0822
:100C98002000A000A101A01BA1030030A200703019
:100CA800A300A5319C25833120002108E001E0073D
:100CB8002008DF01DF073D30A631112683312200ED
:100CC800E9010314E90D682EC230A431622483318E
:100CD800031C6F2E702E962B2200BA013D30A431D2
:100CE80062248331031C792E7A2EFA2E2200BC014D
:100CF800EB2EFA2EFA2E21006E08013A0319852EE2
:100D0800862E892EFA2EFA2E892ED0302000A000A9
:100D18000730A1003D30A431002483310030200089
:100D2800A0000030A1003D30A431B7248331A431A4
:100D3800D224833122002B082100CB01CB072200CB
:100D48002A082100CA01CA0793310C2383312100E4
:100D58006F082000A000A101A01BA1032200250804
:100D68002000A301A307220024082000A201A20753
:100D7800A5319C25833120002108E001E0072008E7
:100D8800DF01DF073D30A631112683311030200006
:100D9800E4002730E500E6010314E60DE70103143B
:100DA800E70D3D309E31F72683312200B808031D38
:100DB800DE2EDF2E962BA53124258331031CE52E4C
:100DC800E62EFA2E962B962BFA2EFA2EFA2E7A0863
:100DD800003A0319892E013A03197F2E033A0319A1
:100DE800FA2E013A0319FA2EFA2EFA2E21006E086D
:100DF800A431332483312100E4006408EE0000307C
:100E08002000A0000030A100C230A431B7248331F3
:100E180022002D082300E501E50722002C08230005
:100E2800E401E40721006E082000A000A101A01B36
:100E3800A103220021082000A301A3072200200803
:100E48002000A201A207A5319C258331200021089A
:100E5800E001E0072008DF01DF07C230A6311126D4
:100E680083312300EE010314EE0D962B962BA5314A
:100E780024258331031C412F422FCE2F23006B08DA
:100E880083310023833103184A2F4B2FCE2F2200A2
:100E980066088331002383310318532F542FCE2F34
:100EA8008231FD2283312200B7010314B70DC2300D
:100EB800A5315F2583313D30A5315F258331210080
:100EC800EE010314EE0D00302000A0000030A10058
:100ED800C230A431B724833100302000A000003094
:100EE800A1003D30A431B724833122002D0823000E
:100EF800E501E50722002C082300E401E4072100AE
:100F08006E082000A000A101A01BA1032200210857
:100F18002000A301A307220020082000A201A207A5
:100F2800A5319C25833120002108E001E007200835
:100F3800DF01DF07C230A631112683312300EE011D
:100F48007A08023A031DA92FAA2FCE2F22002F08B4
:100F5800E001E0072E08DF01DF0721006F0820000D
:100F6800A000A101A01BA1030030A2007030A300C3
:100F7800A5319C25833120002108E001E0072008E5
:100F8800DF01DF073D30A631112683312200E90158
:100F9800CE2FCE2F883100208331031CD42FD52F9C
:100FA800962B01302100E4006408FA0704307A0225
:100FB800031CDF2FE02FE22FFA01E22F7A08A53178
:100FC800C1258331962B962B962B962B962B823107
:100FD8002A2A2000A41FF12FF22FFF2F2309A50092
:100FE8002409A600A50A0319A60A2508A3002608AD
:100FF800A400FF2FFF2F08002200B608031D0528B4
:1010080006280D28EC010314EC0D031018281828E5
:1010180016286C08031D11281628EC01031418283B
:101028001828162803101828080070302100990085
:10103800033023008C00033021008C008D018E01C9
:101048008F01230090012100900128008C01783045
:1010580026008C0028008D0126008D0122000C1628
:1010680027008C140C1522008C16101590158E155F
:101078000E158E170E178E140E1427008D150D15CC
:101088008D140D142000A40104302402031C4D28E3
:101098004E285028632863282408A03E8600013083
:1010A800870081010314810D0130A3002308A407E0
:1010B80004302402031C6128622850286328003069
:1010C8002200A3000030A2003A30A1009830A0000E
:1010D80000302300B3000230B2002230B100E0300B
:1010E800B00003302000A30023082300EB000730E2
:1010F8002000A30023082300E9000B302000A300F0
:1011080023082300EA00DA01DB01DC01DD01E80144
:10111800C030D6005D30D7004030D8009C30D900B0
:101128002830E4002330E5002000A20123006A08EB
:101138008331002388312300EE0101302000A30011
:1011480023082200E60005302000A300230822001F
:10115800E40009302000A30023082200E500D5019F
:10116800D601D701D801E3018830D1001330D2006D
:101178008830D3001330D400D030DF000730E000CF
:101188002000A20122006508833100238831220053
:10119800E901A801A901AA01AB01F901B4010314ED
:1011A800B40DE03021009E0079082000A300013032
:1011B800A335FF3E031DDC282335013E21009D0099
:1011C8002200B7017D3020009B0027309C002100C1
:1011D8009114FC010C3028009700C73096002100BC
:1011E80093140B178B1708002100B1003108253E16
:1011F8008600013087000108003A031904290529EF
:1012080008290310442B442B31081A3E860001306C
:1012180087003108183E840001308500003F200017
:10122800DC00013FDD00DC09DD09DC0A0319DD0A09
:10123800403F5C07A300413F5D3DA4008731ED2797
:101248008831200024082100A601A60720002308D1
:101258002100A501A50720005B08A901A9075A08D4
:10126800A801A807A531E925883120002808210010
:10127800AB00200029082100AC0020002A0821002A
:10128800AD0000302000CA008030CB004E30CC00CA
:101298004030BA009C30BB004630BC0021002B080F
:1012A8002000BD0021002C082000BE0021002D08D0
:1012B8002000BF009C31A924883120003A08CD00C5
:1012C8003B08CE003C08CF0082312D228831200017
:1012D8004A082100AB0020004B082100AC00200088
:1012E8004C082100AD003108143E8600013087000B
:1012F800403F2000B600413FB700A4318624883122
:1013080020003608BA003708BB003808BC005B0864
:10131800A901A9075A08A801A807A531E925883114
:1013280020002808BD002908BE002A08BF009C31FB
:10133800A924883120003A082100AE0020003B088B
:101348002100AF0020003C082100B0003108143E05
:10135800860001308700403F2000DC00413FDD006F
:101368000130DD36DC0C890BB5295C08B6005D0858
:10137800B700A4318624883120003608CD0037080C
:10138800CE003808CF0021002E082000CA00210016
:101398002F082000CB00210030082000CC0082312B
:1013A8002D22883120004A08CD004B08CE004C0879
:1013B800CF0021002E082000CA0021002F0820009D
:1013C800CB00210030082000CC0082312D2288314A
:1013D80020004A08A8004B08A9004C08AA00903130
:1013E8000F208831200028082100A70020002908A4
:1013F8002100A800890D893B8909A900AA003108A4
:10140800163E860001308700403F2000B600413F6D
:10141800B700A4318624883120003608BA0037087E
:10142800BB003808BC005B08A901A9075A08A80135
:10143800A807A531E925883120002808BD0029081A
:10144800BE002A08BF009C31A924883120003A0830
:101458002100AE0020003B082100AF0020003C081E
:101468002100B0003108163E860001308700403F59
:101478002000DC00413FDD000130DD36DC0C890B4B
:10148800412A5C08B6005D08B700A431862488317B
:1014980020003608CD003708CE003808CF002100DC
:1014A8002E082000CA0021002F082000CB002100B0
:1014B80030082000CC0082312D22883120004A08D3
:1014C800CD004B08CE004C08CF0021002E0820008C
:1014D800CA0021002F082000CB002100300820007E
:1014E800CC0082312D22883120004A08A8004B0800
:1014F800A9004C08AA0090310F2088312000280844
:101508002100A000200029082100A100890D893BA5
:101518008909A200A30002302000A0000030A10029
:10152800210026082000A301A30721002508200088
:10153800A201A20799310E21883120002008DC0081
:101548002108DD000030DD1BFF30DE00DF00210058
:101558002A08803AFF0020005F08803A7F022100B5
:10156800031DC62A20005E0821002902031DC62A81
:1015780020005D0821002802031DC62A20005C08FF
:1015880021002702031CC92ACA2AEA2A023020009D
:10159800A0000030A100210026082000A301A30715
:1015A800210025082000A201A20799310E218831C7
:1015B800200020082100A700200021082100A80001
:1015C800890D893B8909A900AA00EA2A3108263E23
:1015D80086000130870001082000DC005C0821003B
:1015E800A4003108263E86000130870081013108B9
:1015F800223E86000130870020005A08C03F5B0861
:10160800C13F21002B082000A80021002C08200041
:10161800A90021002D082000AA0090310F20883150
:1016280021003108103E860001308700200028087C
:10163800C03F2908C13F2A08C23F2B08C33F2100E9
:1016480031081E3E8600013087002708C03F280861
:10165800C13F3108203E8600013087002008C03F86
:101668002108C13F24082000DC0021003108263E63
:1016780086000130870020005C0881000314442B99
:1016880008002100B90039081A3E86000130870099
:101698003908183E840001308500003F2000DA0038
:1016A800013FDB00DA09DB09DA0A0319DB0A403FEC
:1016B8005A07A300413F5B3DA4008731ED278B31DA
:1016C800200024082100B501B507200023082100C7
:1016D800B401B40735083404031D732B742B762B1F
:1016E800FF2FFF2F3908143E860001308700403F46
:1016F8002000B600413FB700A43186248B3120007A
:1017080036082100B600200037082100B700200065
:1017180038082100B80040302000BA009C30BB00D7
:101728004630BC00210036082000BD0021003708E3
:101738002000BE00210038082000BF009C31A924E9
:101748008B3120003A082100B60020003B08210018
:10175800B70020003C082100B80040302000BA0043
:101768009C30BB004630BC00210036082000BD007C
:10177800210037082000BE00210038082000BF00E3
:101788009C31A9248B3120003A082100B6002000A2
:101798003B082100B70020003C082100B8000030B9
:1017A8002000CA008030CB004E30CC002100360823
:1017B8002000CD00210037082000CE002100380885
:1017C8002000CF0082312D228B3120004A082100D1
:1017D800B60020004B082100B70020004C0821006B
:1017E800B80036082000A800210037082000A9000A
:1017F800210038082000AA0090310F208B312100E9
:1018080039082A3E86000130870020002808C03F9A
:101818002908C13F21003908163E8600013087009B
:10182800403F2000B600413FB700A43186248B31E9
:10183800200036082100B600200037082100B70034
:10184800200038082100B80040302000BA009C3041
:10185800BB004630BC00210036082000BD00210036
:1018680037082000BE00210038082000BF009C3146
:10187800A9248B3120003A082100B60020003B083B
:101888002100B70020003C082100B80040302000AB
:10189800BA009C30BB004630BC002100360820004E
:1018A800BD00210037082000BE00210038082000B4
:1018B800BF009C31A9248B3120003A082100B600D2
:1018C80020003B082100B70020003C082100B80098
:1018D80000302000CA008030CB004E30CC00210000
:1018E80036082000CD00210037082000CE00210056
:1018F80038082000CF0082312D228B3120004A0881
:101908002100B60020004B082100B70020004C0839
:101918002100B80036082000A80021003708200060
:10192800A900210038082000AA0090310F208B312F
:10193800210039080C3E8600013087002000280865
:10194800C03F2908C13F2A08C23F2B08C33F2100D6
:101958003908223E860001308700403F2000A80059
:10196800413FA900A531E9258B3120002808210035
:10197800A800200029082100A90020002A08210029
:10198800AA0000302000CA008030CB004E30CC00C6
:101998004030BA009C30BB004630BC00210028080B
:1019A8002000BD00210029082000BE0021002A08CF
:1019B8002000BF009C31A9248B3120003A08CD00BB
:1019C8003B08CE003C08CF0082312D228B3120000D
:1019D8004A082100A80020004B082100A900200087
:1019E8004C082100AA0028082000A8002100290886
:1019F8002000A90021002A082000AA0090310F2009
:101A08008B3121003908103E860001308700200004
:101A18002808C03F2908C13F2A08C23F2B08C33FF6
:101A280021003908143E860001308700403F20001D
:101A3800B600413FB700A43186248B312000360818
:101A4800BA003708BB003808BC0021003908223E1C
:101A5800860001308700403F2000A800413FA900D0
:101A6800A531E9258B3120002808BD002908BE00D2
:101A78002A08BF009C31A9248B3120003A08210094
:101A8800B10020003B082100B20020003C082100E2
:101A9800B30031082000CA00210032082000CB0022
:101AA800210033082000CC0021003908143E8600AC
:101AB80001308700403F2000DA00413FDB00013061
:101AC800DB36DA0C890B642D5A08B6005B08B700C0
:101AD800A43186248B3120003608CD003708CE008B
:101AE8003808CF0082312D228B3120004A0821008E
:101AF800AE0020004B082100AF0020004C08210058
:101B0800B00031082000CA00210032082000CB00B4
:101B1800210033082000CC0021002E082000CD0031
:101B280021002F082000CE00210030082000CF001F
:101B380082312D228B3120004A082100AB00200081
:101B48004B082100AC0020004C082100AD002B08F8
:101B58002000A80021002C082000A90021002D0841
:101B68002000AA0090310F208B31210039081E3E39
:101B780086000130870020002808C03F2908C13F9F
:101B880021003908163E860001308700403F2000BA
:101B9800B600413FB700A43186248B3120003608B7
:101BA800BA003708BB003808BC0021003908223EBB
:101BB800860001308700403F2000A800413FA9006F
:101BC800A531E9258B3120002808BD002908BE0071
:101BD8002A08BF009C31A9248B3120003A08210033
:101BE800B10020003B082100B20020003C08210081
:101BF800B30031082000CA00210032082000CB00C1
:101C0800210033082000CC0021003908163E860048
:101C180001308700403F2000DA00413FDB000130FF
:101C2800DB36DA0C890B142E5A08B6005B08B700AD
:101C3800A43186248B3120003608CD003708CE0029
:101C48003808CF0082312D228B3120004A0821002C
:101C5800AE0020004B082100AF0020004C082100F6
:101C6800B00031082000CA00210032082000CB0053
:101C7800210033082000CC0021002E082000CD00D0
:101C880021002F082000CE00210030082000CF00BE
:101C980082312D228B3120004A082100AB00200020
:101CA8004B082100AC0020004C082100AD002B0897
:101CB8002000A80021002C082000A90021002D08E0
:101CC8002000AA0090310F208B3121003908203ED6
:101CD80086000130870020002808C03F2908C13F3E
:101CE80021003908083E8600013087000030C03FD7
:101CF8000030C13F0030C23F0030C33F02302000F7
:101D0800A0000030A100210035082000A301A3078E
:101D1800210034082000A201A20799310E218B313D
:101D2800210039081E3E860001308700403F200010
:101D3800DA00413FDB005B08803ADC002108803A8A
:101D48005C02031DA92E20085A02031CAC2EAD2EDE
:101D5800CA2E02302000A0000030A1002100350862
:101D68002000A301A307210034082000A201A20734
:101D780099310E218B31210039081E3E8600013031
:101D8800870020002008C03F2108C13F0230200002
:101D9800A0000030A100210035082000A301A307FE
:101DA800210034082000A201A20799310E218B31AD
:101DB80021003908203E860001308700403F20007E
:101DC800DA00413FDB005B08803ADC002108803AFA
:101DD8005C02031DF12E20085A02031CF42EF52E76
:101DE800252F02302000A0000030A1002100350876
:101DF8002000A301A307210034082000A201A207A4
:101E080099310E218B3120002009DA002109DB00ED
:101E1800DA0A0319DB0A2100340820005A07DC001B
:101E28002100350820005B3DDD0021003908203EF7
:101E380086000130870020005C08C03F5D08C13F74
:101E4800252F210039081A3E860001308700403FBF
:101E5800A000413FA1003908183E860001308700E4
:101E6800403FA200413FA3003908203E86000130D0
:101E78008700403FA600413FA70039081A3E860068
:101E880001308700403F2000DA00413FDB0021009D
:101E98003908183E860001308700403F2000DC00EA
:101EA800413FDD005D08803ADE005B08803A5E0253
:101EB800031D602F5A085C020318632F642F932FA9
:101EC80021003908243E860001308700810103146F
:101ED800810D39081A3E8600013087003908203EF6
:101EE800840001308500003F2000DA00013FDB005C
:101EF800DA09DB09DA0A0319DB0A403F5A07DC0072
:101F0800413F5B3DDD00210039081C3E8600013061
:101F1800870020005C08C03F5D08C13FB92F210041
:101F28003908243E86000130870081018103390881
:101F3800203E86000130870039081A3E84000130AF
:101F48008500403F00072000DA000131413F003D95
:101F5800DB00210039081C3E860001308700200084
:101F68005A08C03F5B08C13FB92F210039081C3E01
:101F7800860001308700403FA400413FA500390892
:101F8800243E86000130870001082000DA005A0844
:101F9800A20021003908273E860001308700010889
:101FA800833100238B3121003908253E860001301A
:101FB800870081013908043E86000130870000301F
:101FC800C03F0030C13F0030C23F0030C33F390836
:101FD8008600013087000030C03F0030C13F00302C
:101FE800C23F0030C33F3908263E860001308700D3
:101FF80081010314810D080020002208031D052813
:10200800082822008E170B2822008E130B28A331D4
:10201800B7239031080020002808AC002908AD003B
:102028002A08AE0003102D0D2E0DAF002F08B500A5
:10203800B508031D202821282B280030AB000030CC
:10204800AA000030A9000030A800AD28AD28280853
:10205800AC002908AD002A08AE001730AE36AD0C2A
:10206800AC0C890B32282C08AF002F08B000A91738
:10207800FF30A805FF30A9050030AA052808B100DF
:102088002908B2002A08B300B4018E30B502B51F82
:102098004E284F2872283508803A8F3E0318552855
:1020A800562861280030AB000030AA000030A90093
:1020B8000030A800AD28AD2861280130B436B30C33
:1020C800B20CB10C890B62280130AC002C08B507A2
:1020D800031D6F2870286128942894281830350229
:1020E800031C772878288D280030AB000030AA0020
:1020F8000030A9000030A800AD28AD288D28013097
:10210800B135B20DB30DB40D890B84280130B50279
:102118008D28B508031D912892288328942894288F
:102128003008031D9828A428B109B209B309B409D5
:10213800B10A0319B20A0319B30A0319B40AA42885
:102148003408AB003308AA003208A9003108A800F7
:10215800AD2808002100C5013D083C043B04031DCF
:10216800B628B728DF2800302000A0000030A100E2
:102178000030A20021003E082000A30021003F08F3
:102188002000A400210040082000A500983160200C
:102198009031031CD028D128D62821302300BC0038
:1021A8000030BD0000302100BB000030BC00003012
:1021B800BD00DB29DB2940083F043E04031DE52858
:1021C800E628EE280030BB008030BC003F30BD0060
:1021D800DB29DB293B082000A00021003C08200067
:1021E800A10021003D082000A2000030A30000301B
:1021F800A4000030A500983160209031031805290B
:1022080006297A2921003E082000A80021003F085D
:102218002000A900210040082000AA0090310F20CA
:10222800903120002B082100C90020002A08210035
:10223800C800200029082100C70020002808210024
:10224800C60049082000AB00210048082000AA0069
:10225800210047082000A900210046082000A80006
:10226800A631662690312100400820002A06031D69
:10227800472921003F0820002906031D472921007E
:102288003E082000280603194A294B2959292130DC
:102298002300BC000030BD0000302100BB0000302E
:1022A800BC000030BD00DB29DB29210046080139CC
:1022B800C1004108C5003B082000A00021003C08DF
:1022C8002000A10021003D082000A200A43119240B
:1022D8009031200020082100BB00200021082100A7
:1022E800BC00200022082100BD007A2921003B08FB
:1022F800AC003C08AD003D08AE009E311C26903174
:1023080021002C08C2002D08C3002E08C4003E0876
:102318002000CA0021003F082000CB00210040080F
:102328002000CC00210042082000CD0021004308F5
:102338002000CE00210044082000CF0082312D2249
:10234800903120004A082100B10020004B082100EC
:10235800B20020004C082100B30094317C24903155
:1023680021003108BB003208BC003308BD00450815
:10237800031DBF29DB293B082000A00021003C08E1
:102388002000A10021003D082000A200A43119244A
:102398009031200020082100BB00200021082100E6
:1023A800BC00200022082100BD00DB29DB29080031
:1023B80020005A08E0005B08E1005C08E200031016
:1023C800610D620DE3006308E6005D08E0005E0849
:1023D800E1005F08E2000310610D620DE30063088D
:1023E800E5006608031DF9290A2A6508660203182C
:1023F800FE29FF29122A6603FF3A6507E000193013
:102408006002031C082A092A122A0A2A5D08DA002F
:102418005E08DB005F08DC000B2B0B2B6508031D37
:10242800162A262A6608650203181B2A1C2A272A48
:102438006503FF3A6607E00019306002031C252A8D
:10244800262A272A0B2B0630E0006008E400DC1F50
:102458002E2A2F2A302AE417DF1F332A342A352A56
:102468006417DB17FF30DA05FF30DB050030DC05C9
:10247800DE17FF30DD05FF30DE050030DF056508BB
:1024880066020318482A492A762A4A2A0130DD3585
:10249800DE0DDF0D890B4B2A0130E5026508660663
:1024A8000319572A582A6E2A0130E40264080739AA
:1024B800031D5F2A602A4A2A6E2A6E2A6E2A013074
:1024C800DC36DB0CDA0C890B642A0130E00060088A
:1024D800E6076E2A66086506031D732A742A632AAE
:1024E800A92AA92A6608650203187B2A7C2AA92A30
:1024F8007D2A0130DA35DB0DDC0D890B7E2A0130AF
:10250800E6026508660603198A2A8B2AA12A013081
:10251800E40264080739031D922A932A7D2AA12A16
:10252800A12AA12A0130DF36DE0CDD0C890B972A9F
:102538000130E0006008E507A12A66086506031D6A
:10254800A62AA72A962AA92AA92AE41FAC2AAD2ACC
:10255800BE2AFF30DA06FF30DB06FF30DC0601302A
:10256800DA07003003180130DB07003003180130A8
:10257800DC07BE2A641FC12AC22AD32AFF30DD061F
:10258800FF30DE06FF30DF060130DD0700300318BC
:102598000130DE07003003180130DF07D32AE401D9
:1025A8005A08DD075B08DE3D5C08DF3DDF1FDD2ADA
:1025B800DE2AF22AFF30DD06FF30DE06FF30DF06B6
:1025C8000130DD07003003180130DE070030031842
:1025D8000130DF07E4010314E40DF22A5D08A000CE
:1025E8005E08A1005F08A2006608E0006008A3007A
:1025F8006408E1006108A40099317B219131200031
:102608002008DA002108DB002208DC000B2B080078
:1026180021004B08D601D6074A08D501D507220064
:102628006B0821005606031D1D2B22006A08210095
:1026380055060319202B212B002C56082200EB01EC
:10264800EB07210055082200EA01EA07C030200004
:10265800BA007F30BB004430BC002100560820007F
:10266800B701B707210055082000B601B607A43105
:102678008624933120003608BD003708BE0038088C
:10268800BF009C31A924933120003A082100CC00D6
:1026980020003B082100CD0020003C082100CE008E
:1026A8004C08BE004D08BF004E08C0009A30BB0061
:1026B800CC30BC004230BD009031AE2093312100B7
:1026C8003B082000CD0021003C082000CE0021005E
:1026D8003D082000CF000030CA002030CB00413038
:1026E800CC0082312D22933120004A08A8004B08E3
:1026F800A9004C08AA0090310F2093312000290826
:102708002100D001D007200028082100CF01CF07E1
:102718005008D601D6074F08D501D507550820001F
:10272800A000210056082000A100A201A30100304A
:10273800A7000030A6000730A500D030A400A631BD
:10274800CA269331200023082100D4002000220843
:102758002100D300200021082100D20020002008F9
:102768002100D10000302000A3000030A200033077
:10277800A100FF30A000210054082000A70021007C
:1027880053082000A600210052082000A5002100BF
:1027980051082000A4009831AB2093312000230871
:1027A8002100D400200022082100D30020002108A5
:1027B8002100D200200020082100D1005208220068
:1027C800AF01AF07210051082200AE01AE0700306B
:1027D800210056020A30031955020318F42BF52B71
:1027E800FB2B28302200AE000030AF00FB2B22006C
:1027F800BB010314BB0D002C210055082000A000CC
:10280800210056082000A100A201A3010030A70062
:102818000030A6001F30A5004030A400A631CA260B
:102828009331200023082100D40020002208210031
:10283800D300200021082100D20020002008210018
:10284800D10000302000A3000030A2000330A10016
:10285800FF30A000210054082000A70021005308E1
:102868002000A600210052082000A50021005108E0
:102878002000A4009831AB209331200023082100C8
:10288800D400200022082100D300200021082100C4
:10289800D200200020082100D10054082200A700FF
:1028A800210053082200A600210052082200A5009A
:1028B800210051082200A40000302702031D6E2CBD
:1028C80000302602031D6E2C00302502031D6E2CDD
:1028D8007D3024020318712C722C7B2C0030A70049
:1028E8000030A6000030A5007D30A4007B2C080035
:1028F8002100330832043104031D832C842C8C2CD2
:102908000030B1008030B2003F30B300132E132ED8
:1029180072302000A0003130A1004430A200210014
:1029280031082000A300210032082000A400210063
:1029380033082000A5009831602094310318A52C95
:10294800A62CBE2C22302300BC000030BD00B42CC5
:1029580000302100B1008030B2007F30B300132E68
:10296800FF302100B1007F30B2007F30B300132E5A
:10297800132E132E210031082000A0002100320858
:102988002000A100210033082000A2004930A30044
:102998003A30A400C430A50098316020943103185F
:1029A800D62CD72CE52C22302300BC000030BD00EB
:1029B80000302100B1000030B2000030B300132E07
:1029C800132E210031082000A00021003208200029
:1029D800A100210033082000A2000030A30000302D
:1029E800A4000030A5009831602094310030031C09
:1029F80001302100B4003408BA003A08031D052D3F
:102A0800202D31082000A000210032082000A1005C
:102A1800210033082000A200A43119249431200099
:102A280020082100B100200021082100B200200068
:102A380022082100B300202DAA302000CA00B83097
:102A4800CB003F30CC00210031082000CD00210010
:102A580032082000CE00210033082000CF00823148
:102A68002D22943120004A082100B10020004B0893
:102A78002100B20020004C082100B30031082000DA
:102A8800E700210032082000E80021003308200078
:102A9800E9009A31DA22943120006708A800680812
:102AA800A9006908AA0090310F2094312000290854
:102AB8002100B901B907200028082100B801B8078A
:102AC80039082000A901A907210038082000A80119
:102AD800A807A531E925943120002808E70029082E
:102AE800E8002A08E900210031082000EA00210056
:102AF80032082000EB00210033082000EC00A4314C
:102B0800ED249431200067082100B10020006808F6
:102B18002100B200200069082100B3003108A30099
:102B28003208A4003308A5000130B4003408A60018
:102B38000930A7000030A8009A316322943121009F
:102B480023082000E700210024082000E8002100D5
:102B580025082000E900210039082000EB01EB07D7
:102B6800210038082000EA01EA079D3161259431E7
:102B7800200067082100B100200068082100B20089
:102B8800200069082100B3003A08031DCC2D132E3C
:102B9800D52DD52D0030B5008030B6007F30B70078
:102BA800DB2DFF30B5007F30B6007F30B70033082B
:102BB8003706031DE52D32083606031DE52D3108BD
:102BC8003506031DE82DE92DF12D0030B100003048
:102BD800B2000030B300132E132E31082000BA00C3
:102BE800210032082000BB00210033082000BC006F
:102BF8000030BD008030BE003F30BF009C31A924AA
:102C0800943120003A082100B10020003B0821003F
:102C1800B20020003C082100B300132E132E080038
:102C28002100B500A601A7013508C23A031D1D2ED3
:102C38001E2E232E0130A6000030A700232E3508B3
:102C4800253E8600013087008108031D2C2E2D2E7D
:102C5800FF2F27008D1100302000BA008030BB0004
:102C68004E30BC0021003508043E86000130870044
:102C7800403F2000A800413FA900423FAA00433F2F
:102C8800AB00A6316626963120002808BD00290829
:102C9800BE002A08BF009C31A924963120003A08BA
:102CA8002100B00020003B082100B10020003C08B2
:102CB8002100B20040302000CA009C30CB004630D2
:102CC800CC00210030082000CD0021003108200070
:102CD800CE00210032082000CF0082312D2296310B
:102CE80020004A082100B00020004B082100B10054
:102CF80020004C082100B2003508163E860001303D
:102D08008700403F2000B600413FB700A431862429
:102D1800963120003608BA003708BB003808BC00D6
:102D2800210030082000BD00210031082000BE002D
:102D3800210032082000BF009C31A92496312000D0
:102D48003A082100AD0020003B082100AE00200019
:102D58003C082100AF002D082000CA0021002E08E1
:102D68002000CB0021002F082000CC0021003508CE
:102D7800163E860001308700403F2000DC00413FBE
:102D8800DD000130DD36DC0C890BC62E5C08B60090
:102D98005D08B700A4318624963120003608CD009E
:102DA8003708CE003808CF0082312D229631200016
:102DB8004A082100A30020004B082100A40020009D
:102DC8004C082100A5002D082000CA0021002E086B
:102DD8002000CB0021002F082000CC002100230870
:102DE8002000CD00210024082000CE002100250865
:102DF8002000CF0082312D22963120004A08210080
:102E0800A00020004B082100A10020004C08210050
:102E1800A20020082000A800210021082000A90005
:102E2800210022082000AA0090310F2096312000AE
:102E380029082100B401B407200028082100B301A3
:102E4800B3072708260403192A2F2B2F3F2F3408EE
:102E58002000DD00210033082000DC000130DC35D3
:102E6800DD0D890B332F5C082100B30020005D08BD
:102E78002100B4003F2F3508243E8600013087002A
:102E88000108013A031D492F4A2F7C2F3508183EA7
:102E9800860001308700403F2000DC00413FDD0014
:102EA8005A085C07DE005B085D3DDF00210033083F
:102EB80020005E072100A800340820005F3D2100A3
:102EC800A9003508183E86000130870020005A09FD
:102ED800DC005B09DD00DC0A0319DD0A403F5C0702
:102EE8002100AA00413F20005D3D2100AB00AC2F2E
:102EF8003508183E860001308700330820005A073D
:102F0800DC002100340820005B3DDD00DC09DD0920
:102F1800DC0A0319DD0A403F5C072100A800413F95
:102F280020005D3D2100A9003508183E86000130CB
:102F38008700403F2000DC00413FDD005A085C0765
:102F48002100AA0020005B085D3D2100AB00AC2FEA
:102F58003508263E86000130870001082000DC0085
:102F68005C082100AC0035081A3E86000130870055
:102F78002808C03F2908C13F20005B085A040319EC
:102F8800C62FC72FD22F210035081C3E86000130DE
:102F980087002A08C03F2B08C13FF22F21003508BF
:102FA800183E860001308700403F2000DC00413F8A
:102FB800DD00210035081C3E860001308700200016
:102FC8005C08C03F5D08C13F21003508253E8600EA
:102FD8000130870081010314810DF22F2C08200095
:102FE800DC0021003508263E8600013087002000DD
:102FF8005C088100FF2F080020002208803A7F3EED
:10300800031C072808280D2822008E1127000D11FF
:10301800122822008E1527000D151228A331B72378
:103028009831080022003408031D1B281F28B4010A
:1030380021009D145F2821009D18232824285F283B
:10304800F908031D282829283D281B08F000F1014C
:103058001C08F200F3017208F300F201700872070D
:103068002200A8007108733DA900F9010314F90DA5
:10307800502821001B08F000F1011C08F200F301A0
:103088007208F300F201700872072200AA007108A2
:10309800733DAB00F9015028B4010314B40D79084D
:1030A800F0000130F035FF3E031D56287035013E13
:1030B80021009D005F2808002000A21F64286528C1
:1030C8007A282009A6002109A7002209A800A60A33
:1030D8000319A70A0319A80A00302607A000003020
:1030E800273DA1008030283DA2007A28A51F7D2811
:1030F8007E2893282309A6002409A7002509A800EB
:10310800A60A0319A70A0319A80A00302607A3006C
:103118000030273DA4008030283DA500932880304A
:10312800A2068030A50625082202031DA12824082E
:103138002102031DA128230820020318A428A5287A
:10314800A7280310AA280314AA28AA2808000030D0
:103158002000AC000030AB000030AA000030A9000D
:1031680023082204210420040319BB28BC280429AD
:10317800AD010314AD0DCC280130A035A10DA20D71
:10318800A30D890BC1280130A8002808AD07CC2859
:10319800A31FCF28D028C028D228D2280130A9358B
:1031A800AA0DAB0DAC0D890BD32823082702031DEC
:1031B800E72822082602031DE72821082502031D07
:1031C800E72820082402031CEA28EB28F528200811
:1031D800A4022108A53B2208A63B2308A73B2914E3
:1031E800F5280130A336A20CA10CA00C890BF628F7
:1031F8000130AD02031D01290229D228042904291E
:103208002C08A3002B08A2002A08A1002908A00066
:103218000D2908002000A601A11F132914291D2922
:10322800A009A109A00A0319A10AA6010314A60D61
:103238001D29A31F202921292B29A209A309A20A94
:103248000319A30A0130A4002408A6062B29A70104
:10325800A801210820040319322933296929A50165
:103268000314A50D41290130A035A10D890B38297A
:103278000130A4002408A5074129A11F4429452994
:103288003729472947290130A735A80D890B48292F
:1032980021082302031D522920082202031C552954
:1032A80056295C292008A2022108A33B27145C297F
:1032B8000130A136A00C890B5D290130A502031D40
:1032C800662967294729692969292608031D6D295F
:1032D8007329A709A809A70A0319A80A732928089E
:1032E800A101A1072708A001A0077A29080020004A
:1032F8002308031D80298829220821042004031D8E
:10330800862987299C2988290030A0000030A1003F
:103318000030A200EE29EE299C290130A5002508DD
:10332800A3070130A236A10CA00C890B96299C2971
:10333800FE302205031DA129A2299129B829B829FF
:103348000130A5002508A3070130A00700300318A5
:103358000130A107003003180130A2070130A2365E
:10336800A10CA00C890BB329FF302205031DBD2930
:10337800BE29A429C929C9290130A3020130A035D1
:10338800A10DA20D890BC329C929A11FCC29CD29BB
:10339800C0292318D029D129D729FF30A0057F308B
:1033A800A105FF30A2050310A30C2308A500A60160
:1033B800A7011030A535A60DA70D890BDE29250814
:1033C800A0042608A1042708A2042408031DED2947
:1033D800EE29A217080020002F08B501B5072E080E
:1033E800B401B4072200310820003506031D002A65
:1033F80022003008200034060319032A042A622A0E
:1034080035082200B101B107200034082200B001BC
:10341800B00720003408A0003508A100A201A301CC
:103428000030A7000030A6002330A5002830A400F3
:10343800A631CA26993120002308B3002208B20019
:103448002108B1002008B0000030A3000030A2001D
:103458000330A100FF30A0003308A7003208A600FF
:103468003108A5003008A4009831AB20993120001C
:103478002308B3002208B2002108B1002008B000D8
:1034880031082200AD01AD07200030082200AC0150
:10349800AC070030200035020A3003193402031843
:1034A800562A572A5D2A1E302200AC000030AD0093
:1034B8005D2A2200B9010314B90D622A080021000F
:1034C80026088400A030850003302000EE006E0836
:1034D800A00021002708A4319D249A3184070318ED
:1034E800850A003F2100A900013FAA00023FAB0066
:1034F800CB2A26088400A030850003302000EE0087
:103508006E08A000FF302100A707FF30A83D27085C
:10351800A4319D249A3184070318850A003F2000AE
:10352800DA00013FDB00023FDC002100290820000F
:10353800CA0021002A082000CB0021002B08200007
:10354800CC00210023082000CD0021002408200001
:10355800CE00210025082000CF0082312D229A318B
:1035680020004A08DD004B08DE004C08DF009131DE
:10357800DC219A3120005A082100A90020005B08AC
:103588002100AA0020005C082100AB00CB2A2808F3
:103598002704031DD02AD12A7D2AD22A2908A3006C
:1035A8002A08A4002B08A500D92A080020006708CB
:1035B800A0006808A1006908A2006E30EA006A0845
:1035C800A300A73175279A312000EF1FEC2AED2AB6
:1035D800122B6708A0006808A1006908A200003043
:1035E800A3000030A4000030A500983160209A3173
:1035F8000318FF2A002B092B00302000E700803039
:10360800E800BF30E9006C2B6C2B00302000E7008D
:103618000030E8000030E9006C2B6C2B00306F02A2
:10362800153003196E02031C1A2B1B2B1C2B6C2B39
:103638006708A8006808A9006908AA0090310F2047
:103648009A3120002B08B9002A08B8002908B700C9
:103658002808B600A731B9279A3120003608EB00B0
:103668003708EC003808ED006708A0006808A100DA
:103678006908A2006B08A3006C08A4006D08A500E7
:10368800983160209A3103184A2B4B2B642B003059
:103698002000DA008030DB00BF30DC006B08DD0082
:1036A8006C08DE006D08DF009131DC219A312000C2
:1036B8005A08E7005B08E8005C08E9006C2B6C2BF3
:1036C80020006B08E7006C08E8006D08E9006C2B27
:1036D80008002100E300A53108259B3120002308BC
:1036E8002100DE00200022082100DD002000210842
:1036F8002100DC00200020082100DB00832B64006F
:10370800A53141259B31A53108259B31200023088F
:103718002100E200200022082100E1002000210809
:103728002100E000200020082100DF005F08CF0012
:103738006008D0006108D1006208D2005B09D3009C
:103748005C09D4005D09D5005E09D600D30A0319C7
:10375800D40A0319D50A0319D60A5308CF075408FF
:10376800D03D5508D13D5608D23D200068082100BB
:10377800D700200069082100D800D901DA015208D1
:103788005A02031DD12B51085902031DD12B500891
:103798005802031DD12B4F0857020318D42BD52BE1
:1037A800D72B092C092C6308263E86000130870098
:1037B8008108031DE02BE12BE32B092C092C63085E
:1037C800293E8600013087000108833100239B31A0
:1037D8000318EF2BF02B832B20006B08DB01DB0792
:1037E8006A08DA01DA0721006308963114269B314A
:1037F800A0302000E4000F30E500E601E701C23008
:103808009E31F7269B31092C832B080000302500B8
:103818008C190130F00070082300A8000030250042
:103828000C1A0130F00070082300A90000302500B0
:103838000C1B0130F00070082300AA00003025009E
:103848008C1A0130F00070082300AB00F10104303D
:103858007102031C302C312C332C832C832C7108DF
:10386800A83E8600013087000108013A031D3D2C5F
:103878003E2C5D2C7108A43E86000130870005307F
:1038880001020318482C492C532C0130F000710810
:10389800A43E86000130870070088107782C7108E3
:1038A800A03E86000130870081010314810D782C29
:1038B800782C7108A43E8600013087000108003A80
:1038C8000319672C682C702C7108A43E86000130FF
:1038D800870001308102782C7108A03E86000130F3
:1038E80087008101782C782C0130F0007008F107EE
:1038F80004307102031C812C822C332C832C23006E
:103908002008003A003003190130F0007008220046
:10391800B60023002108003A003003190130F000F6
:103928007008FD002208003A003003190130F00049
:1039380070082200B50023002308003A003003195C
:103948000130F0007008FB00080020003D08C000AE
:103958003E08C1003F08C2000310410D420DC300DC
:103968004308C800C808031DBA2CBB2CC32C003060
:10397800BA000030BB000030BC00602D602D3A0852
:10398800C0003B08C1003C08C2000310410D420DB5
:10399800C3004308C900C908031DD32CD42CDC2C50
:1039A8000030BA000030BB000030BC00602D602D34
:1039B8000030C5000030C6000030C7008930490714
:1039C800C0004008C8023D08C0003E08C1003F08CA
:1039D800C2001030C236C10CC00C890BEE2C400856
:1039E800C3004308C9003A08C0003B08C1003C08AE
:1039F800C2001030C236C10CC00C890BFE2C400826
:103A0800C3004308C9068030C0004008C905BE1776
:103A1800FF30BD05FF30BE050030BF05BB17FF30C6
:103A2800BA05FF30BB050030BC051830C00040089F
:103A3800C4001E2D0130C535C60DC70D890B1F2DBD
:103A48003C083F02031D2E2D3B083E02031D2E2D70
:103A58003A083D02031C312D322D3A2D3A08BD0299
:103A68003B08BE3B3C08BF3B45143A2D0130BD35F1
:103A7800BE0DBF0D890B3B2D0130C402031D452D22
:103A8800462D1E2D472D4508A0004608A1004708D1
:103A9800A2004808C0004008A3004908C100410826
:103AA800A40099317B219C3120002008BA0021080C
:103AB800BB002208BC00602D0800200069086804CB
:103AC8006704031D682D692D712D0030E700003053
:103AD800E8000030E9001B2E1B2E69087F39EC0036
:103AE800ED010130EC35ED0D890B762D6C08EA07F8
:103AF8006D08EB3D680D680D0139EC00ED016C08AF
:103B0800EA076D08EB3DEB1F8A2D8B2D9A2D22308D
:103B18002300BC000030BD0000302000E70000306A
:103B2800E8000030E9001B2E1B2E1A2E6B08803A85
:103B3800FF0081307F02031DA32D00306A02031CA1
:103B4800A62DA72DFD2D22302300BC000030BD007E
:103B580020006708A0006808A1006908A2000030DA
:103B6800A3000030A4000030A500983160209D31EA
:103B78000318BF2DC02DF22DCA2DCA2D00302100EB
:103B8800A0008030A1007F30A200D22DFF3021009C
:103B9800A0007F30A1007F30A200D22D2008200095
:103BA800A000210021082000A100210022082000F7
:103BB800A200A43119249D3120002008E700210823
:103BC800E8002208E9001B2E1B2E1A2EF22D0030C9
:103BD800E7008030E8007F30E9001B2EFF3020002E
:103BE800E7007F30E8007F30E9001B2E1B2E1B2EDC
:103BF8001A2E20006B08ED006A08EC000130FF0067
:103C08006D0DED0CEC0CFF0B042E69086C06803969
:103C18006C06E9006A080139EC00EC0CEC0C680849
:103C28006C067F396C06E8001A2E1A2E1B2E080027
:103C380021002C082000A00021002D082000A10050
:103C480021002E082000A2000030A3000030A400AC
:103C58000030A500983160209E310318342E352E8F
:103C6800432E21302300BC000030BD00003021006D
:103C7800AC000030AD000030AE00F62EF62E21006C
:103C88002E082D042C04031D4A2E4B2E592E2230AB
:103C98002300BC000030BD0000302100AC00003023
:103CA800AD000030AE00F62EF62E00302000DA000F
:103CB8008030DB00BF30DC000030CA000030CB00B1
:103CC8004030CC00AF30EF006F08A30021002C0873
:103CD8002000A00021002D082000A10021002E08AE
:103CE8002000A200A73175279E3120002008CD00B2
:103CF8002108CE002208CF0082312D229E312000DB
:103D08004A08DD004B08DE004C08DF009131DC2159
:103D18009E3120005A082100AC0020005B082100D9
:103D2800AD0020005C082100AE00FF30AF07FF3077
:103D3800B03D2C08A3002D08A4002E08A5001F30B4
:103D48002000EF006F082100A6000830A70000300F
:103D5800A8009A3163229E3121002308AC00240870
:103D6800AD002508AE002C082000DA0021002D083F
:103D78002000DB0021002E082000DC007230CA0081
:103D88003130CB003F30CC00210030082000A901A1
:103D9800A90721002F082000A801A807A531E925B7
:103DA8009E3120002808CD002908CE002A08CF001F
:103DB80082312D229E3120004A08DD004B08DE00AA
:103DC8004C08DF009131DC219E3120005A08210087
:103DD800AC0020005B082100AD0020005C08210039
:103DE800AE00F62E08002100CE00A53108259E3130
:103DF800200023082100C900200022082100C80053
:103E0800200021082100C700200020082100C6004A
:103E18000D2F6400A53141259E31A53108259E311D
:103E2800200023082100CD00200022082100CC001A
:103E3800200021082100CB00200020082100CA0012
:103E48004A08BA004B08BB004C08BC004D08BD002E
:103E58004609BE004709BF004809C0004909C1001A
:103E6800BE0A0319BF0A0319C00A0319C10A3E088A
:103E7800BA073F08BB3D4008BC3D4108BD3D200096
:103E880064082100C200200065082100C300C401A5
:103E9800C5013D084502031D5B2F3C084402031D74
:103EA8005B2F3B084302031D5B2F3A0842020318AD
:103EB8005E2F5F2F612FFF2FFF2F4E08263E8600B3
:103EC800013087008108031D6A2F6B2F6D2FFF2F8C
:103ED800FF2F4E08293E86000130870001088331F4
:103EE80000239E310318792F7A2F822F21004E0844
:103EF8002C3E8600013087008101E32F20006608F0
:103F0800031D872FE32F21004E083D3A031D8D2FF7
:103F18008E2FD62F00302000DA000030DB003D3035
:103F2800963114269E31D0302000E4000730E50099
:103F3800E601E7010314E70D3D309E31F7269E3177
:103F480000302000A0000030A1003D30A431B7248B
:103F58009E312200E9010314E90D21006F08A43104
:103F680033249E312100BA003A08EF006F08200080
:103F7800A000A101A01BA103E830A2000330A30008
:103F8800A5319C259E3120002108E001E00720088A
:103F9800DF01DF0721004E08A63111269E312000DF
:103FA800E601E32F00302000DA000030DB002100BA
:103FB8004E08963114269E31E32FE32FE32F20007D
:103FC8006708031DE82F0D2FA331C1239E31031C61
:103FD800EE2FEF2F0D2F00302000DA000030DB002D
:103FE80021004E08963114269E312200B801031490
:103FF800B80D0D2F0D2F08000034003480343F34E5
:10400800723431343F34FE3475343E3458346334BA
:104018003D3495341D343C34C534AE343A347934A7
:10402800213439349434803437349334A7343534D4
:1040380056341534343400340034003400348034B9
:104048003F34F034FF34BE34E234A9343E34833490
:104058007634BE34AE342B343E343C34C334BD34B1
:0C406800D23413343D347834D334BB34EC
:10476200640080010131890BB22B0034013020003A
:10477200A0000030A100FF30A007FF30A13D0800DB
:104782007D08031DC52BC82B0314CA2BCA2B03108B
:10479200CA2B08007B08031DCF2BD22B0314D42B6A
:1047A200D42B0310D42B080022000C1227008C10EB
:1047B2000C1122008C1210119011080022000C160C
:1047C20027008C140C1522008C1610159015080069
:1047D20022003508031DEE2BF12B0314F32BF32BD0
:1047E2000310F32B08002000A4002408143E8600C6
:1047F200013087002008C03F2108C13F0800200087
:10480200A2002208223E8600013087002008C03F15
:104812002108C13F08002000A2002208183E86009D
:1048220001308700403FA000413FA100182C080042
:1048320020002208210420040319202C212C242CDE
:104842008030A206242C252C08002000A300A201FF
:104852002308283E860001308700010883310023A7
:10486200A43108002000A0002008013A031D3A2CC0
:104872003B2C3E2CFF30402C402C0130402C0800B9
:1048820020002208031D462C492C22000E144C2C19
:1048920022000E104C2CA331B723A4310800F11FC3
:1048A200532C542C612C7009F2007109F300F20AA6
:1048B2000319F30A7208F0007308F100612C612CED
:1048C20008002000A0002008263E86000130870054
:1048D2008108031D6D2C6E2C712C0314732C732C08
:1048E2000310732C080020002208803A7F3E031C2C
:1048F2007B2C7C2C7F2C22000E17822C22000E1384
:10490200822CA331B723A431080020003608A0006E
:104912003708A100A2018E30B9003908A300A40112
:1049220099317B21A43120002008B6002108B7006C
:104932002208B8009C2C08002000A300A201A12C90
:10494200231CA42CA52CAA2C2008A1002108A20714
:10495200AA2C0310A00D0310A30CA308031DB22C54
:10496200B32CA12CB42C2208B62C08002000A200E3
:104972002208263E86000130870081012208183E67
:104982008600013087002008C03F2108C13F22086D
:104992001A3E8600013087002008C03F2108C13F2F
:1049A20008002000A10164007C08013A031DDA2CF2
:1049B200DB2CD42CFC0101302000A0002008A10730
:1049C20032302102031CE62CE72CD42CEC2CEC2CEC
:1049D200D42CD42CD42C080080302000E9066A089C
:1049E200DA006B08DB006C08DC006708DD00680891
:1049F200DE006908DF009131DC21A43120005A0871
:104A0200E7005B08E8005C08E900072D08008B134B
:104A120023002F082000A70023002E082000A60054
:104A220023002D082000A50023002C082000A4004C
:104A32008B172708A3002608A2002508A100240836
:104A4200A000232D0800FD08031D282D292D312D3E
:104A52002200ED010314ED0D0310402D402D3E2DDB
:104A620022006D08031D362D3E2DED01B801031401
:104A7200B80D0314402D402D3E2D0310402D08008B
:104A820023006B0883310023A531031C492D4A2DD5
:104A92004D2D22001011502D22001015502D6608A8
:104AA20083310023A531031C572D582D5B2D220085
:104AB20090115E2D220090155E2D08002000A300AB
:104AC200A2010314A20D2308283E860001308700AC
:104AD200010883310023A531A331B723A531A331C6
:104AE200B723A531A331B723A531A331B723A5310C
:104AF200A331B723A53108002000A300A401A4011B
:104B0200942DA331D523A531A431D224A531A331CB
:104B1200DF23A531A431D224A53101302000A20027
:104B22002208A407942D23082402031C992D9A2DF0
:104B3200822D9B2D08002000A401A501A02D201C80
:104B4200A32DA42DA82D2208A4072308A53D0130DA
:104B5200A235A30D890BA92D0130A136A00C890B1A
:104B6200AE2D21082004031DB72DB82DA02DB92D7F
:104B72002508A101A1072408A001A007C02D080053
:104B82002000A00022000C1627008C140C15220015
:104B92008C16D92D22000C12E82D27008C10E82D3E
:104BA20027000C11E82D22008C12E82DE82DE82DAB
:104BB20020002008003A0319D12D013A0319CE2D05
:104BC200033A0319D42D013A0319CB2DE82D08001D
:104BD2002000AD01A91FEE2DEF2DF82DA809A9097E
:104BE200A80A0319A90AAD010314AD0DF82D28086E
:104BF200A0002908A100A2018E30AB002B08A3005F
:104C02002D08AC002C08A40099317B21A53120008D
:104C12002008A8002108A9002208AA00102E0800D6
:104C22002000E30063081A3E8600013087005F0817
:104C3200C03F6008C13F6308183E8600013087000C
:104C4200403FE100413FE20063081A3E8600013026
:104C52008700403F6106031D302E413F6206031963
:104C6200332E342E392E63088B314523A631392E4B
:104C72000800F901FA01FB01FC01FD012100EE012E
:104C8200EF0120308400013085004A30A331B12386
:104C9200A631A0308400013085004F30A331B1230A
:104CA200A631F73084008230850022001200EA002B
:104CB2001200EB001200EC001200ED001200EE00F8
:104CC2001200EF00200083310F2B8E302000AC0049
:104CD2002C08AD00782E0130AB36AA0CA90CA80C1A
:104CE200890B6D2E0130AC002C08AD07782EFF30F9
:104CF2002B05031D7D2E7E2E6C2E7F2E2808A000F4
:104D02002908A1002A08A2002D08AC002C08A30043
:104D1200A40199317B21A63120002008A800210896
:104D2200A9002208AA00952E08002200B508031D3A
:104D32009B2E9C2EBE2EC230A4310C24A631200004
:104D42002108A401A4072008A301A3078731ED27A6
:104D5200A63120002408803AFF0080307F02031D24
:104D6200B42E33302302031CB72EB82EC72E2200D6
:104D7200EE010314EE0DC72EC72E6E08031DC22EC0
:104D8200C72EEE010314C92EC92EC72E0310C92E39
:104D9200080000302000AB000030AA000030A9005B
:104DA2000030A800D42E201CD72ED82EE12E2408A5
:104DB200A8072508A93D2608AA3D2708AB3DE12EF4
:104DC2000130A435A50DA60DA70D890BE22E0130E9
:104DD200A336A20CA10CA00C890BE92E23082204F5
:104DE20021042004031DF62EF72ED42EF82E2B08B4
:104DF200A3002A08A2002908A1002808A000012F68
:104E020008002000E5006508183E86000130870092
:104E1200403FE100413FE2005F086107E3006008B4
:104E2200623DE40065081A3E86000130870063088F
:104E3200C03F6408C13F6508183E86000130870004
:104E4200403FE100413FE20065081A3E8600013022
:104E52008700403F6106031D302F413F6206031960
:104E6200332F342F392F65088B314523A731392F42
:104E72000800FB08031D3E2F3F2F682F2200EF087A
:104E8200031D442F452F722F3D30A4310C24A7312E
:104E920020002108A401A4072008A301A307873149
:104EA200ED27A73120002408803AFF0081307F02DD
:104EB200031D5D2FF5302302031C602F612F722F1B
:104EC2002200EF010314EF0D722F722F722F2200B6
:104ED2006F08031D6D2F722FEF010314742F742FAF
:104EE200722F0310742F08002000220821042004CE
:104EF200031D7C2F7D2F8C2F230886008701003015
:104F0200C03F0030C13F0030A0000030A10000309F
:104F1200A200B82FB82F22087F39A400A5010130C2
:104F2200A435A50D890B912F23088600870124083B
:104F3200C03F2508C13F210D210D0139A400A50163
:104F42002308860087012408810441312508810451
:104F5200230886008701823081074131FF30813D7D
:104F62007F31220880393F38A200A113B82F0800F0
:104F72002000BD018E30BA003A08BC00B91FC22F12
:104F8200C32FDF2FB609B709B809B909B60A031941
:104F9200B70A0319B80A0319B90ABD010314BD0DF2
:104FA200DF2FDF2F0130B936B80CB70CB60C890BE6
:104FB200D42F0130BA003A08BC07DF2FFF30390581
:104FC200031DE42FE52FD32FE62F3608A000370864
:104FD200A1003808A2003C08BA003A08A3003D0824
:104FE200BB003B08A40099317B21A7312000200897
:0E4FF200B6002108B7002208B800FF2F080003
:020000040001F9
:04000E00DCCFFCDB6C
:00000001FF
