:200000006EC200000C9470120C9470120C9470120C9470120C9470120C9470120C947012C2
:200020000C9470120C9470120C944F2376C2000074C2000072C2000070C200006EC2000066
:200040006CC200006AC2000068C2000066C2000064C2000043C4000060C200005EC2000085
:200060000C94391A5AC200000C94BF0956C2000054C200000C94460D50C200004EC20000C6
:200080004CC200004AC2000048C2000046C2000044C2000042C20000C30AC00ABD0ABA0A08
:2000A000B70AB30AAF0AAB0AA70AA30A9F0A800A9B0A970A8B0A4C0B550B430B3A0B310B62
:2000C000090B090B090B090B270B000BEF0BE60B030CF80BC10BC10BC10BDC0BD20BB70BAC
:2000E000141D1D1D1A1D291D261D231D201D171D341D371D0E1D3D1D3A1D491D0E1D461DAF
:20010000431D401DE71DFA1D0D1EE11DE11DE11DE11D201E331E461EE11DE11DD81D5D2083
:200120008820112088201120D8200D20112005213F200D0A436F6E6E6563740D0A000D0A23
:20014000446973636F6E6E6563740D0A003F0D0A0053757370656E6465640D0A00436F6E46
:20016000666967757265640D0A004164647265737365640D0A0044656661756C740D0A0000
:20018000506F77657265640D0A00556E61747461636865640D0A000D0A4366674368672001
:2001A000002C002C002C004745545F5245504F52543D002C005543503D005374617274699B
:2001C0006E6720426F6F746C6F616465720D0A0050726F63657373696E67204F75747075AE
:2001E00074205265706F72740D0A004279746573546F526561643D0052656365697665642E
:200200002000496E697469616C69736174696F6E20436F6D706C6574650D0A00496E6974F9
:2002200069616C6973696E670D0A00506F7765723D5000290D0A0055534220484944207608
:20024000312E3020496E697469616C6973656420280020005265706F7274200020004849CB
:200260004420002000200053747220002000436F6E666967200020004465762000476F7462
:2002800020756E6578706563746564207479706520696E20496E6974436F6E74726F6C7328
:2002A000202D20307800506F74656E74696F6D6574657220666F756E64206F6E2077726F09
:2002C0006E6720706F7274202D20506F72743D307800496E69745377697463680D0A002C24
:2002E00000506F72742000476F74204C45442053746174652000496E69744C45440D0A0059
:20030000476F74204269636F6C6F75724C45442053746174652000476F7420547269636FF3
:200320006C6F75724C454420537461746520004C43442046756E6374696F6E53657420520E
:2003400065706F7274004C434420437572736F72205265706F7274004C434420466F6E74DC
:20036000205265706F7274004C4344204F7574707574205265706F7274004C434420556E0B
:200380006B6E6F776E207265706F72742069642000496E697469616C6973696E67203462CD
:2003A0006974204C43440D0A00496E697469616C6973696E672038626974204C43440D0AD1
:2003C000002044373D002044363D002044353D002044343D0020453D002052573D00525376
:2003E0003D004C43445F535049204472617752656374204F7574707574205265706F727419
:20040000004C43445F53504920446973706C617920636F6E74726F6C204F757470757420D6
:200420005265706F7274004C43445F53504920436861726163746572204F757470757420A4
:200440005265706F7274004C43445F53504920556E6B6E6F776E207265706F727420696449
:2004600020004C43445F53504920496E697469616C6973696E67002C204D61736B3D002CF9
:2004800020426974733D00496E6974436F756E74657220506572696F643D002C2056616CCA
:2004A00075653D0050574D20506F72743D002C2056616C75653D0050574D20506F72743DB3
:2004C000000D0A00536574466561747572653D00436C656172466561747572653D001124AB
:2004E0001FBECFEFD0E2DEBFCDBF11E0A0E0B1E0EAE6F9E400E00BBF02C007900D92A43061
:20050000B107D9F714E0A4E0B1E001C01D92A931B107E1F73AD20C94B32472CDE82FFF2771
:20052000EE0FEE0F8827EA56FD4F0994009981E008950000019981E008950000029981E0BE
:2005400008950000039981E008950000049981E008950000059981E008950000069981E02D
:2005600008950000079981E008950000189981E008950000199981E0089500001A9981E0CD
:20058000089500001B9981E0089500001C9981E0089500001D9981E0089500001E9981E08D
:2005A000089500001F9981E008950000309981E008950000319981E008950000329981E02D
:2005C00008950000339981E008950000349981E008950000359981E008950000369981E0ED
:2005E00008950000379981E008950000489981E008950000499981E0089500004A9981E08D
:20060000089500004B9981E0089500004C9981E0089500004D9981E0089500004E9981E04C
:20062000089500004F9981E008950000609981E008950000619981E008950000629981E0EC
:2006400008950000639981E008950000649981E008950000659981E008950000669981E0AC
:2006600008950000679981E008950000789981E008950000799981E0089500007A9981E04C
:20068000089500007B9981E0089500007C9981E0089500007D9981E0089500007E9981E00C
:2006A000089500007F9981E008950000E82FFF27EE0F8827E35AFC4F0994109A0895119A87
:2006C0000895129A0895139A0895149A0895159A0895169A0895179A0895289A0895299A96
:2006E00008952A9A08952B9A08952C9A08952D9A08952E9A08952F9A0895409A0895419AB6
:200700000895429A0895439A0895449A0895459A0895469A0895479A0895589A0895599AD5
:2007200008955A9A08955B9A08955C9A08955D9A08955E9A08955F9A0895709A0895719AF5
:200740000895729A0895739A0895749A0895759A0895769A0895779A0895889A0895899A15
:2007600008958A9A08958B9A08958C9A08958D9A08958E9A08958F9A0895E82FFF27EE0F0D
:200780008827EC53FC4F0994109808951198089512980895139808951498089515980895D6
:2007A000169808951798089528980895299808952A9808952B9808952C9808952D98089565
:2007C0002E9808952F98089540980895419808954298089543980895449808954598089585
:2007E000469808954798089558980895599808955A9808955B9808955C9808955D980895A5
:200800005E9808955F980895709808957198089572980895739808957498089575980895C4
:20082000769808957798089588980895899808958A9808958B9808958C9808958D980895E4
:200840008E9808958F980895EF92FF920F931F93CF93DF937C01062F81E08093F1008091AF
:2008600008048B30A8F50023C1F0CE2DDF2D10E004C01F5F2196101781F028812093F1006B
:20088000209108042B30A8F3888190E0FCD580E2ABD51F5F21961013F0CF809108048B308A
:2008A00008F00AD6402F50E0B70187E091E00E9451248091090490910A0490938F01809307
:2008C0008E01DF91CF911F910F91FF90EF90089581E090E0D8D580E287D5C5CF1F920F929C
:2008E0000FB60F9211242F933F938F939F938091090490910A04019690930A048093090440
:20090000809107048F5F80930704809102049091030401969093030480930204809102047F
:2009200090910304883E934031F18091040490910504019690930504809304042091000101
:20094000309101018217930768F08091FF03909100040196909300048093FF031092050493
:20096000109204049F918F913F912F910F900FBE0F901F901895809106048F5F8093060460
:200980001092030410920204D0CFCF93DF93CDB7DEB7C154D1090FB6F894DEBF0FBECDBF44
:2009A00014B7A89584B7877F84BF88E10FB6F89480936000109260000FBE14BE13FF07C004
:2009C0008FEF9FE00E947924882309F43DC26FEF8FEF9FE00E94812480916100809390017C
:2009E000F89400E80093610010926100E0E0F0EE4591549160E070EE89E194E00E943B24B6
:200A0000E0912D04F0912E04E75EFB4FF0939601E0939501818185FD08C081E885BF05BF12
:200A2000E0919501F09196018181867080939201828180930804CF01429690934A018093AE
:200A400049019F012A5D3F4F309394012093930110928C01109247011092910110928F0179
:200A600010928E0110928D0180818F3F69F0682F677041E08695869586954AD7E0919501E5
:200A8000F0919601808112DE1092030410920204109206041092070410920A041092090444
:200AA00082E084BD83E085BD8AEF87BD80916E00826080936E0080E8809364001092B60018
:200AC000809195019091960163E070E003960E94151F80919201882391F0982F947081FF9A
:200AE00003C08AB180638AB9992319F08AB1806C8AB98091920181FD95C182FD5AC1809180
:200B0000080481115EC1789480910804811162C180919201882321F081FD8FC182FD88C144
:200B200080E00E942F23EE24E39402E011E00E942124809110048430D1F780919101811148
:200B400015C080910804882319F08CE192E06ED48091930190919401C7D410939101809192
:200B60000804882319F082E092E060D48091050190910601019690930601809305012091E3
:200B8000060430910401321771F0209106042093040120910804222311F058D48DD4109236
:200BA0000601109205018091090490910A0420918E0130918F01821B930B893E934010F0D3
:200BC00010938D01E092E900F0908D0122961FAE229760919301709194019E012F5B3F4F6B
:200BE000AE014F5F5F4F81E0DAD4F11018C08091090490910A0420918E0130918F01821B87
:200C0000930BC397C0F022964FAD229750E067E071E0CE0101960E944424892B61F0809171
:200C20001004882341F08091E80085FF04C08091E80080FD1DC110928D010093E900809172
:200C4000E80082FF74CF809108048B3018F088EF91E0ECD38091F2009091F300892B09F499
:200C600042C0F090F100809108048B3008F06DC080914701882309F446C0813059F7E0918B
:200C80008C0181E08E0F80938C01F0E0E55BFE4FF082809148018150809348018111DACF98
:200CA000809108048B3018F080ED91E0BFD380914B01833009F059C080914C0190914D01F5
:200CC000A0914E01B0914F018F3D904FAD40BF4D09F453C0109247018091F2009091F3004E
:200CE000892B09F0BECF8091E800982F9B7F9093E8008F778093E800809108048B3008F400
:200D000016CFDAD314CF8FEF8F0D833120F510938C01F0924B01E0914901F0914A01EF0DFA
:200D2000F11D3197808180934801809108048B3048F08BEE91E07AD38091480190E0A3D3F9
:200D400080E252D31093470185CF8F2D90E09BD380E24AD38DCF8091E800982F9B7F90935B
:200D6000E8008F778093E80075CF60919301709194014CE451E0D5D4ADCF809108048111F6
:200D800011C060E08FEF9FE00E94812428E088E190E00FB6F894A895809360000FBE20939C
:200DA0006000FFCF8AEB91E041D316D38111E9CFFCCF8BB1806C8BB980910804882309F4DC
:200DC000A2CE89E190E07CD3789480910804882309F49ECE87E392E029D3812F90E053D31F
:200DE00083E392E023D3E0919501F091960180818F3F09F48DCE8BE292E018D3E09195010E
:200E0000F091960180818695869586958F5BECD2E0919501F091960180818770805DE4D216
:200E20004BD376CE8BB180638BB98091920165CE8BB18F7380688BB973CE8BB18F7C806143
:200E40008BB9809192016ACE6FEF8FEF9FE00E9481242FEF86E093E0215080409040E1F700
:200E600000C00000E0910201F09103010995AFCD22966FAD2297CE010196E6DC8091E800F1
:200E8000982F9E7F9093E8008F778093E800D3CEAF92BF92CF92DF92EF92FF920F931F93F7
:200EA000CF93DF93CDB7DEB7C154D1090FB6F894DEBF0FBECDBF8091E80083FF13C08091B0
:200EC000150490911604892B69F41091120400911104909108049B3008F073C0113011F4E7
:200EE000013A91F0CF5BDF4F0FB6F894DEBF0FBECDBFDF91CF911F910F91FF90EF90DF90FA
:200F0000CF90BF90AF9008950091130410911404A02EBB24BA94B10EC0901504D090160449
:200F2000E0901704F0901804809108048B3008F058C082E0B81609F46DC0B110D3CF81E084
:200F4000A812D0CF22961FAE22978091E800877F8093E80060919301709194019E012F5BBC
:200F60003F4FAE014F5F5F4F81E019D38091E80082FDB8CF8091E80080FFFCCF22966FAD75
:200F80002297CE01019660DC8091E800982F9E7F9093E8008F778093E80005C08091100423
:200FA000882309F49FCF8091E80082FFF7CF8091E800982F9B7F9093E8008F778093E800F5
:200FC00091CF85EB91E032D2812F90E05CD283EB91E02CD2802F90E056D26ED21091120463
:200FE0007DCF87EA91E022D28B2D90E04CD285EA91E01CD2C801992746D283EA91E016D254
:20100000C601992740D281EA91E010D2C7013BD253D28FCF8091E800877F8093E800809116
:20102000E80080FFFCCF6091930170919401802F44D48091E800982F9E7F9093E8008F77AE
:201040008093E80005C080911004882309F44ACF8091E80082FFF7CFAACF80910804811182
:2010600023C046E361EC81E00E94A92146E360EC82E00E94A9218091E20084608093E2003B
:2010800080919201882321F081FD2CC082FD1EC0E0919501F091960180818F3F11F1909118
:2010A0001004943081F102CB87E991E0BFD180911004823009F438C0F0F0843089F140F19D
:2010C000853011F581E591E0B1D1CBCF8BB18F7380648BB9E0919501F091960180818F3F0E
:2010E000F1F608958BB18F7C80628BB98091920182FFCECFEBCF882379F0813029F480E839
:2011000091E094D1AECF39CB8DE491E08FD1A9CF8AE691E08BD1A5CF8AE891E087D1A1CF62
:201120008DE591E083D19DCF86E791E07FD199CFE0919501F091960180818F3F09F0B6DAFF
:2011400080910804811101C008958EE391E06EC1089580910804811101C0089582E391E0F1
:2011600065C1AF92BF92CF92DF92EF92FF920F931F93CF93DF936A01292F33272330310505
:2011800009F4A1C064F52130310509F477C02230310509F04AC0A0902504B0902604F50199
:2011A000E75EFB4F5F010091270410912804809108048B3058F18EE692E038D1809125046D
:2011C0009091260443D18CE692E030D180912704909128043BD170D1809108049CC0213229
:2011E000310541F12232310501F5A0901D04B0901E04F501E75EFB4F5F0100911F0410911A
:201200002004809108048B3008F0A5C0F601B182A082C801DF91CF911F910F91FF90EF9032
:20122000DF90CF90BF90AF90089500E010E0A12CB12CECCFA0902904B0902A04C501875E0A
:201240009B4F5C0100912B0410912C04809108048B30E0F28EE592E0E9D08091290490910F
:201260002A04F4D08CE592E0E1D080912B0490912C04ECD021D1809108044DC0A09021042A
:20128000B0902204C501875E9B4F5C010091230410912404809108048B3008F4B7CF88E7AC
:2012A00092E0C4D08091210490912204CFD086E792E0BCD08091230490912404C7D0FCD0BD
:2012C0008091080428C07C01FF24E701CC0FDD1FC15DDB4FA880B980C501875E9B4F5C010F
:2012E000FC01008110E0809108048B3008F48ECF87E692E09BD0C701A9D085E692E096D081
:2013000088819981A3D083E692E090D0C8019ED0D3D080910804853108F478CF01151105E0
:2013200009F474CF7501C0E0D0E0F70181917F0190E0A9D080E258D02196C017D10749F00B
:20134000CE018F709927892B81F7209771F3B4D0ECCFB2D05BCF84E592E068D080911D0488
:2013600090911E0473D082E592E060D080911F04909120046BD0A0D080910804CCCF1F9251
:201380000F920FB60F9211240BB60F928F939F93EF93FF9390919801809197019817B1F094
:2013A000E0919701EF5FE0939701F0E0E756FE4F80818093CE00FF91EF919F918F910F9090
:2013C0000BBE0F900FBE0F901F9018958091C9008F7D8093C900EFCF20919801909197015A
:2013E00081E0291380E00895209198012F5F909197012917E1F3E22FF0E0E756FE4F808340
:20140000209398018091C90080628093C9000895CF93DF93EC018881882329F02196E4DF43
:2014200089918111FCCFDF91CF910895CF93DF93EC01FC018491882331F0D6DF2196FE01BE
:2014400084918111FACFDF91CF910895CF93DF93CDB7DEB727970FB6F894DEBF0FBECDBFBD
:201460004AE050E0BE016F5F7F4F0E945A24CE010196CEDF27960FB6F894DEBF0FBECDBF80
:20148000DF91CF910895CF93DF9300D000D01F92CDB7DEB740E150E0BE016F5F7F4F0E9453
:2014A0005A24CE010196B4DF0F900F900F900F900F90DF91CF9108958DE096DF8AE094CF7E
:2014C00010929701109298019093CD008093CC001092C800E9ECF0E0108286E08093CA00E4
:2014E0008081886080830895CF93DF93EC014881442351F050E0FA013197EF30F10538F001
:2015000080910804811142C0DF91CF910895E45BFF4F0C943524CE010E94651A8981C80F56
:20152000D11D48814111E6CFDF91CF910895CE010E94F314F3CFCE010E94C21DEFCFCE0169
:201540000E944C1DEBCFCE010E94231CE7CFCE010E94B717E3CFCE010E942A14DFCFCE0143
:201560000E94A713DBCFCE010E943313D7CFCE011AD7D4CFCE018DD5D1CFCE018BD3CECF0A
:20158000CE011FD3CBCFCE013AD2C8CF8DE792E04DDF888190E077DFDF91CF918DCF9F9240
:2015A000AF92BF92CF92DF92EF92FF920F931F93CF93DF9300D01F92CDB7DEB7982E7B01B1
:2015C0006A0159015A83498381E08B83FA011082FB010081002309F471C0F7019381991519
:2015E00029F09916B0F08281891598F010E0F8013197EB30F10568F4E55AFF4F0C943524B6
:20160000AE014D5F5F4FBE016F5F7F4FC7010E94B01DF7018181E80EF11CF70100810111A7
:20162000DCCF89819A818C199D098F5FF50180830F900F900F90DF91CF911F910F91FF901C
:20164000EF90DF90CF90BF90AF909F900895AE014D5F5F4FBE016F5F7F4FC7010E94771C82
:20166000D8CFAE014D5F5F4FBE016F5F7F4FC7011CD7CFCFAE014D5F5F4FBE016F5F7F4FA2
:20168000C70186D5C6CFAE014D5F5F4FBE016F5F7F4FC7019DD3BDCFAE014D5F5F4FBE01A2
:2016A0006F5F7F4FC7016CD2B4CFAE014D5F5F4FBE016F5F7F4FC701B4D2ABCF81E0B6CFF3
:2016C0000F931F93CF93DF93FC01A081B181FB0130812223E1F010E0E1E0F0E00FC0032F4D
:2016E000330FEF01C423D523CD2B19F0CC91C02BCC93EE0FFF1F1F5F121749F03111EFCF36
:2017000011961C921197119632E001E0EACFFC01B183A083FB013083DF91CF911F910F9156
:201720000895FF920F931F93CF93DF9300D01F92CDB7DEB7F82E8B015A83498381E08B83EF
:20174000FB014081442329F1F80193819F1529F0F916B8F082818F15A0F050E0FA0136978B
:20176000EA30F10570F4EA59FF4F0C9435249E012D5F3F4FAE014F5F5F4F6F2DC8010E94A0
:20178000921AF8018181080F111DF80140814111DBCF0F900F900F90DF91CF911F910F91AA
:2017A000FF900895AE014D5F5F4FBE016F5F7F4FC8010E940815E5CFAE014D5F5F4FBE0195
:2017C0006F5F7F4FC8010E94591EDBCFAE014D5F5F4FBE016F5F7F4FC801F0D7D2CFAE019D
:2017E0004D5F5F4FBE016F5F7F4FC80178D7C9CF9E012D5F3F4FAE014F5F5F4F6F2DC8015B
:201800000E94A118BECFAE014D5F5F4FBE016F5F7F4FC8010E946114B4CFEF92FF920F9365
:201820001F93CF93DF938C01E42EFC01A081B181FB015081442309F43DC0F12C21E030E0D7
:2018400080E090E011C041E052E0E901C82BD92BE081E423D1F0FC2FED2F8F2F9E2F220F87
:20186000331FF394FE14D1F0FD013196C52FCC0F5111FD01DF01552331F3452F5C2FE90163
:20188000C82BD92BE081E42331F7F82FE92F8F2F9E2F220F331FF394FE10E6CFF801B183FD
:2018A000A083FB015083DF91CF911F910F91FF90EF90089580E090E0F1CF1F93CF93DF9355
:2018C000182FEB01988191110CC01EC09F3019F4CE010E94E81B8981C80FD11D988199237C
:2018E00099F02B81211729F01217A8F38A81811790F3993059F7CE010E94D1198981C80F23
:20190000D11D98819111EDCFDF91CF911F910895823009F443C0A0F0843021F108F44BC036
:20192000853069F520B381E090E0062E01C0880F0A94EAF7411160C08095822380BB0895E1
:201940008823F9F08130E1F424B181E090E0062E01C0880F0A94EAF7442309F441C0282B04
:2019600024B908952DB181E090E0062E01C0880F0A94EAF74423C1F1282B2DB908950895A7
:20198000089521B181E090E0062E01C0880F0A94EAF74423E9F0282B21B9089527B181E0B9
:2019A00090E0062E01C0880F0A94EAF7442301F1282B27B908952AB181E090E0062E01C0E2
:2019C000880F0A94EAF7442339F0282B2AB908958095822381B90895809582238AB9089563
:2019E0008095822384B90895809582238DB908958095822387B90895282B20BB0895CF93F2
:201A0000DF93EC0120919C022223C1F18C81982F969596959695953041F5382F3770832F11
:201A200090E0FC01EE0FFF1FE80FF91FE356FD4F81E08083211113C01092990210929B02A5
:201A400010929A02306430937C008EE280937A0010927B0080917A00806C80937A0081E0F6
:201A600080939C02DF91CF91089586EA92E0DEDC8C8190E008DDDF91CF911ECD88E1EDE950
:201A8000F2E0DF011D928A95E9F7C0CF1F920F920FB60F9211240BB60F922F933F934F9392
:201AA0005F938F939F93EF93FF93209178003091790080919A0290919B02820F931F909398
:201AC0009B0280939A02809199028F5F80939902843079F0FF91EF919F918F915F914F9125
:201AE0003F912F910F900BBE0F900FBE0F901F90189550917C00577041E0450F4770242FE4
:201B000030E0F901EE0FFF1FE20FF31FE356FD4F808181110EC04F5F4770842F90E0FC0132
:201B2000EE0FFF1FE80FF91FE356FD4F9081992391F380917A008F7380937A004064409314
:201B40007C0080917A00806C80937A00852F90E0FC01EE0FFF1FE80FF91FE356FD4F809124
:201B60009A0290919B029695879596958795928381831092990210929B0210929A02AACF31
:201B8000DC01CB01BA0114962C9114972770F89430E0F901EE0FFF1FE20FF31FE356FD4FFF
:201BA00041815281789415962C912A3049F0EAE0F0E0E21BF10902C056954795EA95E2F717
:201BC0007FCD0F931F93CF93DF93EC0180910804811123C06C81062F069506950695162FDA
:201BE000177040E0612F802F93DE8E8180FF07C0802F880F880F880F810F0E94560388852D
:201C00008E7F8887809107048F8381E08093B502DF91CF911F910F91089582ED92E006DCCF
:201C2000D9CFEF92FF920F931F93CF93DF93EC018B017A018C810E948E029E8190FF03C01E
:201C400091E0981B892F9D81992391F04885342F31703817D9F0209107045F81251B291748
:201C600098F080FB40F94887909107049F838170482F50E021E0B701C801DF91CF911F9171
:201C80000F91FF90EF901CCD832FF2CF909107049F83EECFBF92CF92DF92EF92FF920F9358
:201CA0001F93CF93DF93EC018E8181709C81992309F43FC0D12C882329F05BC0D3948C818C
:201CC000D816B8F5ED2CF12C8E0184E0D89E000D111D1124F8018185682F677040E08695B2
:201CE0008695869515DEF7013396EE0FFF1FEE0FFF1FEC0FFD1F80818E7F80838091070480
:201D0000F8018387809108048B30C0F281EE92E08DDBF801818590E0B6DB8FED92E086DB9E
:201D2000F801828590E0AFDBC7DBD3948C81D81648F281E08093B602DF91CF911F910F911F
:201D4000FF90EF90DF90CF90BF90089581EE92E06DDBF801818590E096DB8FED92E066DB83
:201D6000F801828590E08FDBA7DBD3948C81D81600F7ED2CF12C8E01F4E0DF9E000D111D5D
:201D80001124F8018185B82EB694B694B6948770C82E40E0682F8B2DBBDD8B2D880F880F71
:201DA000880F8C0D0E945603F7013396EE0FFF1FEE0FFF1FEC0FFD1F80818E7F80838091C8
:201DC0000704F8018387809108048B3070F2BECF5F926F927F928F929F92AF92BF92CF92E6
:201DE000DF92EF92FF920F931F93CF93DF93EC018B017A018E81282F2170982F927081FD06
:201E000061C0B8848C81882309F446C0A12C21115BC0992309F4F4C014C080FB40F94083D8
:201E2000809107041B968C93842F8170882329F0FE01E80DF91D8285B82AA3948C81A81659
:201E400058F56A2C712C4301880C991C880C991C6E01C80CD91CD60119968C910E948E021F
:201E60009F81992319F3F3013396EE0FFF1FEE0FFF1FEC0FFD1F4081342F3170831709F414
:201E8000F0C020910704D6011B965C911B97251B291718F6832FCACFB8864B2D50E02D8142
:201EA000B701C801DF91CF911F910F91FF90EF90DF90CF90BF90AF909F908F907F906F90BB
:201EC0005F90FECBB12C9ECF55245394992309F456C014C080FB30F93083809107041B96D9
:201EE0008C93832F8170882329F0FE01E80DF91D8285B82AA3948C81A81670F66A2C712CCE
:201F00004301880C991C880C991C6E01C80CD91CF60181850E948E02F52DF81B8F2F9F8171
:201F2000992309F3F3013396EE0FFF1FEE0FFF1FEC0FFD1F3081432F4170841709F499C01A
:201F400020910704D6011B965C911B97251B291708F6842FC8CF80FB40F940838091070443
:201F60001B968C93842F8170882321F0FE01E80DF91DB284A3948C81A81608F08DCF6A2C05
:201F8000712C4301880C991C880C991C6E01C80CD91CF60181850E948E02F52DF81B8F2F74
:201FA0009F81992309F3F3013396EE0FFF1FEE0FFF1FEC0FFD1F4081342F3170831709F4E3
:201FC00060C020910704D6011B965C911B97251B291708F6832FC8CF80FB30F930838091CF
:201FE00007041B968C93832F8170882321F0FE01E80DF91DB284A3948C81A81608F04CCF52
:202000006A2C712C4301880C991C880C991C6E01C80CD91CF60181850E948E029F81992374
:2020200021F3F3013396EE0FFF1FEE0FFF1FEC0FFD1F3081432F4170841759F0209107040E
:20204000D6011B965C911B97251B291728F6842FCCCF80910704D6011B968C9380818170B8
:20206000C4CF80910704D6011B968C9380818170DDCE80910704D6011B968C9380818170B8
:2020800032CF80910704D6011B968C93808181706BCFDF92EF92FF920F931F93CF93DF93A5
:2020A0008C01FC013796DC0114968C918823E9F0DE2ECE2FDF2F8991E82EE694E694E694EC
:2020C0008770F82E40E0682F8E2D22DC8E2D880F880F880F8F0D0E945603FE019C2F9D19DC
:2020E000D80114968C91981730F3D80115968C91882309F44BC0DE2ECE2FDF2F8991E82ED3
:20210000E694E694E6948770F82E41E0682F8E2DFFDB8E2D880F880F880F8F0D0E945603D0
:20212000FE01D80115968C919C2F9D19981730F3D80116969C919923F1F0D80114969C91AD
:20214000989FC0011124892BB1F080E090E021812E7F218320910704208301963296D801A3
:2021600014963C91149715962C91329F900111248217930764F381E08093B702DF91CF91B7
:202180001F910F91FF90EF90DF90089580E0D0CF2F923F924F925F926F927F928F929F920E
:2021A000AF92BF92CF92DF92EF92FF920F931F93CF93DF9300D01F92CDB7DEB77C016B01FE
:2021C0005A012C0127E0420E511CFC0184819201280F311DC90125818C01020F111D222318
:2021E00009F454C089834C01242C332433943401F40180810E94BD03F70184818823B9F128
:202200004A825B8214C040FB30F9318380910704808341700E5F1F4F50E021E0B501C601D0
:202220004FDAF70184819A819219981700F5EA81FB818191FB83EA830E948E02432D481B25
:20224000F7018681882341F3F8013181232F2170241749F090910704F8015081951B981749
:2022600090F6422FD7CF809107048083D3CFFFEF8F1A9F0AF30180810E945603882D398161
:20228000831BF7019581891708F4B1CF0F900F900F90DF91CF911F910F91FF90EF90DF90FC
:2022A000CF90BF90AF909F908F907F906F905F904F903F902F900895833009F448C0843070
:2022C00009F1813009F0089534B181E090E0062E01C0880F0A94EAF7282F2095232324B9CD
:2022E000442309F45EC095B1282F982B95B98091680081608093680080916B00822B80939D
:202300006B0008957DB1262F30E081E090E0062E01C0880F0A94EAF7582F509557235DB94A
:20232000411138C0582F40916A0024503109220F331F81E090E0022E01C0880F0A94EAF788
:20234000482B40936A008DB3852B8DBB08953AB181E090E0062E01C0880F0A94EAF7282FDA
:20236000209523232AB94423D1F09BB1382F982B9BB920916900660F81E090E0062E01C038
:20238000880F0A94EAF7282B209369008DB3832B8DBB08959EB1582F982B9EB9C4CF382FFB
:2023A000E8CF282FA4CFBF92CF92DF92EF92FF920F931F93CF93DF93EC018091EC028823A8
:2023C00009F445C0F090EB020F2D10E0BB24B394BF0C8C81C82EC694C694C6948770E82E53
:2023E0004F814170682F8C2D67DF8D81B82FB770DB2E4F8141706B2F8695869586955CDFFA
:2024000081E0C81609F446C0C801880F991F880F991FFC01E853FD4F28E02E0D208328E0A1
:20242000FC01E853FD4FD20ED18213821282F886B092EB0281E08093EC02DF91CF911F912D
:202440000F91FF90EF90DF90CF90BF9008951092EB0281E08093E80290E1E8EBF2E0DF0131
:202460001D929A95E9F78093C3029FEF9093C0028093C5029093C6028093BC029093BF02D9
:202480008093BA029093B902BB24B39400E010E0F12C9FCFC801880F991F880F991FFC01AA
:2024A000E853FD4FE08220E0BBCFDC01CB01BA011896EC911897F0E0F894EE0FFF1FEE0FF7
:2024C000FF1FE853FD4F4281538117962C91179721FD02C013821282789416962C91F0C872
:2024E0001F920F920FB60F9211240BB60F92AF92BF92CF92DF92EF92FF920F931F932F9301
:202500003F934F935F936F937F938F939F93AF93BF93EF93FF93CF93DF9300D0CDB7DEB748
:2025200083B1898399B18CB1807F9F70892B8A838091E80281116BC00091E9021091EA0244
:2025400069817A810617170709F469C07B01E026F126C090EB02CC2009F480C0E9ECF2E08F
:20256000D12C41E050E030C09A01008002C0220F331F0A94E2F7DC01A023B123AB2B09F4FF
:2025800043C0BCE0A8E05901A022B122AB2809F0AB2F86239723892B09F0A26026233723CA
:2025A000232B09F0A160B0E0A854BD4F2C9181819281820F911D27FD9A9592838183D39457
:2025C0003496DC1409F44AC0DF011197CA010C9002C0880F991F0A94E2F79C012E213F2177
:2025E000232B11F69A01008002C0220F331F0A94E2F7D901AE21BF21AB2B09F3DC01A023B4
:20260000B123AB2B09F0BDCFB4E0A0E0BCCF1092E80289819A819093EA028093E9020F908F
:202620000F90DF91CF91FF91EF91BF91AF919F918F917F916F915F914F913F912F911F911B
:202640000F91FF90EF90DF90CF90BF90AF900F900BBE0F900FBE0F901F9018957093EA02B2
:202660006093E902DCCFEF92FF921F93CF93DF931F92CDB7DEB77C018091080481112AC059
:20268000F7016481162F1695169516956770858180FF16C0812F880F880F880F860F6983EF
:2026A0000E945603698141E0812F32D981E08093ED020F90DF91CF911F91FF90EF9008952C
:2026C000812F880F880F880F860F69830E94BD036981E9CF86EF92E00E94160AD1CFFF9226
:2026E0000F931F93CF93DF938C01CB01BA0141E094D8EC01F82E87EE92E00E94160ACE0186
:2027000099270E94260A0E945C0AF801858180FF03C0FF24F394FC1AF8018481982F96952E
:20272000969596958770990F990F990F890FF11007C0DF91CF911F910F91FF900C94BD03E5
:20274000DF91CF911F910F91FF900C945603FF920F931F93CF93DF931F92CDB7DEB7FC0151
:202760006481162F16951695169567708581082F0695069506958770F82E812F880F880F4E
:20278000880F860F69830E94BD03802F880F880F880F8F0D0E94BD0341E06981812FB8D802
:2027A00041E06F2D802FB4D881E08093EE020F90DF91CF911F910F91FF900895FF920F939F
:2027C0001F93CF93DF93EC01CB01BA0142E025D88C01F82E809108048B3088F581E0F81669
:2027E000C9F09D81092F069506950695192F17708C810E94BD0382E0F81215C0802F880F34
:20280000880F880F810FDF91CF911F910F91FF900C9456031D81012F06950695069517702C
:202820008C810E945603802F880F880F880F810FDF91CF911F910F91FF900C94BD0380E01D
:2028400093E00E94160AC80199270E94260A0E945C0AC4CFFF920F931F93CF93DF931F92E3
:20286000CDB7DEB7FC016481162F16951695169567708581082F0695069506958770F82E15
:20288000812F880F880F880F860F69830E94BD03802F880F880F880F8F0D0E94BD0341E04D
:2028A0006981812F35D841E06F2D802F31D881E08093EF020F90DF91CF911F910F91FF9049
:2028C0000895DF92EF92FF920F931F93CF93DF931F92CDB7DEB78C01CB01BA0142E00E940E
:2028E0000D0C7C0187E193E0E9820E94160AC70199270E94260A0E945C0A2981213059F193
:202900002230B1F12330B9F1F12CF8018581D82ED694D694D6948770E82E84810E94BD03F2
:202920008D2D880F880F880F8E0DF1100AC00F90DF91CF911F910F91FF90EF90DF900C94D6
:20294000BD030F90DF91CF911F910F91FF90EF90DF900C945603F12CF8018581D82ED694F6
:20296000D694D6948770E82E84810E945603D8CFFF24F394CACFFF24F394EECF982F969533
:20298000969596958770990F990F990F890F611102C00C94BD030C945603CF93DF93C82F02
:2029A000C695C695C695D82FD770662371F08C2F880F880F880F8D0F0E94560341E06D2FFA
:2029C0008C2FDF91CF910C94880C8C2F880F880F880F8D0F0E94BD0341E06D2F8C2FDF91D2
:2029E000CF910C94880CCF93DF93EC016F8161708C81D3DF6F8161708D81CFDF6F816170C4
:202A00008E81CBDF81E08093F002DF91CF9108951F93CF93DF93EC01CB01BA0143E00E946B
:202A20000D0C182F8F8180FD1095612F64708C81A5DF612F62708D81A1DF612F61708E81AF
:202A4000DF91CF911F919ACF1F93CF93DF93EC01162F8E81882321F18B85682F6770412F1B
:202A60008695869586950E94880C8C85682F6770412F8695869586950E94880C8D85682FB0
:202A80006770412F8695869586950E94880C8E85682F6770412F8695869586950E94880CF0
:202AA0008F85682F6770412F8695869586950E94880C8889682F6770412F8695869586955D
:202AC0000E94880C8989682F6770412F8695869586950E94880C8A89682F6770412F86953D
:202AE00086958695DF91CF911F910C94880CEF92FF920F931F93CF93DF93EC01E62E8E81A2
:202B000060E0882309F44FC0CE019EDF88850E94BD0389850E9456031FEF85E0F82E02C09F
:202B2000115079F08A850E9456038F2D8A95F1F78A890E948E02082F8A850E94BD030111FF
:202B4000EFCF61E0CE0180DF88850E94560389850E94BD038B85E0FCAFC00E94BD038C8502
:202B6000E1FEAFC00E9456038D85E2FEAFC00E9456038E85E3FEAFC00E9456038F85E4FE5C
:202B8000AFC00E9456038889E5FEAFC00E9456038989E6FEAFC00E9456038A89E7FC69C0EE
:202BA0000E94BD0368C0CE014FDF88850E94BD0389850E9456030FEF15E002C00150F1F02F
:202BC0008A850E945603812F8A95F1F78A890E948E02F82E8A850E94BD03912F9A95F1F781
:202BE0008A850E945603912F9A95F1F78A890E948E028A850E94BD03F110E0CF61E0CE017E
:202C000023DF88850E94560389850E94BD038F85E4FC40C00E94BD038889E5FE40C00E944E
:202C200056038989E6FE40C00E9456038A89E7FC40C00E94BD038A850E94560385E08A9564
:202C4000F1F78A850E94BD0385E08A95F1F78F85E0FE59C00E9456038889E1FE51C00E9406
:202C600056038989E2FE49C00E9456038A89E3FE97CF0E9456038A850E94560385E08A9522
:202C8000F1F78A85DF91CF911F910F91FF90EF900C94BD030E9456038889E5FCC0CF0E9491
:202CA000BD038989E6FCC0CF0E94BD038A89E7FEC0CF0E945603BFCF0E9456038C85E1FC76
:202CC00051CF0E94BD038D85E2FC51CF0E94BD038E85E3FC51CF0E94BD038F85E4FC51CF78
:202CE0000E94BD038889E5FC51CF0E94BD038989E6FC51CF0E94BD0350CF0E94BD03B6CF82
:202D00000E94BD03AECF0E94BD03A6CFEF92FF920F931F93CF93DF93EC01E62E8E8160E073
:202D2000882309F44FC0CE018FDE88850E94BD0389850E9456031FEF95E0F92E02C011505B
:202D400079F08A850E9456038F2D8A95F1F78A890E948E02082F8A850E94BD030111EFCF80
:202D600061E0CE0171DE88850E94BD0389850E94BD038B85E0FCAFC00E94BD038C85E1FE68
:202D8000AFC00E9456038D85E2FEAFC00E9456038E85E3FEAFC00E9456038F85E4FEAFC0AA
:202DA0000E9456038889E5FEAFC00E9456038989E6FEAFC00E9456038A89E7FC69C00E9499
:202DC000BD0368C0CE0140DE88850E94BD0389850E9456030FEF15E002C00150F1F08A85B0
:202DE0000E945603812F8A95F1F78A890E948E02F82E8A850E94BD03912F9A95F1F78A855F
:202E00000E945603912F9A95F1F78A890E948E028A850E94BD03F110E0CF61E0CE0114DE78
:202E200088850E94BD0389850E94BD038F85E4FC40C00E94BD038889E5FE40C00E9456036E
:202E40008989E6FE40C00E9456038A89E7FC40C00E94BD038A850E94560385E08A95F1F7B3
:202E60008A850E94BD0385E08A95F1F78F85E0FE59C00E9456038889E1FE51C00E94560373
:202E80008989E2FE49C00E9456038A89E3FE97CF0E9456038A850E94560385E08A95F1F771
:202EA0008A85DF91CF911F910F91FF90EF900C94BD030E9456038889E5FCC0CF0E94BD0397
:202EC0008989E6FCC0CF0E94BD038A89E7FEC0CF0E945603BFCF0E9456038C85E1FC51CFF4
:202EE0000E94BD038D85E2FC51CF0E94BD038E85E3FC51CF0E94BD038F85E4FC51CF0E94D4
:202F0000BD038889E5FC51CF0E94BD038989E6FC51CF0E94BD0350CF0E94BD03B6CF0E945F
:202F2000BD03AECF0E94BD03A6CFCF93DF93EC0161E08ADD88850E94BD0389850E94BD0335
:202F40008F850E94560388890E94560389890E94BD038A890E94BD038A850E94560385E0FE
:202F60008A95F1F78A85DF91CF910C94BD03CF93DF93EC018091F102811104C080910704D4
:202F80008D32E0F388850E94BD0389850E94BD038A850E94BD0360E0CE0156DD8885682F69
:202FA000677041E08695869586950E94880C8985682F677041E08695869586950E94880C6E
:202FC0008A85682F677041E08695869586950E94880C8091080481114BC08E8181118DC024
:202FE000CE01A3DF80E29EE40197F1F7CE019DDF80E991E00197F1F7CE0197DF61E0CE0122
:2030000023DD88850E94BD0389850E94BD038F850E94BD0388890E94560389890E94BD03DB
:203020008A890E94BD038A850E94560385E08A95F1F78A850E94BD038C818230A8F068E293
:20304000CE0164DE68E0CE0161DE61E0CE015EDE66E0CE015BDE6CE0CE0158DE81E08093AA
:20306000F102DF91CF91089560E2CE014FDEEACF8EED93E00E94160A888590E00E94430ADD
:2030800089ED93E00E94160A898590E00E94430A85ED93E00E94160A8A8590E00E94430A03
:2030A00080ED93E00E94160A8F8590E00E94430A8BEC93E00E94160A888990E00E94430ADF
:2030C00086EC93E00E94160A898990E00E94430A81EC93E00E94160A8A8990E00E94430AC4
:2030E0000E945C0A809108049E819923F1F0882321F089EA93E00E94160A60E3CE0106DE95
:2031000080E29EE40197F1F760E3CE01FFDD80E991E00197F1F760E3CE01F8DD8C8182305D
:2031200060F068E3CE01F2DD8DCF882309F458CF81E993E00E94160A53CF60E3CE01E6DD95
:2031400081CFAF92BF92CF92DF92EF92FF920F931F93CF93DF93EC017A016901EB81E61746
:20316000E9F1062F10E0F0E0CF0101960817190709F46FC0CF0102960817190709F49BC0AF
:203180003396809108040E171F0709F4D3C081110BC0DF91CF911F910F91FF90EF90DF9074
:2031A000CF90BF90AF9008958AE793E00E94160AC8010E94260A8FE30E94F4098B8190E0B7
:2031C0000E94260ADF91CF911F910F91FF90EF90DF90CF90BF90AF900C945C0A8091080470
:2031E0008B3008F0C7C048E0B601C7010E940D0C182F48E0B601C7010E940D0C6C81462F28
:2032000050E09C013327241735070CF0A5C0FE01E80FF11D6389610F6068CE0177DD8D8156
:20322000882309F4B6CF00E010E00BC0682FCE015EDC0F5F1F4F8D8190E0081719070CF091
:20324000A8CF48E0B601C7010E940D0C8111EECFA0CF809108048B3008F095C048E0B601D3
:20326000C7010E940D0C880F991F880F991F880F991F887F9770682F6064CE0147DD07E09B
:2032800010E045E0B601C7010E940D0C682FCE012EDC015011090115110599F760E0CE0139
:2032A000DF91CF911F910F91FF90EF90DF90CF90BF90AF901CCC809108048B3008F06AC0A2
:2032C00048E0B601C7010E940D0CA82E48E0B601C7010E940D0C8C0141E0B601C7010E9485
:2032E0000D0CB82E41E0B601C7010E940D0CF82E9C81492F50E098013327241735078CF1A2
:203300009150FE01E90FF11D63896A0D6068CE01FDDC8F2D8C606B2D660F682BCE01DF916D
:20332000CF911F910F91FF90EF90DF90CF90BF90AF90ECCC8B30B8F443E0B601C7010E9410
:203340000D0C9E8191110BC060E29C819230C8F098E0682B692BE2CF8FEF860F58CF60E322
:20336000F4CF902FCECF8FE293E00E94160A0E945C0AE2CF88E693E00E94160A0E945C0A24
:2033800032CF90E0E6CF88E593E00E94160A0E945C0A64CF86E493E00E94160A0E945C0A83
:2033A0008FCFCF93DF93EC01809108048B3060F58B818093F100809108048B30E8F48C81F0
:2033C0008093F100809108048B3070F48D818093F100809108048B3018F4DF91CF9108954A
:2033E000DF91CF910C945C0A8D8190E00E94430A80E20E94F409EACF8C8190E00E94430A64
:2034000080E20E94F409DBCF8B8190E00E94430A80E20E94F409CCCF9091F3029F5F209135
:20342000F202921799F0F8940CB407FC07C078949CB590689CBD28988EBD0895E92FF0E012
:20344000EC50FD4F80839093F302789408950F931F93CF93DF93EC018C010D5F1F4F89918A
:20346000DBDFC017D107D9F7DF91CF911F910F9108951F920F920FB60F9211240BB60F9207
:203480008F939F93EF93FF93289A9091F3028091F2029817B1F0E091F202EF5FE093F2027D
:2034A0002898F0E0EC50FD4F80818EBDFF91EF919F918F910F900BBE0F900FBE0F901F9026
:2034C00018958CB58F778CBDF1CF80910804811122C08091FA0381111AC084E68093F9036B
:2034E0008FEF9FEF9093F8038093F7031092F6031092F5031092F403239884B1876084B9B3
:2035000083E58CBD289A1092F2021092F30281E08093FA03089582E694E00E94160A0E94BD
:203520005C0AD7CF8F929F92AF92BF92CF92DF92EF92FF920F931F93CF93DF93CDB7DEB776
:2035400028970FB6F894DEBF0FBECDBF8C017A016901FC0183818617C1F1A62EB12C90E082
:203560009C012F5F3F4FA216B30609F471C00296A816B90609F4CDC080910804811113C0D2
:2035800028960FB6F894DEBF0FBECDBFDF91CF911F910F91FF90EF90DF90CF90BF90AF909C
:2035A0009F908F90089587E494E00E94160AC5010E94260A8FE30E94F409F801838190E069
:2035C0000E94260A0E945C0ADBCF809108048B3008F0F0C049E0B601C7010E940D0CA82EAE
:2035E000892E48E0B601C7010E940D0CB82E41E0B601C7010E940D0C982E46E0B601C70106
:203600000E940D0C9110BBC084E88983AA82BB82CE0101961CDF83E8FFDEF801858188239F
:20362000A1F0A12CB12C0AC0F7DEFFEFAF1ABF0AF801858190E0A816B9063CF448E0B60135
:20364000C7010E940D0C8111EFCF80E0E5DE98CF809108048B3008F0B4C041E0B601C70129
:203660000E940D0C882E47E0B601C7010E940D0C982E40E1B601C7010E940D0C5C0140E1D9
:20368000B601C7010E940D0C8C0141E0B601C7010E940D0CF82E8091F903981631F087E897
:2036A000BBDE892DB9DE9092F9032091F7033091F803A216B30659F081E88983BB82AA8207
:2036C000CE010196C4DEB092F803A092F7032091F5033091F6030217130759F080E8898326
:2036E0001B830A83CE010196B2DE1093F6030093F5038091F403F81631F086E88DDE8F2DB6
:203700008BDEF092F403882009F43ACF82E884DE37CF809108048B3008F045C089E88983F5
:2037200041E0B601C7010E940D0C888749E0B601C7010E940D0C9B838A8348E0B601C701EA
:203740000E940D0C8C8349E0B601C7010E940D0C9E838D8348E0B601C7010E940D0C8F8397
:203760008E010F5F1F4F7E01F9E0EF0EF11CF80181918F0151DE0E151F05C9F701CF85E86E
:203780008983AA828B82BC82CE0101965C014E0195E0890E911CF50181915F013DDEA8149C
:2037A000B904C9F738CF82EE93E00E94160A0E945C0AB4CF87E294E00E94160A0E945C0AAE
:2037C00009CF81E094E00E94160A0E945C0A45CFCF93DF93EC01809108048B3060F58B8164
:2037E0008093F100809108048B30E8F48C818093F100809108048B3070F48D818093F100B2
:20380000809108048B3018F4DF91CF910895DF91CF910C945C0A8D8190E00E94430A80E2B2
:203820000E94F409EACF8C8190E00E94430A80E20E94F409DBCF8B8190E00E94430A80E24C
:203840000E94F409CCCFBF92CF92DF92EF92FF920F931F93CF93DF93EC018D818823D1F169
:20386000D12C16C08B2D880F880F880F8C0D0E945603F701E00FF11FEC0FFD1F82858E7F42
:203880008287809107048187D3948D81D81610F50D2D10E07801EE0CFF1CD701A00FB11F84
:2038A000AC0FBD1F18968C91B82EB694B694B6948770C82E40E0682F8B2D0E94880C8E8141
:2038C00080FDD0CF8B2D880F880F880F8C0D0E94BD03CFCF81E08093FB03DF91CF911F91C4
:2038E0000F91FF90EF90DF90CF90BF9008953F924F925F926F927F928F929F92AF92BF92C7
:20390000CF92DF92EF92FF920F931F93CF93DF93EC017B016A018D81882309F4A1C011E0BF
:20392000712C00E03324339488248394912C18C080FB40F94287809107048187842F81704F
:20394000882341F0C401062C01C0880F0A94EAF7082B712E8D8191E0910F181790F5192FD0
:2039600066246A94610E462C512C5201AA0CBB1CF501E40DF51DEC0FFD1F80850E948E023A
:203980009E8190FF03C0932D981B892F9F819923B9F2F501E40DF51DEC0FFD1F4285342FCA
:2039A0003170381749F0209107045185251B291708F0BECF832FC4CF809107048187832F2C
:2039C000BFCF823009F448C0843011F1272D30E0C901019788309105B8F0A90124E0B601CB
:2039E000C701DF91CF911F910F91FF90EF90DF90CF90BF90AF909F908F907F906F905F902A
:203A00004F903F900C94600BFC01E059FF4F2DC710E0F8013197EA30F10518F0472D50E008
:203A2000DDCFE858FF4F21C741E050E0D7CF46E050E0D4CF43E050E0D1CF45E050E0CECF8F
:203A400044E050E0CBCF48E050E0C8CF42E050E0C5CF47E050E0C2CF472D50E022E0BFCF87
:203A600020E030E0A901BACF41E050E0B7CF45E050E0B4CF42E050E0B1CF43E050E0AECFB2
:203A800046E050E0ABCF48E050E0A8CF47E050E0A5CF44E050E0A2CF0F931F93CF93DF93CF
:203AA00000D000D0CDB7DEB78C01FC0184819581909301018093000110920504109204041A
:203AC000109200041092FF0341E050E060E070E0068004C0440F551F661F771F0A94D2F728
:203AE000415051096109710949835A836B837C835093FE034093FD0380910804823038F1B2
:203B000087E894E00E94160A80910001909101010E94430A8FE794E00E94160AF801868130
:203B200090E00E94430A87E794E00E94160A8091FD039091FE030E94430A0F900F900F9083
:203B40000F90DF91CF911F910F910C945C0A0F900F900F900F90DF91CF911F910F91089567
:203B6000FB01BA014091FF03509100042091FD033091FE0342235323DC0116962C91CF0172
:203B80000C94600BCF93DF93EC018C81682F677041E08695869586950E94880C4C8150E039
:203BA000FA013D97ED30F10560F4EE57FF4F5DC61C828091B00080638093B0008E818093F2
:203BC000B40081E08093FC03DF91CF91089581E08C8380918000806C809380008E819F81A2
:203BE000909389008093880081E08093FC03DF91CF91089582E08C838091800080638093A6
:203C000080008E819F8190938B0080938A0081E08093FC03DF91CF91089583E08C83809147
:203C200080008C60809380008E819F8190938D0080938C0081E08093FC03DF91CF91089527
:203C400086E08C83809190008C60809390008E819F8190939D0080939C0081E08093FC03AE
:203C6000DF91CF91089585E08C83809190008063809390008E819F8190939B0080939A00A2
:203C800081E08093FC03DF91CF91089584E08C8380919000806C809390008E819F8190934F
:203CA00099008093980081E08093FC03DF91CF910895BF92CF92DF92EF92FF920F931F9357
:203CC000CF93DF9300D0CDB7DEB78C01CB01BA01F8012481211127C045810E940D0C9A83BE
:203CE0008983F801E680F780E816F90608F449C0B82EC92ED980209108042B3008F04BC08F
:203D0000F8018481811103C0ED18E092B4000F900F90DF91CF911F910F91FF90EF90DF904A
:203D2000CF90BF900895F80145810E940D0CF8012681378128173907D8F07901E81AF90AA0
:203D4000809108048B30D8F5F8018481833009F453C0843008F455C0853009F448C008F482
:203D60005AC08630A1F6F0929D00E0929C00CFCFC9017901E81AF90A809108048B3020F3DD
:203D80001EC0FA82E982BE2CCF2CD980209108042B3008F4B5CF87EB94E00E94160AF801E7
:203DA000848190E00E94430A8EEA94E00E94160A8B2D9C2D0E94430A0E945C0AA1CF84EA9B
:203DC00094E00E94160AF801848190E00E94430A8BE994E00E94160AC7010E94430A0E944D
:203DE0005C0AF8018481833009F0B3CF05C0F0929B00E0929A008BCFF0928D00E0928C00DC
:203E000086CF813069F0823009F081CFF0928B00E0928A007CCFF0929900E092980077CF89
:203E2000F0928900E092880072CF1F93CF93DF9316161706E4F5FC0180E090E052E00AC0CB
:203E400082309105C1F10097B1F1019635968617970769F18130910599F72081213009F472
:203E60006EC041E0218132812034310509F46EC02134310508F04CC02830310509F47CC093
:203E80002032310509F47AC02130310509F472C028E0109270004093B0002093B100238108
:203EA0002093B300019635968617970799F6DF91CF911F9108952081213009F449C010E16A
:203EC00041E1D2E1C3E1B4E1A5E1218132812034310509F449C02134310540F52130310522
:203EE00029F02830310509F041C04D2F009709F44BC010927100509390004093910010927A
:203F000092002381348130939700209396009DCF2115A1E03A07B1F12115A4E03A0781F1A0
:203F20002038310509F0B4CF2DE0B3CF211541E03407F1F021153440C9F44A2FD7CF43E0CC
:203F4000218132812034310509F092CF2CE0A1CF18E149E1DAE1CBE1BCE1ADE121813281A2
:203F60002034310509F0B7CF4C2FC0CF412FBECF4B2FBCCF29E08DCF2AE08BCF2BE089CF00
:203F80002FE087CF2EE085CF10926F005093800040938100109282002381348130938700CB
:203FA0002093860052CF1F93CF93DF93CDB7DEB7AA970FB6F894DEBF0FBECDBF1091F100EE
:203FC000109311048091F100809312048091F100809313048091F100809314048091F100A3
:203FE000809315048091F100809316048091F100809317048091F1008093180480910804E8
:204000008B3048F520911204822F90E08A30910540F4FC01E157FF4F28C41058123008F427
:204020000EC10E9448078091E80083FF0AC08091EB0080628093EB008091E800877F80938D
:20404000E800AA960FB6F894DEBF0FBECDBFDF91CF911F91089582E50E94F40980911204A7
:2040600090E00E94260A8EE20E94F4098091110490E00E94260A80E20E94F409C3CF1111D2
:20408000D0CF809108048B3008F011C180911304823048F69091E800977F9093E80080938A
:2040A0000D04D5D180910D04882309F44AC184E0809310040E942D08B6CF1D7F103809F0B0
:2040C000B0CF80911104803809F4E3C0823809F0AACF809115048093E9009091EB0095FBF5
:2040E000992790F91092E9008091E800877F8093E8009093F1001092F1008091E800982F8B
:204100009E7F9093E8008F778093E800A0D18BCF809108048B3080F0213009F4C3C084EC22
:2041200094E00E94160A8091110490E00E94430A81EC94E00E94160A1D7F09F072CF80913A
:2041400011048F7109F46EC0823009F06CCF80911304811124C020911504277009F463CF0B
:204160002093E9008091EB0080FF19C080911204833009F4E8C08091EB0080618093EB00F5
:2041800081E090E001C0880F2A95EAF78093EA001092EA008091EB0088608093EB00109249
:2041A000E9008091E800877F8093E80050D13BCF111137CF109113048091E800877F8093FF
:2041C000E80045D105C080911004882309F42BCF8091E80080FFF7CF1F7719F083E0809302
:2041E0001004812F80688093E300809108048B3008F419CF81E40E94F409812F90E00E949B
:20420000260A80E20E94F4090ECF103809F009CF8091E800877F8093E80080910D04809348
:20422000F1006BCF80911304813009F0FCCE90911204933009F080E080930C04B0CF8091B1
:2042400008048B3008F067C080911304909114048C3D23E09207A9F1AE014F5F5F4F60911C
:2042600015040E94B108009709F4DDCE2091E800277F2093E800BC0189819A8111D18091DC
:20428000E800982F9B7F9093E8008F778093E800CACE90910B0480910C04882309F424CFC5
:2042A000926022CF80ED94E00E94160A3CCF83E40E94F40980911304909114040E94260A34
:2042C000E5CE83E08A838AE28983DE01139620E03EE041E2E32FF0E040935700E49120FFDA
:2042E00003C0E295EF703F5FEF7080E38E0F8A3310F087E38E0F90E08D939D932F5F2431C1
:2043000049F78091E800877F8093E8006AE270E0CE010196B3CF84E40E94F40980911304B0
:204320009091140499270E94260A8EE20E94F4098091140490E00E94260A80E20E94F40937
:2043400083CF83E0B5CE8091EB0080628093EB0026CF8093E900EBEEF0E0808181608083CA
:20436000EDEEF0E010826093EC0040838091EE00881F8827881F0895CF93DF931092F4005B
:2043800029EE30E0E901188280EF90E0FC01108268EE70E0EB011882ADEEB0E04C914D7F04
:2043A0004C93EBEEF0E040814E7F408341E0E9014883EC011882EB0118824C914D7F4C93B9
:2043C00040814E7F408342E0E9014883EC011882EB0118824C914D7F4C9340814E7F4083CF
:2043E00043E0E9014883EC011882EB0118824C914D7F4C9340814E7F408344E0E901488326
:20440000EC011882EB0118824C914D7F4C9340814E7F408345E0E9014883EC011882EB0169
:2044200018824C914D7F4C9340814E7F408346E0E9014883EC011882EB0118828C918D7FF8
:204440008C9380818E7F8083DF91CF9108958091110487FF05C016C080911004882369F04F
:204460008091E80080FFF8CF8091E800982F9E7F9093E8008F778093E80008958091100452
:204480008823D9F38091E80082FFF8CF8091E800982F9B7F9093E8008F778093E8000895E1
:2044A00020911704309118042617370778F06115710509F040C02091E800322F3E7F309311
:2044C000E8002F772093E80020E030E040E02115310509F541110DC028C04091E80042FD1A
:2044E00024C040911004442341F14091E80040FD50C04091E80043FFF0CF81E008954091CB
:20450000E80042FD12C0409110044423B1F04091E80040FD14C04091E80043FFF0CF81E0D0
:20452000089580911004882341F08091E80082FFF8CF80E008959B01C9CF82E0089560917B
:20454000F2007091F30060347105A0F4FC0104C06034710579F0FA01AF014F5F5F4FCA01D1
:20456000E081E093F100215031096F5F7F4F2115310571F741E06034710509F040E0509136
:20458000E800652F6E7F6093E8005F775093E8009ECF6091F2007091F300ECCF73D07AD0AA
:2045A0001092100410920D0410920C0410920B0480910E0482FD08C084E189BD89B58260FA
:2045C00089BD09B400FEFDCF8091D800982F9F779093D80080688093D80080910E0481FDD9
:2045E00032C08091D70081608093D7008091D8008F7D8093D80080910E0480FD2AC080919B
:20460000E0008B7F8093E0008091E0008E7F8093E0008091E1008E7F8093E1008091E200E6
:2046200081608093E2008091E100877F8093E1008091E20088608093E2008091D80081601E
:204640008093D80008958091D7008E7F8093D700CDCF8091E00084608093E000D5CF8093D8
:204660000E04E7EDF0E080818068808397DFE8EDF0E080818061808381E080930F04789405
:2046800008950895E8EDF0E080818C7F80831092E20008951092DA001092E10008951F92BE
:2046A0000F920FB60F9211240BB60F922F933F934F935F936F937F938F939F93AF93BF93F8
:2046C000EF93FF938091DA0080FF04C08091D80080FD79C08091E10080FF04C08091E200D1
:2046E00080FD54C08091E10084FF04C08091E20084FD23C08091E10083FF04C08091E2006E
:2047000083FD78C08091E10082FF04C08091E20082FD68C0FF91EF91BF91AF919F918F9120
:204720007F916F915F914F913F912F910F900BBE0F900FBE0F901F90189580910E0482FD98
:2047400008C084E189BD89B5826089BD09B400FEFDCF8091D8008F7D8093D8008091E10027
:204760008F7E8093E1008091E2008F7E8093E2008091E20081608093E20080910D048111C6
:204780005EC083E0809310047CDFB4CF8091E1008E7F8093E1008091E2008E7F8093E200AB
:2047A0008091E20080618093E2008091D80080628093D80080910E0482FF19BC85E0809389
:2047C00010045FDF8FCF8091DA008E7F8093DA008091D90080FF2EC081E0809310040E94C3
:2047E000A90878CF8091E1008B7F8093E1000E94A80890CF8091E100877F8093E10082E0D2
:204800008093100410920D048091E1008E7F8093E1008091E2008E7F8093E2008091E200E3
:2048200080618093E200A8DD42E360E080E091DD28DF68CF109210040E9498084BCF84E036
:20484000A1CFCF9380911004882359F0C091E900C7701092E9008091E80083FD04C0C093E1
:20486000E900CF9108959FDBFACFEE0FFF1F0590F491E02D0994FB01DC0102C005900D9261
:2048800041505040D8F70895FB01DC0104C08D910190801921F441505040C8F7881B990B6A
:2048A0000895FB01DC0102C001900D9241505040D8F70895FB019F01E8944230BCF0453256
:2048C000ACF44A3029F497FB1EF4909581959F4F642F772734D0805D8A330CF0895D81930F
:2048E000CB010097A9F716F45DE251931082C90116C0F999FECF92BD81BDF89A992780B5E3
:204900000895262FF999FECF1FBA92BD81BD20BD0FB6F894FA9AF99A0FBE01960895DC01AD
:20492000FC01672F71917723E1F7329704C07C916D9370836291AE17BF07C8F30895AA1B48
:20494000BB1B51E107C0AA1FBB1FA617B70710F0A61BB70B881F991F5A95A9F780959095BF
:20496000BC01CD010895F894FFCFFFFF00FE000000000000000000000000000000000000B9
:20498000FFFFFFFFFFFFFFFFFFFFFFFFFFFFFFFFFFFFFFFFFFFFFFFFFFFFFFFFFFFFFFFF37
:2049A000FFFFFFFFFFFFFFFFFFFFFFFFFFFFFFFFFFFFFFFFFFFFFFFFFFFFFFFFFFFFFFFF17
:2049C000FFFFFFFFFFFFFFFFFFFFFFFFFFFFFFFFFFFFFFFFFFFFFFFFFFFFFFFFFFFFFFFFF7
:2049E000FFFFFFFFFFFFFFFFFFFFFFFFFFFFFFFFFFFFFFFFFFFFFFFFFFFFFFFFFFFFFFFFD7
:20E00000C004190032027001A2031200B4032900C6030900DD0348004C0054006C00880059
:20E02000AE00B800C000CC00DE00EA00FC0012013801540172019001BA01CE01D601E20141
:20E04000EC01F80108022E0204030904080344004600550018034A006F0067002000450002
:20E060006E0063006F006400650072001C0341007800690073002000530065006C006500C8
:20E08000630074006F007200260349006E006300720065006D0065006E0074002000530087
:20E0A00065006C006500630074006F0072000A0346006500650064000803520050004D00F7
:20E0C0000C03520061007000690064001203460065006500640068006F006C0064000C0302
:20E0E00053007400610072007400120348006F006C0064003200520075006E0016034B00AB
:20E10000650079002000530077006900740063006800260348006F006C006400200074004B
:20E120006F002000520075006E0020006A0075006D007000650072001C034A006F00670029
:20E14000200045006E0063006F00640065007200200032001E035300700061007200650071
:20E16000200042007500740074006F006E00200031001E0353007000610072006500200076
:20E1800042007500740074006F006E00200032002A03530070006100720065002000500019
:20E1A0006F00740065006E00740069006F006E006D00650074006500720014034800610012
:20E1C000750074006F0020004C004500440008035200650064000C0347007200650065003A
:20E1E0006E000A0342006C00750065000C0342006F00610072006400100354006F007200DD
:20E200006D00610063006800260343006F006E0073006F006C006500200043006F006E0029
:20E22000740072006F006C006C00650072000403310005010908A1010600FF0901850375DD
:20E2400020950179019122850105010938150027FFFF0000751095017902812A0501093351
:20E26000150025047503950179038122050109341500250275029501790481220501093048
:20E28000150026FF03750A95017905812205010931150026FF03750A950179068122050151
:20E2A0000932150026FF03750A950179078122050909011500250175019501790881220526
:20E2C000090901150025017501950179098122050909011500250175019501790A81220535
:20E2E0000909011500250175019501790B8122050909011500250175019501790C81220511
:20E30000010938150027FFFF000075109501790D812A050909011500250175019501790E4F
:20E320008122050909011500250175019501790F812205010940150026FF03750A95017996
:20E34000108122950175048123850205080901150025017501950179119122050809031507
:20E3600000250175019501791291220508090415002501750195017913912205080905155D
:20E380000025017501950179149122050809021500250175019501791591229501750391CC
:20E3A00023C01201100100000040D804F8ED64001617180109022900010100807A0904006E
:20E3C0000002030000000921011000012270010705810340000207050203400002FF110034
:20E3E0000008006400000800640000400064000B0104000000000000000000000000000091
:20E40000000000050900010E0D100200031D00010503010A00180000001901000020020038
:20E4200000210300001C040000031500010302010A00000000000101000002020000010662
:20E440000001280A01060001290A010600012A0A02090001100A01000002090001110A01C3
:20E46000000002090001080A01000002090001270A01000002090001260A010000050900F4
:20E48000010F0C10020002090001240A01000002090001250A010000010600012B0A06068E
:20E4A00000022F00060600021400060600021500060600021600060600021E000000000096
:20E4C00000000000000000000000000000000000000000000000000000000000000000003C
:20E4E00000000000000000000000000000000000000000000000000000000000000000001C
:20E50000FFFFFFFFFFFFFFFFFFFFFFFFFFFFFFFFFFFFFFFFFFFFFFFFFFFFFFFFFFFFFFFF1B
:20E52000FFFFFFFFFFFFFFFFFFFFFFFFFFFFFFFFFFFFFFFFFFFFFFFFFFFFFFFFFFFFFFFFFB
:020000040001F9
:20F000004BC0000066C0000064C0000062C0000060C000005EC000005CC000005AC0000005
:20F0200058C0000056C00000F0C4000052C0000050C000004EC000004CC000004AC00000A8
:20F0400048C0000046C0000044C0000042C0000041C000003EC000003CC000003AC00000A7
:20F0600038C0000036C0000034C0000032C0000030C000002EC000002CC000002AC0000008
:20F0800028C0000026C0000024C0000022C0000020C000001EC0000011241FBECFEFD0E29C
:20F0A000DEBFCDBF11E0A0E0B1E0EAECFDEF01E00BBF02C007900D92A236B107D9F711E06F
:20F0C000A2E6B1E001C01D92AF37B107E1F743D37AC696CF1F920F920FB60F9211240F90EA
:20F0E0000FBE0F901F901895282F17C08091F2009091F300892B71F48091E8008B7F8093D4
:20F10000E80003C08EB3882351F08091E80082FFF9CF02C08091F1002150222339F708958E
:20F12000209171013091700180916F0190916E018093630190936401C90180936501909304
:20F14000660108951F93809169018823D9F080916C01843049F480916D01882339F4809133
:20F160006E018F3F19F40EC0853061F08AE08093000183E0809368018091EB008062809323
:20F18000EB00E3C080916C01843009F45EC0853030F4813059F0833009F0D7C022C08530E7
:20F1A00009F4B4C0863009F0D0C0C3C010916D01123008F0CAC0B4DF112389F48091630190
:20F1C00090916401A0916701B0E023E0FC01A0935B0020935700E89507B600FCFDCF85E081
:20F1E00008C080916D01882311F0823029F498DF89E080930001A9C0813009F0A6C020E0E0
:20F2000030E040E050E04BBFF90187918F3F81F0CA01AA27BB27809367013093640120935F
:20F2200063018AE08093000185E0809368018DC02F5F3F4F4F4F5F4F203080EF380781E0F7
:20F24000480780E05807F9F680C080916D01833051F581E080936201809172019091730109
:20F26000892B71F080916E01813009F06EC0809171019091700190936B0180936A0165C0DA
:20F2800080916E01882361F42CE088E190E00FB6F894A895809360000FBE2093600055C013
:20F2A0001092010152C0882309F04FC080916E018F3F09F04AC080E090E0A0E0B0E033E0A1
:20F2C00025E0FC01A0935B0030935700E89507B600FCFDCFFC01A0935B0020935700E89570
:20F2E00007B600FCFDCF80509F4FAF4FBF4F803040EF940741E0A40740E0B40711F781E134
:20F3000080935700E895109269011FC0E0916E0180916D01882321F4F0E0EB5FFE4F05C0D0
:20F32000813099F4F0E0EE52FF4F8081809374010CC080916D01833041F480916E0188234A
:20F3400021F480916F01809367011F9108958F929F92AF92BF92CF92DF92EF92FF920F93E5
:20F360001F93CF93DF93809177018F77813209F0E5C1C0917D01D0917E01D0937301C0934D
:20F38000720180917801833009F4A2C1843030F4813071F0823009F0D1C106C1853009F4BD
:20F3A000B5C1853008F4AAC1863009F0C7C1BDC18091E800877F8093E800809162018823ED
:20F3C00019F0C0DE10926201209729F42DC08EB3882309F4B3C18091E80082FFF8CF809111
:20F3E000F10080936C019E01215030403093730120937201EDE6F1E00CC08091F100819339
:20F400002150304081E0E237F80719F4318320830AC08091F2009091F300892B71F730936E
:20F420007301209372018EDE80910001853009F0B7C08091720190917301892B21F482E04B
:20F4400080930001ADC08AE14FDEC0916301D09164019E012F71822F47DEA0906501B0902D
:20F4600066010894A11CB11C85010C1B1D0B0894A108B10880916D01882309F08CC0680154
:20F48000D694C794CE01A0916701B0E07C018D01A8019701A0E08824839465E0962EB3E084
:20F4A00047C08091F2009091F300892B71F48091E8008B7F8093E80004C08EB3882309F46A
:20F4C0003DC18091E80082FFF8CF0894C108D1088091F100682F8091F100782F0B01F90167
:20F4E00040935B0080925700E8951124AF5F2E5F3F4F4F4F5F4FA03819F0C114D104C1F40E
:20F50000F70100935B0090925700E89507B600FCFDCFC114D10461F0F90140935B00B09324
:20F520005700E89507B600FCFDCF79018A01A0E0C114D10409F0B5CFB0926401A092630189
:20F5400081E180935700E89529C08091F2009091F300892B71F48091E8008B7F8093E8004B
:20F5600004C08EB3882309F4E9C08091E80082FFF8CF6091F100809163019091640115D42E
:20F580008091630190916401019690936401809363010150104001151105B9F680E1A4DD7C
:20F5A0008091E8008B7FBEC08091E800877F8093E80004C08EB3882309F4C0C08091E800AA
:20F5C00080FFF8CF80910001893091F08A3069F480916D01813049F480916301909164011A
:20F5E0008093F1009093F1009AC08091740195C060916501709166012091630130916401C4
:20F600006F5F7F4FEB01C21BD30B6150704080916D01882389F5D695C795C901A091670174
:20F62000B0E09C01AD0121C08091F2009091F300809771F48091E8008E7F8093E80004C0B6
:20F640008EB3882309F47AC08091E80080FFF8CF4BBFF901879196918093F1009093F100ED
:20F6600021972E5F3F4F4F4F5F4F2097E9F6709364016093630128C0823031F523C0809162
:20F68000F2009091F300809771F48091E8008E7F8093E80004C08EB3882309F44FC080911A
:20F6A000E80080FFF8CF0091630110916401C80174D38093F1000F5F1F4F10936401009396
:20F6C000630121972097D9F682E08093000127C08091E800877F8093E800809168018093A4
:20F6E000F1001092F1001092F1001092F100809100018093F1001092F10011C08091E800ED
:20F70000877F8093E8001092680117C08091E800877F8093E800809100018093F1008091E5
:20F72000E8008E7F8093E80008C08091E800877F8093E80082E080930001D6D0DF91CF912B
:20F740001F910F91FF90EF90DF90CF90BF90AF909F908F9008951F9384B7877F84BF88E165
:20F760000FB6F89480936000109260000FBE80E090E020E80FB6F894209361008093610045
:20F780000FBE11E015BF82E085BF29D110936F0083E080938100789401C0F6D28091010186
:20F7A0008823D9F7809162018823B9F7BCD081E085BF15BEE0916A01F0916B0109959B01F8
:20F7C000AC0107B600FCFDCFF999FECF83E0F90140935B0080935700E89581E1809357005A
:20F7E000E89508959B01AC0107B600FCFDCFF999FECF85E0F90140935B0080935700E8954E
:20F8000081E180935700E89508950F931F938B019C0107B600FCFDCFF999FECF81E00A0135
:20F82000F80120935B0080935700E89511241F910F91089521E2FC01209357002491822F48
:20F84000089529E0FC01209357002491822F0895E1E0F0E089E08093570084910895982F1B
:20F8600007B600FCFDCFF999FECF909589E0E1E0F0E0092E80935700E8950895FA0192300D
:20F8800071F0933089F0913029F488E091E022E130E015C080E090E020E030E010C08AE111
:20F8A00091E02BE130E00BC0882329F485E391E024E030E004C089E391E026E230E091836E
:20F8C0008083C90108958091EB0081608093EB001092ED006093EC004093ED008091EE00B6
:20F8E000881F8827881F08958091770188238CF403C08EB38823B1F08091E80082FFF9CF28
:20F900008091E8008B7F8093E80008958EB3882349F08091E80080FFF9CF8091E8008E7FE1
:20F920008093E800089564D06BD0E0EEF0E0808181608083A8EDB0E08C918F778C9319BC01
:20F94000E7EDF0E080818E7F80838C918F7E8C93109276010895EF92FF920F931F9348D075
:20F960004FD008ED10E0F80180818F77808380818068808380818F7D8083E7EDF0E08081DF
:20F980008068808319BC1EBA1092750180EEE82EF12CF70180818B7F8083F8018081816035
:20F9A000808380E060E042E28EDFE1EEF0E080818E7F8083E2EEF0E08081816080838081DD
:20F9C00088608083F70180818E7F8083F8018081806180831F910F91FF90EF900895E7ED86
:20F9E000F0E080818160808381E080937601B3CFE8EDF0E080818C7F80831092E200089510
:20FA00001092DA001092E10008951F920F920FB60F920BB60F9211242F933F934F935F9393
:20FA20006F937F938F939F93AF93BF93EF93FF938091DA0080FF1BC08091D80080FF17C032
:20FA40008091DA008E7F8093DA008091D90080FF0BC084E189BD86E189BD09B400FEFDCFAE
:20FA600081E08EBB90D103C019BC1EBA8CD18091E10080FF17C08091E20080FF13C0809110
:20FA8000E2008E7F8093E2008091E20080618093E2008091D80080628093D80019BC85E0C9
:20FAA0008EBB71D18091E10084FF2CC08091E20084FF28C084E189BD86E189BD09B400FEE9
:20FAC000FDCF8091D8008F7D8093D8008091E1008F7E8093E1008091E2008F7E8093E20092
:20FAE0008091E20081608093E20080917501882331F48091E30087FD02C081E001C084E026
:20FB00008EBB41D18091E10083FF21C08091E20083FF1DC08091E100877F8093E10082E095
:20FB20008EBB109275018091E1008E7F8093E1008091E2008E7F8093E2008091E2008061A8
:20FB40008093E20080E060E042E2BDDE1CD1FF91EF91BF91AF919F918F917F916F915F9174
:20FB60004F913F912F910F900BBE0F900FBE0F901F9018959C0140917D0150917E0146179D
:20FB8000570718F4F90190E03CC06115710511F0AB01F8CF8091E8008E7F8093E80040E014
:20FBA00050E0F0CF8EB38823E9F18530E9F18091E80083FF02C081E008958091E80082FD4E
:20FBC0002BC08091E80080FF1CC02091F2003091F30007C081918093F100415050402F5F03
:20FBE0003F4F4115510519F02032310598F390E02032310509F491E08091E8008E7F809330
:20FC0000E8004115510571F6992361F605C08EB3882341F0853041F08091E80082FFF7CFCE
:20FC200080E0089582E0089583E008950F931F93DF93CF9300D0CDB7DEB7E7E7F1E0809107
:20FC4000F100819381E0EF37F807C9F780DB8091E80083FF83C09091770180917801863067
:20FC600081F1873020F4853009F078C007C0883009F447C0893009F071C055C0992309F031
:20FC80006DC0109179011F770FB7F8948091E800877F8093E80028DE8091E80080FFFCCFF1
:20FCA0008091E3008078812B8093E30080688093E300112311F482E001C083E08EBB0FBF02
:20FCC0004DC09058923008F049C08091790190917A0160917B01AE014F5F5F4FCFDDBC0164
:20FCE000009709F43BC08091E800877F8093E80089819A813FDF8091E8008B7F8093E8003A
:20FD00002DC0903859F58091E800877F8093E800809175018093F1008091E8008E7F809342
:20FD2000E800E2DD1BC09923C9F4909179019230A8F48091E800877F8093E800909375013C
:20FD4000D3DD80917501882331F48091E30087FD02C081E001C084E08EBB15D08091E800B5
:20FD600083FF0AC08091EB0080628093EB008091E800877F8093E8000F900F90CF91DF9153
:20FD80001F910F91089508958EB3882329F08091E80083FF01C04ACF0895F999FECF92BD34
:20FDA00081BDF89A992780B50895262FF999FECF1FBA92BD81BD20BD0FB6F894FA9AF99A72
:20FDC0000FBE01960895F894FFCF02011E978220DCFB1201100100000020EB03FB2F00003B
:20FDE0000001000109021B0001010080320904000000FE0102000921030000000C000104DB
:20FE000003090426034100560052002000440046005500200042006F006F0074006C006F32
:20FE2000006100640065007200000000FFFFFFFFFFFFFFFFFFFFFFFFFFFFFFFFFFFFFFFF3A
:20FE4000FFFFFFFFFFFFFFFFFFFFFFFFFFFFFFFFFFFFFFFFFFFFFFFFFFFFFFFFFFFFFFFFC2
:20FE6000FFFFFFFFFFFFFFFFFFFFFFFFFFFFFFFFFFFFFFFFFFFFFFFFFFFFFFFFFFFFFFFFA2
:20FE8000FFFFFFFFFFFFFFFFFFFFFFFFFFFFFFFFFFFFFFFFFFFFFFFFFFFFFFFFFFFFFFFF82
:20FEA000FFFFFFFFFFFFFFFFFFFFFFFFFFFFFFFFFFFFFFFFFFFFFFFFFFFFFFFFFFFFFFFF62
:20FEC000FFFFFFFFFFFFFFFFFFFFFFFFFFFFFFFFFFFFFFFFFFFFFFFFFFFFFFFFFFFFFFFF42
:20FEE000FFFFFFFFFFFFFFFFFFFFFFFFFFFFFFFFFFFFFFFFFFFFFFFFFFFFFFFFFFFFFFFF22
:20FF0000FFFFFFFFFFFFFFFFFFFFFFFFFFFFFFFFFFFFFFFFFFFFFFFFFFFFFFFFFFFFFFFF01
:20FF2000FFFFFFFFFFFFFFFFFFFFFFFFFFFFFFFFFFFFFFFFFFFFFFFFFFFFFFFFFFFFFFFFE1
:20FF4000FFFFFFFFFFFFFFFFFFFFFFFFFFFFFFFFFFFFFFFFFFFFFFFFFFFFFFFFFFFFFFFFC1
:20FF6000FFFFFFFFFFFFFFFFFFFFFFFFFFFFFFFFFFFFFFFFFFFFFFFFFFFFFFFFFFFFFFFFA1
:20FF8000FFFFFFFFFFFFFFFFFFFFFFFFFFFFFFFFFFFFFFFFFFFFFFFFFFFFFFFFFFFFFFFF81
:20FFA000FFFFFFFFFFFFFFFFFFFFFFFFFFFFFFFFFFFFFFFFFFFFFFFFFFFFFFFFFFFFFFFF61
:20FFC000FFFFFFFFFFFFFFFFFFFFFFFFFFFFFFFFFFFFFFFFFFFFFFFFFFFFFFFFFFFFFFFF41
:20FFE000EECB00CC12CC26CC2CCC32CC38CC00000000000000000000000000000000FBDCDB
:020000040002F8
:00000001FF
