:0400000035EF00F0E8
:100008005782D9CF06F0DACF07F0000E086E9EB2FD
:10001800A9EC07F0A3BAA4AA1ED08F0E056EC2ECF5
:1000280009F00009D8A40BD08F0E016E74CF02F02E
:1000380057EC08F08B80F80E8B16FC0E8B1671A20D
:1000480004D0719871888B82082A71A404D0719E9B
:10005800718E8B84082A07C0DAFF06C0D9FF579231
:1000680011007EEF08F0000E436E000E446E000E85
:10007800456E20EE33F0040EDE6AE806FDE220EE5F
:1000880038F0040EDE6AE806FDE220EE2EF0040EDB
:10009800DE6AE806FDE2000E406E000E3F6E3FC0CD
:1000A80041F040C042F02BC009F078EC09F009C0DB
:1000B8003DF00AC03EF03EBE15D03E5004E1110EA0
:1000C8003D5CD8A00FD00E0E156E1F0E166E3DC0EB
:1000D80017F03EC018F018EC03F0000E2C6E010E5D
:1000E8002B6E12002B50D96EDA6ADF50436E2B50FC
:1000F800D96EDA6A010ED926DF50446E000E456EBD
:10010800560E4318D8A429D0450E4418D8A425D093
:100118002CC0D9FF2DC0DAFF000EDF6E20EE01F0F3
:100128002C50D9262D50DA22030EDF6E20EE03F074
:100138002C50D9262D50DA22000EDF6E20EE04F066
:100148002C50D9262D50DA22000EDE6E000EDD6E00
:10015800000E2C6E000E2B6E1200310E4318D8A420
:100168003AD02B0E4418D8B404D02D0E4418D8A475
:1001780032D020EE01F02C50D9262D50DA22040E70
:10018800DF6E20EE03F02C50D9262D50DA22010E16
:10019800DF6E2B0E4418D8A40DD020EE04F02C509E
:1001A800D9262D50DA22010EDE6E000EDD6E51804A
:1001B8008B840DD020EE04F02C50D9262D50DA2255
:1001C800000EDE6E000EDD6EF80E8B16519051504B
:1001D800070B896EBDD7320E4318D8A437D02B0E23
:1001E8004418D8B404D02D0E4418D8A42FD020EE2B
:1001F80001F02C50D9262D50DA22040EDF6E20EEA5
:1002080003F02C50D9262D50DA22020EDF6E2B0E69
:100218004418D8A40DD020EE04F02C50D9262D5027
:10022800DA22010EDE6E000EDD6E51828B82CFD790
:1002380020EE04F02C50D9262D50DA22000EDE6E66
:10024800000EDD6E5192FC0E8B16C1D7330E43188B
:10025800D8A436D02B0E4418D8B404D02D0E441888
:10026800D8A42ED020EE01F02C50D9262D50DA2219
:10027800040EDF6E20EE03F02C50D9262D50DA2222
:10028800030EDF6E2B0E4418D8A40DD020EE04F018
:100298002C50D9262D50DA22010EDE6E000EDD6EAE
:1002A80051848B8094D720EE04F02C50D9262D5001
:1002B800DA22000EDE6E000EDD6E51948B9087D729
:1002C800570E4318D8A4F5D0530E4418D8A4F1D02B
:1002D8000E0E3D183E10D8B411D0880E156E1F0EA4
:1002E800166E430E176E000E196E0E0E186E18EC71
:1002F80003F0000E2C6E020E2B6E12002B50D96EDE
:10030800DA6A020ED926DF50336E2B50D96EDA6ABC
:10031800030ED926DF50346E2B50D96EDA6A040EDC
:10032800D926DF50356E2B50D96EDA6A050ED926DC
:10033800DF50366E000E376E330E0F6E4AEC07F044
:100348000FC046F010C047F047BE07D047BE14D0D4
:10035800475003E14628D8A00FD0B40E156E1E0EE4
:10036800166E46C017F047C018F018EC03F0000EE0
:100378002C6E030E2B6E12002B50D96EDA6A060E05
:10038800D926DF50386E2B50D96EDA6A070ED92677
:10039800DF50396E2B50D96EDA6A080ED926DF5035
:1003A8003A6E2B50D96EDA6A090ED926DF503B6EA9
:1003B800000E3C6E380E0F6E4AEC07F00FC041F08D
:1003C80010C042F042BE06D0425006E1320E415CF7
:1003D800D8B002D042AE0FD0E10E156E1E0E166ECA
:1003E80046C017F047C018F018EC03F0000E2C6E4A
:1003F800040E2B6E12002B50D96EDA6A0A0ED9261B
:10040800DF502E6E2B50D96EDA6A0B0ED926DF50CC
:100418002F6E2B50D96EDA6A0C0ED926DF50306E4B
:100428002B50D96EDA6A0D0ED926DF50316E000EC8
:10043800326E2E0E0F6E4AEC07F00FC03FF010C060
:1004480040F040BE04D0040E405CD8B002D040AEAC
:100458000FD03A0E156E1F0E166E3FC017F040C033
:1004680018F018EC03F0000E2C6E050E2B6E12001F
:100478002CC0D9FF2DC0DAFF46C0DFFF20EE01F007
:100488002C50D9262D50DA22000EDF6E20EE03F014
:100498002C50D9262D50DA2241C0DFFF20EE04F07F
:1004A8002C50D9262D50DA223FC0DEFF40C0DDFF98
:1004B8004FD6520E4318D8A4AED0530E4418D8A421
:1004C800AAD00A0E3D183E10D8B411D0880E156E69
:1004D8001F0E166E430E176E000E196E0A0E186E5A
:1004E80018EC03F0000E2C6E060E2B6E12002B502B
:1004F800D96EDA6A020ED926DF50336E2B50D96EC8
:10050800DA6A030ED926DF50346E2B50D96EDA6AB8
:10051800040ED926DF50356E2B50D96EDA6A050ED7
:10052800D926DF50366E000E376E330E0F6E4AEC4A
:1005380007F00FC046F010C047F047BE07D047BECF
:1005480014D0475003E14628D8A00FD0790E156E75
:100558001E0E166E46C017F047C018F018EC03F0D0
:10056800000E2C6E070E2B6E12002B50D96EDA6A15
:10057800060ED926DF50386E2B50D96EDA6A070E70
:10058800D926DF50396E2B50D96EDA6A080ED92673
:10059800DF503A6E2B50D96EDA6A090ED926DF5031
:1005A8003B6E000E3C6E380E0F6E4AEC07F00FC023
:1005B80041F010C042F042BE06D0425006E1320E71
:1005C800415CD8B002D042AE0FD03D0E156E1E0E63
:1005D800166E46C017F047C018F018EC03F0000E6E
:1005E8002C6E080E2B6E12002CC0D9FF2DC0DAFF1E
:1005F80046C0DFFF20EE01F02C50D9262D50DA221C
:10060800010EDF6E20EE03F02C50D9262D50DA2291
:1006180041C0DFFF93D5AA0E156E1F0E166E430E4E
:10062800176E18EC03F059D5170E206E7CD1250EE5
:100638002818D8B404D0285055EC09F074D1000E0D
:100648002A6E000E296E000E276E03D02784154AE5
:10065800162A15C0F6FF16C0F7FF0800F550300A35
:10066800D8B4F4D715C0F6FF16C0F7FF0800F55048
:1006780089EC09F0D8A09DD0000E2A6E000E296ED4
:1006880029C009F02AC00AF0000E0C6E0A0E0B6E83
:1006980030EC09F009C029F00AC02AF0D00E1B6E10
:1006A800FF0E1C6E15C0F6FF16C0F7FF0800F550C8
:1006B8001D6E1E6A1B501D261C501E221D50292609
:1006C8001E502A22154A162A15C0F6FF16C0F7FF33
:1006D8000800F55089EC09F0D8A06BD0D1D720508C
:1006E800D96EDA6ADF501B6E1BC021F0226A202AFD
:1006F80021502210D8A404D0F40E216E1F0E226EB1
:10070800000E266E000E256E02D0254A262A255098
:1007180021241B6E265022201C6E1BC0F6FF1CC015
:10072800F7FFF86A010EF76403D00800F55005D00A
:10073800F6CFE1FFF7CFE2FFE7500009D8A4E5D7ED
:100748002950255C2A502658D8B005D02550295E56
:1007580026502A5A08D0000E2A6E000E296E03D0A1
:10076800200E55EC09F02906D8A02A062928F8E118
:100778002A28D8B415D0F4D721C0F6FF22C0F7FF35
:10078800F86A010EF76403D00800F55005D0F6CFDB
:10079800E1FFF7CFE2FFE75055EC09F0214A222AA2
:1007A8002506D8A026062528E7E12628D8B4BBD0F8
:1007B800E3D715C0F6FF16C0F7FF154A162A08003A
:1007C800F5CF28F02850000AD8B41200640AD8B42B
:1007D80007D00D0AD8B404D01A0AD8B480D7A3D049
:1007E8002050D96EDA6ADECF23F0DDCF24F0020E76
:1007F800202624AE06D0030E2712236C241ED8B060
:10080800242A010E286E2850020D330EF324F66EAA
:100818001E0EF420F76E0900F550235C0900F55010
:100828002458D8A005D0282A050E2818D8A4EBD714
:1008380029502A10D8B409D027C01BF0030E1B1664
:10084800D8B403D02906D8A02A0628501B6E1C6AE3
:1008580029501B5C1C50800A1D6E2A50800A1D58A6
:10086800D8B005D02850295E000E2A5A04D0000EB0
:100878002A6E000E296E27A414D027C01BF0030E81
:100888001B16D8B403D02D0E55EC09F029502A10A8
:10089800D8B41ED0300E55EC09F02906D8A02A0687
:1008A800F5D729502A10D8B40AD0200E55EC09F0F3
:1008B8002906D8A02A0629502A10D8A4F6D727C076
:1008C8001BF0030E1B16D8B403D02D0E55EC09F0FF
:1008D80028C01FF024D01F50020D330EF324F66EEB
:1008E8001E0EF420F76E0900F5CF0BF00A00F5CFC5
:1008F8000CF023C009F024C00AF006EC08F009C087
:1009080010F00AC011F0000E136E0A0E126EA3EC5E
:1009180008F01050300F286E285055EC09F01F06CB
:100928001F28D8A4D8D715C0F6FF16C0F7FF154A58
:10093800162A0800F5CF28F02850D8B4120077D628
:10094800000E1E6E49504A10D8B41200FE0E010166
:100958000219D8A409D0000E566E010E556E000E6D
:100968004A6E000E496E120055505610D8A404D095
:10097800000E526E060E536EA00E52240D6E0E6AB5
:10098800010E0E225250535C0F6E106AD8A010064A
:10099800DBEC07F00D501D6E1D5052265350525C73
:1009A800D8B016D014EC0AF009040A10D8A410D054
:1009B8005250D8A404D0000E566E060E03D0000E76
:1009C800566E070E556E000E4A6E000E496E1200E6
:1009D800000E206E31D0A00E2024D96EDA6A010EE6
:1009E800DA22DE28D8A409D0A10E2024D96EDA6A2A
:1009F800010EDA22DE28D8B437D02050166E176AD6
:100A0800FE0E186EFF0E196E52501A6E1B6A1850A1
:100A18001A2619501B2216501A180DE117501B18C8
:100A2800D8A409D09F0E5224D96EDA6A010EDA22B0
:100A3800DE28D8B419D0202AFF0E166EFF0E176EC6
:100A48005250186E196A165018261750192220503D
:100A58001A6E1B6A18501A5C1B50800A1C6E1950BB
:100A6800800A1C58D8A0B7D72050D8B430D0000E70
:100A78001F6E17D0A00E166E010E176E1F50162689
:100A8800000E172220501624D96E000E1720DA6E99
:100A9800A00E1F24E16EE26A010EE222DFCFE7FF1B
:100AA8001F2A205052C016F0176A165E000E175AF9
:100AB8001F50186E196A1650185C1950800A1A6E61
:100AC8001750800A1A58D8A0D5D72050525E5350D4
:100AD800525CD8B005D0000E566E050E556E120049
:100AE8000101A2510219D8B409D0000E566E070EA2
:100AF800556E000E4A6E000E496E1200A351040F87
:100B0800536E5350525CD8B016D0A00E52240D6EBE
:100B18000E6A010E0E225250535C0F6E106AD8A056
:100B28001006DBEC07F00D501D6E1D505226535079
:100B3800525CD8A0D0D7000E206E09D0A20E202477
:100B4800D96EDA6A010EDA22DF501E26202A010148
:100B5800A351166E176A010E1626000E1722205092
:100B6800186E196A1650185C1950800A1A6E1750B8
:100B7800800A1A58D8A0E2D71E1EA30EA325D96E44
:100B8800DA6A010EDA221E50DE18D8A4AED7E3D6F0
:100B980020EEAAF0100EDE6AE806FDE2000E000163
:100BA800BE6F8F0E096E03EC09F0F80E9416F80E5E
:100BB8009216939ACFEC09F006EC0AF0000E0A6E32
:100BC800100E096EE4EC09F0000E0A6E000E096EB4
:100BD800DBEC09F02CEC0AF0AA0E0001BB6F8B903D
:100BE800F80E8B16FC0E8B16C00E8A168990FC0E1A
:100BF8008916F80E8916EA0E156E1F0E166E18EC79
:100C080003F08B80A0D00D0EBD19D8B404D0100EFF
:100C1800BE19D8A488D0BE51AA0FD96EDA6A000EC0
:100C2800DF6E000EBE6FBBC02BF0000E2C6E000EE8
:100C38002D6E37EC00F02B500001BC6FBC51D8B4BE
:100C480007D0000E0A6E320E096EEDEC09F072D074
:100C5800030E0118D8A407D0CA0E156E1F0E166E03
:100C680018EC03F067D0040E0118D8A407D0FB0EC7
:100C7800156E1F0E166E18EC03F05CD00150D8B438
:100C880023D03DD020EE00F0DF50486E4850216E52
:100C9800226A03C023F0246A04C025F005C026F0A8
:100CA800C4EC08F025D020EE00F0DF50486E485024
:100CB800216E226A03C023F0246A04C025F005C00F
:100CC80026F043EC09F014D00350060AD8B4DAD75A
:100CD800010AD8B4D7D7090AD8B4D4D7100AD8B4D7
:100CE800D1D73E0AD8B4CED7020AD8B4CBD7DBD7EF
:100CF800FB0E156E1F0E166E18EC03F01BD00104C8
:100D0800D8A418D0650E156E1F0E166E20EE00F0D2
:100D1800DF50486E4850176E186A03C019F01A6AF7
:100D280018EC03F007D0BE51AA0FD96EDA6ABDC01D
:100D3800DFFFBE2BABA207D08B82AB98AB88AE503F
:100D4800AE50FC0E8B1630EC0AF00001BD6FBD51A1
:100D5800D8B457D758D7000E176E49044A10D8B4DC
:100D68001200000E4A6E010E496E980E036509D0F6
:100D7800000E566E040E556E000E4A6E000E496E39
:100D880012000405D8B418D0020E0419D8B414D02F
:100D9800030E0419D8B410D0040E0419D8B40CD01A
:100DA800050E0419D8B408D0060E0419D8B404D016
:100DB800830E0419D8A4DCD700690169000E196EE6
:100DC80009D0020E1924D96EDA6A010EDA22DF5030
:100DD8001726192A0351116E126A010E1126000EE8
:100DE80012221950136E146A1150135C1450800AA1
:100DF800156E1250800A1558D8A0E3D7030E0325A4
:100E0800D96EDA6A010EDA221750FF0ADF6E060E73
:100E180055185610D8B404D0070E55185610D8B423
:100E280067EC09F00351040F186E000E0A6E010EEC
:100E38000B6E18C00CF00D6AE4EC08F00A50166E40
:100E480016501818D8B409D0000E566E020E556EFA
:100E5800000E4A6E000E496E1200020E01010419BE
:100E6800D8A409D0060E06250B6E0C6A000E0C22BB
:100E78000DEC0AF006D0000E0C6E060E0B6E0DEC93
:100E88000AF0000E566E000E556E120001D00F2AA1
:100E98000F50D96EDA6A200EDE18D8B4F8D70F5082
:100EA800D96EDA6A090EDE18D8B4F1D7000E156EBD
:100EB800000E146E000E136E0F50D96EDA6A2D0EE6
:100EC800DE18D8A402D0132A07D00F50D96EDA6AD8
:100ED8002B0EDE18D8A41CD00F2A1AD014C009F083
:100EE80015C00AF0000E0C6E0A0E0B6E30EC09F0FD
:100EF8000F50D96EDA6ADF50116E11500926000EB4
:100F08000A22D00E0924146EFF0E0A20156EE4D7AB
:100F18000F50D96EDA6ADF5089EC09F0D8B0DED705
:100F28001350D8B40DD014C011F015C012F0111E12
:100F3800121E114A122A11C00FF012C010F012002E
:100F480014C00FF015C010F012004D504E10D8B458
:100F580003D04D06D8A04E064B504C10D8B403D041
:100F68004B06D8A04C0600018B518C11D8B403D085
:100F78008B07D8A08C074F505010D8A413D0895194
:100F88008A11D8B403D08907D8A08A078751881155
:100F9800D8B403D08707D8A08807030E506EE80E90
:100FA8004F6E03D04F06D8A050069E9212008F0EA7
:100FB800096EA6EC09F009C012F00AC013F0000E81
:100FC800156E000E146E0FD08F0E096E2FEC08F000
:100FD800116E14500D24D96E15500E20DA6E11C002
:100FE800DFFF144A152A1250145C1550800A116E3E
:100FF8001350800A1158D8A0E7D712C00DF013C0BB
:101008000EF01200000E0E6E000E0D6E0B500C103E
:10101800D8B41CD0010E0F6E04D0D8900B360C3605
:101028000F2A0CAEFAD7D8900D360E360B50095C45
:101038000C500A58D8A005D00B50095E0C500A5A1B
:101048000D80D8900C320B320F2EEDD70DC009F061
:101058000EC00AF012000950D96EDA6A110ED926AC
:10106800DF50D96EDA6ADF500B6E0950D96EDA6A32
:10107800110ED926DF2ADF500A6E0950100F0A1800
:10108800D8A407D00950D96EDA6A110ED92609C03A
:10109800DFFF0950D96EDA6A120ED926DE06000E75
:1010A800DD5A0B5012000150D96EDA6A100ED9269B
:1010B800DF50D96EDA6A02C0DFFF0150D96EDA6AF2
:1010C800100ED926DF2ADF50036E0150100F0318C7
:1010D800D8A407D00150D96EDA6A100ED92601C0FB
:1010E800DFFF0150D96EDA6A120ED926DE2A000E09
:1010F800DD221200680EF66E140EF76E000EF86E02
:101108000900F5CF55F00900F5CF56F001EE00F0D3
:10111800E60EEE6AE806FDE100EE60F0430EEE6AC8
:10112800E806FDE100EE49F00C0EEE6AE806FDE186
:1011380057905792000EF86E0001CCEF05F0125050
:101148001310D8B418D0010E146E04D0D8901236EB
:101158001336142A13AEFAD71250105C13501158D4
:10116800D8A004D01250105E1350115AD8901332E0
:101178001232142EF1D710C010F011C011F0120065
:1011880049504A10D8A4FCD721C002F1030E01012E
:10119800046F23C005F125C009F026C00AF0F6EC5B
:1011A80009F00950066F25C009F026C00AF098EC2E
:1011B80009F00950076F050E036F1BEC09F01200C8
:1011C800000E106E000E0F6E0BD00AC0D9FF0BC0B8
:1011D800DAFFDF501BEC0AF00A4A0B2A0F4A102AE2
:1011E8000C500F5C1050800A0E6E0D50800A0E587D
:1011F800D8A0EBD70CC00AF00DC00BF012000950B4
:10120800D96EDA6A100ED92609C0DFFF0950D96EE7
:10121800DA6A110ED92609C0DFFF0950D96EDA6AD9
:10122800120ED926000EDE6E000EDD6E12008A8ABE
:10123800AFEC06F0000E0A6E010E096EEDEC09F037
:10124800C00E8A16555004D0A4EC04F0050E5518AB
:101258005610D8A41200F8D709500B02F3CF0DF09E
:10126800F4CF0EF009500C02F3500E260A500B0270
:10127800F3500E260DC009F00EC00AF012004950B6
:101288004A10D8A4FCD721C002F1030E0101046F53
:1012980023C005F125C006F1040E036F1BEC09F00D
:1012A80012000A6E08D00A5021EC0AF012000A5007
:1012B8001BEC0AF012005450000AD8B4F4D7010A03
:1012C800D8A41200F4D7000E0B6E000E0A6E7450EC
:1012D8000A4A0B2A0BBEFBD70B5005E1030E0A5C2A
:1012E800D8B01200F4D7120009C00BF001D00B2AB5
:1012F8000B50D96EDA6ADF50D8A4F9D709500B5CC5
:10130800096E0A6A09BE0A0612000B6E000E0A6E02
:101318003A0E0B6005D02F0E0B6402D0010E0A6E38
:101328000AC009F009301200000E09140B6EFF0EF6
:101338000A140C6E0CC00BF00C6A0BC009F00CC040
:101348000AF012000950D96EDA6A120ED926DECFD9
:101358000BF0DDCF0CF00BC009F00CC00AF0120046
:101368000150D96EDA6A120ED926DECF03F0DDCF2E
:1013780004F003C001F004C002F0120005C001F03F
:10138800B4EC09F0100E01180210D8A402D0010E16
:101398001200000E1200740ED36EC00E946EC00EB2
:1013A800936E230E0F01386F000E3A6F1200400E35
:1013B800706E09C075FF240E726E900E716E120069
:1013C800400EB86E09C0AFFF240EAC6E900EAB6E27
:1013D800120009C04DF00AC04EF04D504E10D8B45E
:1013E8001200FBD709500B6E0C6A0BC009F00CC039
:1013F8000AF012004B504C10D8A402D0010E120073
:10140800000E12009E92FA0EBB6E060EBA6E9D82F8
:101418001200000E0A6E010E096E27EC0AF0120087
:10142800FEEC09F00B6E0B50096E0A6A1200096E89
:10143800A4A8FED709C073FF1200096E9EA8FED7A4
:1014480009C0ADFF120009C04BF00AC04CF01200F1
:10145800D08EF286F28E12009EAAFED7AE501200EF
:02146800010081
:101E32000001000A006400E8031027585265676930
:101E42007374657220496E707574204572726F7278
:101E52003A207265676973746572205B25645D2040
:101E6200206D757374206265203E20302026262066
:101E72003C2034390D0A0058416464726573732042
:101E8200496E707574204572726F723A2061646493
:101E920072657373205B25645D20206D75737420F9
:101EA2006265203E2030202626203C203235340D2B
:101EB2000A00584572726F723A20616464726573E7
:101EC20073205B25645D20206D757374206265202C
:101ED2003E2030202626203C203235340D0A005880
:101EE2004572726F723A2072656769737465722007
:101EF2005B25645D20206D757374206265203E2031
:101F020030202626203C2034390D0A0058434D4407
:101F1200204572726F723A204D4158204C656E67AF
:101F22007468204578636565646564205B25645D3B
:101F32002062797465730A00584572726F723A2092
:101F420064617461205B25645D20206D757374206B
:101F52006265203E2030202626203C20313032335C
:101F62000D0A00524541443A2049443A205B25304B
:101F720032645D205245474953544552205B253017
:101F820032645D0D0A0058434D44204572726F72EF
:101F92003A20257320657870656374732025642068
:101FA20062797465730D0A0058434D44204572727C
:101FB2006F722C20496E76616C696420434D443AFD
:101FC200205B25735D0D0A005A2D426F7420534326
:101FD200484E4F5A5A202076312E3320303630392F
:101FE20031362020200D0A000D0A53746172740DDF
:0E1FF2000A00286E756C6C29002E0D0A000086
:020000040020DA
:08000000FFFFFFFFFFFFFFFF00
:020000040030CA
:0E000000FF281F3CFFBF81FF03C003E0034049
:00000001FF
