:10000000C128B800252084133230A6000030A70094
:10001000A620A00AA50AA201A30100083805A6008F
:10002000640000083805A7002606270538060319CE
:10003000A20A0319A30A2708A600A4030319A5030B
:100040000319A00B10282208BC2884178004BC28A0
:10005000A000A00DA00D200D383981389F00003080
:10006000A1000A304F201F151F1934281E08A100B7
:1000700083161E08BC288001840AFF3E031D3B280E
:10008000BC28A301A200FF30A207031CA307031C86
:10009000BC280330A100DF304F204328A101E83EF7
:1000A000A000A109FC30031C5828A00703185528FC
:1000B000A0076400A10F552820185E28A01C622804
:1000C0000000622808000310A10CA00CFF3E0318DA
:1000D00063282008BC28A101A301A20002307328D4
:1000E000A20006307328A80023082102031D7A28E5
:1000F00022082002043003180130031902302805B9
:10010000031DFF30BC280038031DFF300405031D0C
:10011000FF30BC28A501A4011030A600210DA40DBC
:10012000A50D2208A4022308031C230FA50203180F
:10013000A0282208A40723080318230FA5070310EB
:10014000A00DA10DA60B8E282008BC281030A800F9
:10015000A101A001A70CA60C031CB4282208A0072B
:1001600023080318230FA107A10CA00CA50CA40CB5
:10017000A80BAA282408BC28831303138312640045
:1001800008002030840060303B20A0308400203004
:100190003B20CA01CB01D1012030840060303B20DC
:1001A000A030840020303B2083161F109F141F15A1
:1001B0009F159F17FF308500073086008312860148
:1001C0008316F93087008312871087141E30CE0003
:1001D000CF011C30C800C9013C30C2000830C30048
:1001E0001E30C600C70102302820C0002108C1000F
:1001F000C401C50164000618FF280617002906136C
:100200000321322226298316071183120630920019
:100210008316FF3092008312171597154408BC000F
:100220004508BD003C1817163C1C1712BC18971641
:10023000BC1C97123C08A0003D08A10002306620BB
:10024000BC002108BD003C089500080032220321B3
:10025000640006182D2906172E2906136400871F2F
:100260004A2901302820CA002108CB004A08A000F2
:100270004B08A100A301FA307020031D4029282952
:1002800087100130D00002302820C0002108C100B2
:1002900050214F298714C401C5010321D4212629E7
:1002A000640006185529061756290613003006184B
:1002B0000130A00000306B20B2000030871B0130FD
:1002C000A00001306B20B400320884003408832081
:1002D000B400B5006400340835040319D329640060
:1002E000061D74298616752986128710C830A2004B
:1002F000A3010730840001300120C4002308C50099
:100300004408A0004508A1004F08A3004E08702033
:10031000031DCA294408A6004508A7004808A200F2
:100320004908A300A620B2002508B3004208B2077E
:1003300043080318013EB3073208A0003308A100A8
:100340004608A2004708A3008A20C4002108C5006F
:100350004408A0004508A1000330A300FE3070202F
:10036000031DB629FF30C4000330C5006400871D9B
:10037000BB298617BC298613061664005008013C69
:10038000031DC929D00186150130A300F430422095
:100390008611D1298714C401C501861306120130C4
:1003A000D00003215029080064000618D929061737
:1003B000DA2906136400871B2F2A6400061DE22930
:1003C0008616E32986126400871AF9290A3041202B
:1003D0006400871AF429861306128612D1010130AF
:1003E000D000C401C50103216400871AF829F4294B
:1003F000D4296400071AFE290130D1006400510895
:10040000003C0319D42900302820C4002108C5006D
:100410004408A0004508A1000330A300FE3070206E
:10042000031D162AFF30C4000330C50003216400F9
:10043000071F1C2A86131D2A8617061664005008FB
:10044000013C031D2A2A86150130A300F430422006
:100450008611D0016400071A2E2A2A2A312A322254
:100460000800D429061286138612D1010130D0006B
:0A0470008714C401C5010321080030
:02400E00753FFC
:00000001FF
