:10000000C128BA00252084133230A6000030A70092
:10001000A620A00AA50AA201A30100083A05A6008D
:10002000640000083A05A700260627053A060319CA
:10003000A20A0319A30A2708A600A4030319A5030B
:100040000319A00B10282208BC2884178004BC28A0
:10005000A000A00DA00D200D383981389F00003080
:10006000A1000A304F201F151F1934281E08A100B7
:1000700083161E08BC288001840AFF3E031D3B280E
:10008000BC28A301A200FF30A207031CA307031C86
:10009000BC280330A100DF304F204328A101E83EF7
:1000A000A000A109FC30031C5828A00703185528FC
:1000B000A0076400A10F552820185E28A01C622804
:1000C0000000622808000310A10CA00CFF3E0318DA
:1000D00063282008BC28A101A301A20002307328D4
:1000E000A20006307328A80023082102031D7A28E5
:1000F00022082002043003180130031902302805B9
:10010000031DFF30BC280038031DFF300405031D0C
:10011000FF30BC28A501A4011030A600210DA40DBC
:10012000A50D2208A4022308031C230FA50203180F
:10013000A0282208A40723080318230FA5070310EB
:10014000A00DA10DA60B8E282008BC281030A800F9
:10015000A101A001A70CA60C031CB4282208A0072B
:1001600023080318230FA107A10CA00CA50CA40CB5
:10017000A80BAA282408BC28831303138312640045
:1001800008002030840060303B20A0308400203004
:100190003B20CC01CD01D3012030840060303B20D6
:1001A000A030840020303B2083161F109F141F15A1
:1001B0009F159F17FF308500073086008312860148
:1001C0008316F93087008312871087141E30D00001
:1001D000D1011C30CA00CB013C30C4000830C5003E
:1001E0001E30C800C90102302820C2002108C30007
:1001F000C601C70101214B220330A300E830422091
:100200002429831607118312063092008316FF30CB
:1002100092008312171597154608BE004708BF00C5
:100220003E1817163E1C1712BE189716BE1C9712C2
:100230003E08A0003F08A10002306620BE00210851
:10024000BF003E08950008004B22640086184A292A
:1002500001216400871F452901302820CC00210896
:10026000CD004C08A0004D08A100A301FA30702079
:10027000031D3B29292987100130D2000230282094
:10028000C2002108C3004B214A298714C601C701B7
:100290000121DA212429003086180130A000003025
:1002A0006B20B200003006180130A00000306B2037
:1002B000B4003208840034088320B400B500003054
:1002C000871B0130A00001306B20B60034083504D4
:1002D000840036088320B600B7006400360837046F
:1002E0000319D9296400061D7729861678298612F4
:1002F0008710C830A200A30107308400013001201C
:10030000C6002308C7004608A0004708A1005108FE
:10031000A30050087020031DCF294608A6004708F7
:10032000A7004A08A2004B08A300A620B200250897
:10033000B3004408B20745080318013EB30732086A
:10034000A0003308A1004808A2004908A3008A20A1
:10035000C6002108C7004608A0004708A1000330D6
:10036000A300FE307020031DB929FF30C600033002
:10037000C7006400871DBF2906138617C129061709
:100380008613061664005208013C031DCE29D201D3
:1003900086150130A300F43042208611D729871436
:1003A000C601C7010613861306120130D2000121CF
:1003B0004B290800003086180130A00000306B2067
:1003C000B2000030871B0130A00000306B20B40069
:1003D0003208840034088320B400B5006400340877
:1003E00035040319482A6400061DF8298616F929E0
:1003F00086126400871A102A0A3041206400871A86
:100400000B2A0613861306128612D3010130D2007E
:10041000C601C70101216400871A0F2A0B2ADA29B5
:100420006400071A152A0130D30064005308003C09
:100430000319DA2900302820C6002108C700460821
:10044000A0004708A1000330A300FE307020031D68
:100450002D2AFF30C6000330C70001216400071FAA
:10046000342A06178613362A0613861706166400E2
:100470005208013C031D432A86150130A300F430C5
:1004800042208611D2016400071A472A432A4A2AC9
:100490004B220800DA290612061386138612D301AE
:0E04A0000130D2008714C601C70101210800F7
:02400E00753FFC
:00000001FF
