:0400000080314228E1
:100008007E14803120007F08F100911C0E28C10168
:10001800C10A91108B1C1A28430803191528E501F9
:100028001728C301C30A280095018B102000931CD0
:100038002128E501E50AC3019310931D3E284608CF
:10004800031D292822000E143C2820004208031D05
:10005800302822000E14322822000E1020004208F8
:10006800031D3828013039280030F0007008C2001C
:10007800200093117108FF007E1009008031442888
:10008800E3308400843085005230860000308700D9
:100098001430853112258031FA01FB0120308400AB
:1000A800003085003230853118258031A030840039
:1000B800003085003630853118257E1020008231C9
:1000C800692A00302000901B01302100C400003054
:1000D80020008F1B01302100C500003020000F1BBD
:1000E80001302100C600003020008F1A01302100A5
:1000F800C700003020000F1A01302100C80000306E
:1001080020008F1901302100C900003020000F198C
:1001180001302100CA00003020008F180130210072
:10012800CB00003020000F1801302100CC00003037
:1001380025000C1901302100CD00003025000C18D5
:1001480001302100CE00003020008E19013021003E
:10015800CF00003025008C1901302100D00000307C
:1001680025008C1B01302100D100003025000D1A1C
:1001780001302100D200003025000D180130210087
:10018800D300003025008D1801302100D400003044
:1001980020000E1901302100D500F6011230760238
:1001A80003182A297608C43E860087010103031D27
:1001B8000A290530F4000030F50009307606031DE1
:1001C800E9283230F4000030F5007635A03E86008C
:1001D8008701403FF200413FF30075087302031D99
:1001E800F72874087202031803297635A03E8600A2
:1001F80087010130810741310318810A22297608D5
:10020800203E860087018101810A22297635A03E99
:10021800860087011600010403191D297635A03EC2
:10022800860087010130810241310030813B7F31F6
:1002380022297608203E8600870181010130F200DC
:100248007208F60712307602031CD6282000200810
:10025800F2007208B7002108F2007208C7002208ED
:10026800F2007208C8002308F2007208C9002408C6
:10027800F2007208CA002508F2007208CB002608AE
:10028800F2007208CC002708F2007208CD00280896
:10029800F2007208CE002908F2007208BD002A0890
:1002A800F2007208C0002B08F2007208BB002C088C
:1002B800F2007208BE002D08F2007208CF002E0866
:1002C800F2007208D0002F08F2007208BC00300853
:1002D800F2007208BA003108F2007208BF00080084
:1002E80020003803031D85290130E2020030E33B7A
:1002F800620863040319832922008E1085292000CF
:10030800B80120003208031D5D2A2200101790163C
:100318002000E401E40A08002200101790162000CB
:10032800B801B80A6430E2000030E30022008E1001
:10033800080022001017901620003D08031D080031
:100348000230F3007308E40027008C140800200032
:100358003D03031D08003B080319B529B601B60A79
:1003680008003508F3007308B90039080319C029D3
:1003780009303906031DC329E401E40A08002200F4
:100388009012B030FA000430FB000330F300730819
:100398002000E4000800390884313C248131013A06
:1003A800031DE229220090163230FA000030FB00CB
:1003B8000430F30073082000E40008007A087B0486
:1003C8000319EB290130FA020030FB3B080020003A
:1003D800E40108007A087B040319F7290130FA02BE
:1003E8000030FB3B0800220010133230FA000030C6
:1003F800FB000530F30073082000E40008007A08C9
:100408007B0403190C2A0130FA020030FB3B080078
:10041800220090125830FA000230FB000630F30038
:1004280073082000E40008003708031D272A22006B
:1004380090163230FA000030FB000730F3007308E2
:100448002000E40008007A087B040319302A0130F0
:10045800FA020030FB3B0800220090163230FA0006
:100468000030FB000830F30073082000E4000800A7
:100478007A087B040319452A0130FA020030FB3B55
:100488000800220010172000E401E40A27008C105D
:1004980008007A087B040319562A0130FA02003052
:1004A800FB3B0800220010172000E40127008C10F5
:1004B80008002000640884000930040203180800BA
:1004C80085310435003E820008002100D701640010
:1004D8008331A5238231640020004103031DE92AEA
:1004E800C1010130ED006D082100D707803165207A
:1004F8008231FF302000ED006D082100D600200079
:100508003B0803198C2AFE30ED006D082100D60542
:1005180020003C080319952AFD30ED006D082100E4
:10052800D605210056080F392000ED006D08C600D9
:100538004608523E86008701010828009D00823146
:10054800ED2282318131742182313230F200003063
:10055800F300210057082000ED00EE016D08F400BB
:100568006E08F5008331F723823172087304031D86
:10057800C72A8431B424823127000D112000321C8F
:10058800C72A27000D150C3021005702031CD62A54
:1005980020003603031DD22A27008D1120003B08B6
:1005A8000319B601643021005702031CE12A200018
:1005B8004F03031DE12A27008D11C830210057027F
:1005C800031CE92AD70127008D1583314C2382317A
:1005D8006F2A20003808031DF92A4F03031DF72A44
:1005E80022008E10F92A22008E1420003208031DE2
:1005F800082B22000E16101227008C160C1722004A
:1006080090112000C501080022000E1220003F03AF
:10061800031D112B22001016132B2200101220008C
:100628003E03031D1A2B220010151C2B220010114B
:1006380020006508031D442B4008031D272B2700B5
:100648008C160C132A2B27000C178C122000440838
:10065800031D382B220090156430F2007208200028
:10066800C500C401C40A080045080319412B22002B
:10067800901501302000C5020800220090110800E2
:100688002200901127008C160C172000C4010800C6
:100698002000191A562B19190800960197011916E6
:1006A800991508001708E6006608E8001608E6002D
:1006B8006608E9006808E600E7016608EB006708D5
:1006C800EC006B08E700E6016608EB006708EC0041
:1006D80069086B07EB006C0803186C0AEC0007301C
:1006E8006C02D03003196B02031C7D2BB501191263
:1006F80008009919080000306C02653003196B0274
:10070800031C8C2B6B08643EEB0000306C3DEC0046
:10071800C830F2000030F3006C08F5006B08F400F4
:100728008431802472082000E6006608EA000A3056
:100738006A020318EA016A08E6006608B500191299
:10074800080070302100990023008C01FF3021003F
:100758008C00FF308D00EC308E00FF308F002300BE
:10076800900183302100900028008C018D302600F4
:100778008C0028008D01F33026008D0022008E1099
:100788000E161012901110119016101727008C14C5
:100798000C128C160C170D118D117D3020009B004A
:1007A80027309C00210091142000C10152302800FC
:1007B80096004F309700210093142000E501E50AC8
:1007C8000D3028009E0021009315AA3095000B16C5
:1007D80020001E109501D0309900313098009915ED
:1007E8000B178B170800F801F51F012CF409F50900
:1007F800F40A0319F50AF801F80AF31F082CF2099C
:10080800F309F20A0319F30A7208730403192F2C67
:10081800F701F70AF31B1A2C0130F235F30D890B97
:10082800112C0130F6007608F7070E2C73087502B4
:10083800031D202C72087402031C262C7208F40273
:100848007308F53B0130F336F20C890B272C013085
:10085800F702031D1A2C78080319372CF409F50937
:10086800F40A0319F50A7508F3007408F200080081
:10087800F2007203031D442C2000470803197C2C46
:1008880002307206031D4C2C2000480803197C2CEA
:1008980003307206031D542C2000490803197C2CD0
:1008A80004307206031D5C2C20004A0803197C2CB6
:1008B80005307206031D642C20004B0803197C2C9C
:1008C80006307206031D6C2C20004C0803197C2C82
:1008D80007307206031D742C20004D0803197C2C68
:1008E80008307206031D7E2C20004E08031D7E2C46
:1008F8000130080000300800F801F901720873049B
:100908000319AF2CF701F70AF31B942C0130F235C9
:10091800F30D890B8B2C0130F6007608F707882C2D
:100928000130F835F90D890B952C73087502031DF4
:100938009F2C72087402031CA62C7208F402730818
:10094800F53B78140130F336F20C890BA72C0130F3
:10095800F702031D942C7908F3007808F2000800C8
:100968000B1DBA2C2000B301B401D22C20001508AD
:10097800F200F3017208B3007308B4000130323E8C
:1009880086008701403FF200413FF300F235F30D46
:10099800F235F30D7208B3007308B4000B1195011A
:1009A80001303402DB3003193302031CE12C350813
:1009B8000319E12CB201B20A0800B2010800FF34A1
:1009C800FA34E334D034C034B234A6349C3493348B
:1009D8008B3484347D34773472346D3468346434C1
:0609E8000034013401346B
:100A00008131902981319D298131AB298131CF29D3
:100A10008131EE298231032A8231182A82313C2A1F
:100A200082314D2AFE0012001E00FE0B132D0034F1
:0C0A3000640080010131890B192D003495
:020000040001F9
:04000E00DCCFFCDB6C
:00000001FF
