:020000040000FA
:10000000AF0AFA0C2800FF0C2900F90C2A000400A2
:10001000EA02070AA8024306A9024307050AA7073E
:10002000140A07061A0A200A87050C0C2A00040085
:10003000EA02170A87050C0C2A000400EA021D0ACE
:1000400087050C0C2A000400EA02230A8704030532
:100050006E03A7070E0403056C0386070C04030553
:100060006D03A6070D0403056F0346070F04030580
:1000700072036707120403057103470711040305A0
:1000800070038606480AA606480A0C050D051004EA
:100090000E0243060B05FF0F43060B040C0243063A
:1000A0002B05FF0F43062B040D0243064B05FF0FE4
:1000B00043064B040F0243068B05FF0F43068B04D8
:1000C00012024306AB05FF0F4306AB0411024306C1
:1000D000CB05FF0F4306CB04100243066B05FF0F51
:1000E00043066B04000801092B06730A4B06730ACA
:1000F0008B06730AAB06730ACB06730AEC0C280056
:10010000FF0C2900F90C2A000400EA02840AA80264
:100110004306A9024307820A00080705EC0C2800E1
:10012000FF0C2900F90C2A000400EA02940AA80234
:100130004306A9024307920A270500082704EC0C8E
:100140002800FF0C2900F90C2A000400EA02A50A85
:10015000A8024306A9024307A30A070400082500D2
:10016000660067006B000B05AA0C2C002D002E000A
:100170002F003000310032003C0C06002C0C070030
:10018000EC0C2800FF0C2900F90C2A000400EA02FC
:10019000C60AA8024306A9024307C40ACF0A0109F6
:1001A0000B06CF0A8B06DB0AAB06E90A4B06E20A0E
:1001B0006B06E90ACF0A8D0901098B06DC0A9E0944
:1001C0007309CF0A8D0901094B06E30A9E097309D9
:1001D000CF0A8D09730901092B06F30ACB06F30A2E
:0C01E0008B06DB0AEB0A9E097309CF0AAC
:021FFE00FC0FD6
:00000001FF
