:020000040000FA
:02000000B6291F
:08000800322854346F347234C5
:100010006D34613463346834203449342F344F34C0
:100020002034563431342E3438342034423475344C
:1000300069346C3464342034303432342F34313405
:1000400031342F34323430342034303431343A3493
:10005000303430343A343034303420344934443459
:1000600020340034F000030E83120313F1008C1AC5
:10007000AF280B194028710E8300F00E700E090096
:100080000B11250803194528A503260803194A283A
:10009000A6034C28FA30A60000302A06031D562875
:1000A0000614270887008610AA0A652801302A0648
:1000B000031D60288614280887000611AA0A6528EF
:1000C0000615290887000610AA01AB01051E2B148E
:1000D000851EAB14851F2B15051FAB152B1C78280F
:1000E0002D080A3A031D76282C147728AD0A7E289D
:1000F0002D08031D7D282C107E28AD03AB1C8828FD
:100100002E080A3A031D8628AC148728AE0A8E28CA
:100110002E08031D8D28AC108E28AE032B1D9828A9
:100120002F080A3A031D96282C159728AF0A9E28F7
:100130002F08031D9D282C119E28AF03AB1DA82856
:1001400030080A3A031DA628AC15A728B00AAE2825
:100150003008031DAD28AC11AE28B00337280408C1
:10016000423A031DB628F21429151A08981CBB2818
:10017000F21418121816F218DC281A080D3A03198E
:10018000C3280D3ACA280D3A0408323A0319C9287F
:100190007214DC280A3A0319CF280A3AD6280A3AF8
:1001A0000408323A0319D5287214DC28721CD928A5
:1001B000F2148000840AA914372832308400000821
:1001C000563A031DEA28840A0008453A031D080030
:1001D000AB2100340008533A031D0800840A0008CC
:1001E000523A031D0800840A0008203A031D080043
:1001F000B10103100430A000B10D840A0008303AA8
:10020000031D032908290008313A031D0800311491
:10021000A00BFC286C219A21892100342C302C2140
:1002200008000D302C210A302C210800871E1929C6
:1002300072127216F21C1D291E2108003230840031
:100240001030A0008001840AA00B222932308400E3
:100250001A08F2107210080064000C1E2D29990073
:10026000080082000000A400640024083121A000DE
:100270002008031908002C21A40A3429080033217E
:100280001121080045212C2108000F39F63E0318E2
:10029000073E3A3E08002B08A700851D5129281467
:1002A00052292810051D5629A8145729A810851C65
:1002B0005B2928155C292811861E6029A81561294B
:1002C000A8110800A50064002508031D6329080083
:1002D0000A30622964306229721E8829B11D722990
:1002E00085157329851114306221311D7929051571
:1002F0007A29051114306221B11C802985148129C5
:10030000851014306221311C8729861688298612AF
:1003100008003030851931302C213030051931304A
:100320002C213030851831302C213030861A313074
:100330002C21003430302C1831302C213030AC18C6
:1003400031302C2130302C1931302C213030AC1987
:1003500031302C21003405303321420842217216FD
:10036000003472084221720E4221003483160317B2
:10037000850186018316031310309500F030831237
:100380000313F0308500DF3086000F3087008316BE
:100390000313F1308500F0308700D83086008316D3
:1003A000031301308100831203138101F201A501BF
:1003B000A601AB01AC01AD01AE01AF01B00132301D
:1003C0008400AA010E18E529F215031AE82972150E
:1003D000831603130C309900243098008C16831276
:1003E000031390309800A701A801A901E0308B0009
:1003F000831603138C16831203130230C200851573
:100400000000061A172A0130C20005150000061A5E
:10041000172A0030C20085140000061A172A03307C
:10042000C20086160000061A172A0930C20085117C
:10043000051185108612A815A7156A2129152815FA
:1004400027156A21A914A814A7146A2129142814AD
:1004500027146A21A811A7116A212911281127112F
:100460006A21A910A810A7106A21291028102710A6
:100470006A212911A91029146A2164001621721A0F
:10048000432AB1016C214B21721C542ADD20003813
:10049000031D4D2A2E3029114F2A583029152C21A1
:0A04A00011211E21A91072103D2A3F
:02400E009C3BD9
:02401000CF3FA0
:00000001FF
