:040000008031122811
:100008007E14803120007F08F000911C0E28BD016D
:10001800BD0A91107008FF007E1009008031142875
:100028008731FF278031FC009A3084008E308500AC
:10003800203086000030870011308731F927803161
:10004800313084000030850010308E3186267E10D5
:1000580020008531B92D09307C02031C36288E31E9
:10006800AB268031033020002902031CBB2B033050
:100078007C02031CBB2BFC01BB2B20002B08031D9F
:100088000800FC01FC0A080022000D1520002B08BE
:100098000319080007302B06031908000330F30082
:1000A8007308FC000230F3007308A900080022005E
:1000B8000D15023020002B06031D0800BC012A087C
:1000C800F3007308FC000230F3007308A90008006D
:1000D80020002B08031D08000430F3007308FC00FF
:1000E80008000230F30073082000A90022000D1553
:1000F8008D1410179017023020002B06031D772946
:10010800490A031D95284A0A031D95280730F3005C
:100118007308FC007D30B1000030B20022000D11E0
:10012800B228200049084A040319AC282E03031DED
:10013800A328BB30B1000030B2000B30A828BB3078
:10014800B1000030B2000930F3007308FC00B22897
:10015800B801B80A4030F3007308B9000330200032
:100168004A02E83003194902031CD52823009518D0
:10017800BA280030920001309100FF3093003F30E0
:10018800F30073089505200003108B1B03148B13D1
:100198002300151555309600AA30960095141511B0
:1001A800F62803304A02013003194902031CFA28D1
:1001B80023009518DC2800309200013091000330AC
:1001C80093003F30F30073089505200003108B1B44
:1001D80003148B132300151555309600AA3096008A
:1001E800951415112000031C5A29592902304A0276
:1001F800013003194902031C1C2923009518012901
:100208000030920001309100023093003F30F3003B
:1002180073089505200003108B1B03148B13230010
:10022800151555309600AA309600951415115729C2
:1002380001304A02013003194902031C3E292300F8
:100248009518232900309200013091000130930065
:100258003F30F30073089505200003108B1B03142F
:100268008B132300151555309600AA309600951467
:1002780015115729230095183E29003092000130A6
:10028800910093013F30F300730895052000031097
:100298008B1B03148B132300151555309600AA30B9
:1002A800960095141511200003188B172300951834
:1002B8005A299101920120004908230093003F30F8
:1002C800F30073089505200003108B1B03148B1390
:1002D8002300151555309600AA309600951415116F
:1002E800200003188B17BC01080001302000B10260
:1002F8000030B23B31083204031D08000830F30017
:100308007308FC00080022008D1420002F03031D31
:1003180008000430F3007308FC0008002200901362
:1003280001302000B1020030B23B31083204031D15
:1003380008007130B1000230B2000A308E318C26CC
:10034800F3007308FC00080022001012013020009E
:10035800B1020030B23B31083204031DBD2922002E
:1003680010160F30F30073082000A900FC01FC0AE6
:1003780008002E03031D080022001016BB302000C1
:10038800B1000030B2000B308E318C26F3007308B8
:10039800FC00080022001013901301302000B10265
:1003A8000030B23B31083204031D08000C30F30062
:1003B8007308FC00A901A90A0800023020002B06D6
:1003C800031DF3290230F3007308A9000D30F30070
:1003D8007308FC007130B1000230B20008002B082D
:1003E800031908000B30F3007308A9000800220065
:1003F8008D10101301302000B1020030B23B3003E1
:10040800031D152A2C08F3007308B700BB30B10090
:100418000030B2000E308E318C26F3007308FC00D9
:100428000800200031083204031D08000A30F300D8
:100438007308A90008002200901701302000B102BB
:100448000030B23B31083204031D08007130B1009E
:100458000230B2000F308E318C26F3007308FC0096
:1004680008002200901201302000B1020030B23B97
:1004780031083204031D4A2A220090161030F30076
:1004880073082000A900FC01FC0A08002D03031DC5
:10049800080022009016BB302000B1000030B200E6
:1004A80010308E318C26F3007308FC0008002200FF
:1004B800901301302000B1020030B23B3108320401
:1004C800031D0800BB30B1000030B20012308E317D
:1004D8008C26F3007308FC00080022001017013076
:1004E8002000B1020030B23B31083204031D08007D
:1004F8007130B1000230B20013308E318C26F30017
:100508007308FC0008002200101201302000B1021C
:100518000030B23B31083204031D992A1130F30030
:100528007308A900FC01FC0A08002E03031D08003B
:1005380022001016BB302000B1000030B20011308C
:100548008E318C26F3007308FC000800013020006F
:10055800B7023708031DC72A220010170D19BB2A36
:1005680016308E318C26F3007308FC0008007D30AD
:100578002000B1000030B20015308E318C26F30017
:100588007308FC00080022001013BB302000B100E3
:100598000030B20014308E318C26F3007308FC0052
:1005A80008002200101301302000B1020030B23BD5
:1005B80031083204031D0800BB30B1000030B2001E
:1005C8000E308E318C26F3007308FC0008002200E0
:1005D8000D1101302000B1020030B23B3108320465
:1005E800031D08001630F3007308FC000800220001
:1005F8008D1420002F03031D08000130C9020030AC
:10060800CA3B03304A02013003194902031C2A2B52
:10061800230095180C2B0030920001309100033014
:1006280093003F30F30073089505200003108B1BDF
:1006380003148B132300151555309600AA30960025
:10064800951415112000031C8A2B892B02304A02AD
:10065800013003194902031C4C2B23009518312B38
:100668000030920001309100023093003F30F300D7
:1006780073089505200003108B1B03148B132300AC
:10068800151555309600AA30960095141511872B2C
:1006980001304A02013003194902031C6E2B230062
:1006A8009518532B003092000130910001309300CF
:1006B8003F30F30073089505200003108B1B0314CB
:1006C8008B132300151555309600AA309600951403
:1006D8001511872B230095186E2B003092000130DE
:1006E800910093013F30F300730895052000031033
:1006F8008B1B03148B132300151555309600AA3055
:10070800960095141511200003188B1723009518CF
:100718008A2B9101920120004908230093003F3061
:10072800F30073089505200003108B1B03148B132B
:100738002300151555309600AA309600951415110A
:10074800200003188B1749084A040319B62B713087
:10075800B1000230B2000D308E318C26F3007308E0
:10076800FC0008000430F3007308FC0008007C0853
:100778008400173004020318080088310435003E4D
:100788008200080020002408F1007108B500250047
:100798000C082B39F10071082000A4000F1CD92B7C
:1007A80024088038F1007108A40035082406031DC8
:1007B800E42CAB302406031DE92BAB01B301B401D3
:1007C800C830A0000030A100812CAA302406031DE7
:1007D800212C2B0303191E2C04307C06031D1E2C10
:1007E80005302C020318FD2B0130F1007108AC070D
:1007F800FF2BAC01AC0A23009518FF2B00309200A8
:100808000230910020002C08230093003F30F100B3
:1008180071089505200003108B1B03148B1323000C
:10082800151555309600AA3096009514151120001C
:1008380003188B17AB01AB0A812CA9302406031DC2
:100848002C2C0330F1007108AB00BC01BC0A812CD0
:10085800A3302406031D322C02307E2C8B30240654
:10086800031D4E2C04302B0603194C2CE730490687
:10087800033003194A0603194C2C8F31782783312A
:10088800003A03194C2C01302000C9070030CA3D3A
:1008980004306F2C2B302406031D732C05302B06D7
:1008A80003196E2C490A03194A0A03196E2C8F3151
:1008B80078278331003A03196E2C200049034A0433
:1008C800031D6A2C04307C06031D6E2C0130C902FE
:1008D8000030CA3B0530F10071082000802C0B3035
:1008E8002406031D7D2C04307C06031D7D2C063058
:1008F8007E2C0730F1007108AB000130A0020030F7
:10090800A13B20082104031DB22C04302B06031D33
:100918009D2C04307C06031D9D2CE73049060330CE
:1009280003194A0603199D2C0130C9070030CA3D36
:10093800AE2C05302B06031DAE2C04307C06031D9F
:10094800AE2C490A03194A0A0319AE2C0130C90210
:100958000030CA3B2308A1002208A0000130B307D9
:100968000030B43D083033063404031DC42C043071
:10097800A2000030A3002308A1002208A00008005C
:10098800153033063404031DD62C06302B06031D00
:10099800080004307C06031D0800FF30C900FF3042
:1009A800CA000800C83033063404031D08000130AB
:1009B800A2000030A3002308A1002208A00008001C
:1009C800B301B401C830A2000030A3002308A1007D
:1009D8002208A00008002000C1004108013EF700DD
:1009E800003003180130F8007708230091007808D8
:1009F80092003F30F7007708950515141308F700A3
:100A080077082000C2004208F700F8017708C30001
:100A18007808C4004308F800F7017708C30078088D
:100A2800C4004108F700F80177082300910078080E
:100A380092003F30F7007708950515141308F70062
:100A480077082000C20042084307C300440803187F
:100A5800440AC40044087402031D342D4308730279
:100A6800031C412D4208F700F80172087802031DA3
:100A78003F2D710877020318B42D7608C400750855
:100A8800C3004308F7007708C2004408F800430889
:100A9800F7007808F700F8017708C3007808C40061
:100AA80023009518542D20004108F700F801770815
:100AB8002300910078089200200042082300930048
:100AC8003F30F70077089505200003108B1B0314AF
:100AD8008B132300151555309600AA3096009514EF
:100AE8001511200003188B174308F7007708C20078
:100AF8004408F8004308F7007808F700F801770879
:100B0800C3007808C40023009518872D20004108E9
:100B1800013EF700003003180130F8007708230081
:100B280091007808920020004208230093003F308B
:100B3800F70077089505200003108B1B03148B130F
:100B48002300151555309600AA30960095141511F6
:100B5800200003188B177608F2007508F1000800CA
:100B68004408F2004308F10008002000C501C7014D
:100B7800C601C801C80A873198278531640020005A
:100B88003D03031D2D2EBD010130FB007B08C50769
:100B9800042E3A088F31392785312D2E01308E31B8
:100BA800C22685312D2E20003B088F31392785310B
:100BB8002D2E02308E31C22685312D2E20003F0881
:100BC8008F31392785312D2E03308E31C22685315C
:100BD8002D2E8731142785312D2E04308E31C226D3
:100BE80085312D2E00308E31C226853121308F314E
:100BF800392785312D2E2000C501C601C60A2D2EA4
:100C08004508013A0319F62D033A0319CD2D013A87
:100C18000319D22D163A0319F62D033A0319D72DC5
:100C2800013A0319DD2D3E3A0319F62D033A03194B
:100C3800E22D013A0319E82D163A0319F62D033A65
:100C48000319ED2D013A0319F12D6F3A0319FF2D00
:100C58002D2E20004603031DC22D0130FB007B080A
:100C6800C70738080319422E390803193E2E0130E8
:100C7800B902422E4030FB007B08B9004803031D2F
:100C88004E2E8331C62385310230FB007B082000BD
:100C9800C8005A2E02304806031D582E8F31B82737
:100CA80085312000C8015A2EC801C80A80312F207A
:100CB80085318631702685313F3020004706031D77
:100CC800682EB601B60A6E2E7D304706031D6E2EBD
:100CD800C701B601C601C22D02302000290603193A
:100CE800A82E3603031DA82E03302902031C882EC4
:100CF8004530F1007108BA00BB01BB0A2908F63E6D
:100D0800F1007108BF0008002903031D982E203048
:100D1800F1007108BA004330F1007108BB000530DA
:100D2800F1007108BF0008002908031D08002030E1
:100D3800F1007108BA005030F1007108BB00203092
:100D4800F1007108BF0008003C03031DBF2E3603E5
:100D5800031DBF2E16307C06031DBF2E2030F10068
:100D68007108BA005030F1007108BB002030F10062
:100D78007108BF000800490A031DD22E4A0A031D44
:100D8800D22E2D30F1007108BA002D30F100710813
:100D9800BB002D30F1007108BF000800BA01BB018B
:100DA800BF014A08F3004908F200003073026430BA
:100DB80003197202031CEB2E0130F1007108BA0707
:100DC80072089C3EF200FF30733DF300D92E3A08BA
:100DD800031DF22E2030F1007108BA0000307302B2
:100DE8000A3003197202031C042F0130F100710844
:100DF800BB077208F63EF200FF30733DF300F22E97
:100E080020303A06031D0F2F3B08031D0F2F2030FB
:100E1800F1007108BB007208F1007108BF000800FA
:100E2800023020002C06031D1D2F22008F110F15E4
:100E3800412F033020002C06031D272F22008F117D
:100E48000F118F14422F043020002C06031D322F5F
:100E580022008F110F118F100E15432F053020001F
:100E68002C06031D3E2F22008F110F118F100E111B
:100E78008D11442F22008F150F118F100E118D1513
:100E880020003008031D4B2F22008E174D2F220003
:100E98008E1320002F08031D542F22008E15562F65
:100EA80022008E1120002D08031D5D2F22008E16B2
:100EB8005F2F22008E1220002E08031D662F2200AD
:100EC8000E16682F22000E12033020002902031C80
:100ED800080022008F110F118F100E118D152000A0
:100EE8003008031D7A2F22008D157C2F22008D11CA
:100EF80020002F08031D832F22000E11852F2200AA
:100F08000E1520002D08031D8C2F22008F118E2F07
:100F180022008F1520002E08031D952F22000F1187
:100F2800080022000F1508007030210099002300E6
:100F38008C01FF3021008C00F0308D0043308E0092
:100F480001308F00230090012100900128008C01BE
:100F5800FF3026008C0028008D01FF3026008D0010
:100F680022001014901410158F110F118F100E11EC
:100F78008E138E118E120E120F168F160F178F17D3
:100F880010169016101790178D140D150D14901536
:100F9800F101F10A0530F9007908F200F301F30ACA
:100FA80002308E31FA268731FA007A082000AC0028
:100FB8000030F100F200FF30F300FF30F4000030A1
:100FC800F500F60000308431EF2472082000CA00D2
:100FD8007108C90031309B0006309C002100911433
:100FE8002000BD010B178B170800FE0012001E0021
:100FF800FE0BFA2F00340434803141288031482810
:1010080080315B2880316C28803175288331C52B6D
:101018008331C52B81317929813187298131922901
:101028008131A8298131CE298131E1298131FB29FA
:1010380082311F2A8231352A82315B2A8231AA2ADB
:101048008231712A8231872A8231D52A8231EB2A6C
:041058008231FB2ABC
:101D0C00640080010131890B872E0034F200200021
:101D1C003C03031D982E7208F1007108AA00A9015A
:101D2C000230080072080800C8340034C83400348B
:101D3C00FF340134013401340134023404340734E7
:101D4C000134013401340134013420003003031D0B
:101D5C00B72E2F03031DB72E0C30F1007108A9000C
:101D6C0008002D03031D08002E03031D08000D3071
:101D7C00F1007108A9000800F10020003803031DD0
:101D8C00D62E49084A04031DD52E20303902031CD7
:101D9C00D62E043071060319D62EF101D62EB801B9
:101DAC007108031DDF2E22000F168F160F178F17C9
:101DBC0008007103031DE52E22000F1308000230EA
:101DCC007106031DEC2E22008F13080003307106E0
:101DDC00031DF32E22008F12080004307106031D20
:101DEC00080022000F120800F6007608F400F50136
:101DFC00740823009100750892003F30F4007408B9
:101E0C00950515141308F4007408F700770872028E
:101E1C00031C142F710877020318372F7308F40072
:101E2C007408F7009518182F7608F400F50174085B
:101E3C00910075089200770893003F30F400740805
:101E4C009505200003108B1B03148B132300151511
:101E5C0055309600AA3096009514151120000318E1
:101E6C008B1777080800F20043307206031D402FD1
:101E7C000A305D2F45307206031D462F0B305D2F47
:101E8C0050307206031D4C2F0C305D2F2D30720616
:101E9C00031D522F0D305D2F20307206031D582F5D
:101EAC000E305D2F21307206031D602F0F30F100B4
:101EBC007108F20022000F08F0398F007208103EF2
:101ECC00840090300318013E850000080F048F0039
:101EDC007208003E840090300318013E8500000813
:101EEC008E00080002307C060319B42F04307C06E7
:101EFC000319B42F09307C060319B42F0A307C0661
:101F0C000319B42F0B307C060319B42F0C307C064C
:101F1C000319B42F0E307C060319B42F0F307C0636
:101F2C000319B42F10307C060319B42F11307C0622
:101F3C000319B42F12307C060319B42F13307C060E
:101F4C000319B42F14307C060319B42F15307C06FA
:101F5C000319B42F16307C06031DB62FFF30080072
:101F6C0000300800003020008E180130F2002608E6
:101F7C007206031DC52F7208F1007108AE007208BD
:101F8C00F1007108A600003025000C1B0130F20096
:101F9C00200025087206031DD72F7208F100710866
:101FAC00AD007208F1007108A500003025000C1975
:101FBC000130F200200028087206031DE92F720878
:101FCC00F1007108B0007208F1007108A80000302F
:101FDC0025000C1A0130F200200027087206031DA0
:101FEC00FB2F7208F1007108AF007208F100710844
:101FFC00A70008008C340034A434243428342C3446
:10200C00AC340034AC3428348C34AC34A8342034A4
:10201C000034BC340E3406340C340E3406340A341A
:10202C000A340E340E340E34083408340C340034B4
:04203C0000340E342A
:020000040001F9
:04000E00DCCFFCDB6C
:00000001FF
