:10000000A828BA00252084133230A6000030A700AB
:100010008D20A00AA50AA201A30100083A05A600A6
:10002000640000083A05A700260627053A060319CA
:10003000A20A0319A30A2708A600A4030319A5030B
:100040000319A00B10282208A32884178004A328D2
:10005000A000A00DA00D200D383981389F00003080
:10006000A1000A304F201F151F1934281E08A100B7
:1000700083161E08A3288001840AFF3E031D3B2827
:10008000A328A301A200FF30A207031CA307031C9F
:10009000A3280330A100DF304F204328A101E83E10
:1000A000A000A109FC30031C5828A00703185528FC
:1000B000A0076400A10F552820185E28A01C622804
:1000C0000000622808000310A10CA00CFF3E0318DA
:1000D00063282008A328A101A301A20002307628EA
:1000E000A20003307628A20006307628A800230854
:1000F0002102031D7D28220820020430031801304C
:10010000031902302805031DFF30A3280038031D02
:10011000FF300405031DFF30A3281030A800A10103
:10012000A001A70CA60C031C9B282208A0072308EB
:100130000318230FA107A10CA00CA50CA40CA80B5D
:1001400091282408A3288313031383126400080052
:100150002030840060303B20A030840020303B20E1
:10016000C601C701CD012030840060303B20A030A3
:10017000840020303B2083161F109F141F159F15ED
:100180009F1707308500073086008312860183168B
:10019000F9308700831287108714C401C501D92064
:1001A0002E220330A300E83042208515051685165F
:1001B000FC28831607118312063092008316FF3045
:1001C00092008312171597154408BE004508BF001A
:1001D0003E1817163E1C1712BE189716BE1C971213
:1001E0003E08A0003F08A10002306620BE002108A2
:1001F000BF003E08950008002E22640086182C29B6
:10020000D9206400871F272901302820C600210833
:10021000C7004608A0004708A100A3017D30732055
:10022000031D1429851101290130A300F430422057
:10023000851587100130CC000130A300F430422036
:1002400002302820C2002108C3002D212C29871448
:10025000C401C501D920BE21FC2800308618013018
:10026000A00000306B20B200003006180130A00062
:1002700000306B20B4003208840034088620B400BB
:10028000B5000030871B0130A00001306B20B600A4
:1002900034083504840036088620B600B7006400B0
:1002A000360837040319BD296400061D592986162E
:1002B0005A2986128710C830A200A3010730840093
:1002C00001300120C4002308C5004408A0004508EF
:1002D000A100A30136307320031D74293630C402F7
:1002E0000030031C013EC50201302820C600210851
:1002F000C7004608A0004708A100A3017D30732075
:10030000031DB2294408A0004508A100A3016630DE
:100310007020031D8E296630C400C5014408A0006A
:100320004508A1000330A300FE307320031D9C2963
:10033000FF30C4000330C5006400871DA229861366
:100340000617A42986170613061664004C08013CFC
:10035000031DB129CC0186150130A300F4304220E1
:100360008611BB2905168714C401C501861306131F
:1003700006120130CC00D9202D2908000030861843
:100380000130A00000306B20B2000030871B01302C
:10039000A00000306B20B4003208840034088620AE
:1003A000B400B50064003408350403192B2A640036
:1003B000061DDC298616DD2986126400871AF329BA
:1003C0000A3041206400871AEE29861306130612AC
:1003D000CD010130CC00C401C501D9206400871AC9
:1003E000F229EE29BE296400071AF8290130CD0050
:1003F00064004D08003C0319BE2900302820C400C9
:100400002108C5004408A0004508A1000330A3004E
:10041000FE307320031D102AFF30C4000330C500D6
:10042000D9206400071F172A86170613192A861376
:100430000617061664004C08013C031D262A861583
:100440000130A300F43042208611CC016400071A69
:100450002A2A262A2D2A2E220800BE2906128613B1
:100460000613CD010130CC008714C401C501D92089
:02047000080082
:02400E00753FFC
:00000001FF
